:020000040800F2
:100000006806002049010008D9050008D505000848
:1000100000000000000000000000000000000000E0
:10002000000000000000000000000000DF050008E4
:100030000000000000000000DD0500082D0600089B
:100040005701000857010008570100085701000830
:100050005701000857010008570100085701000820
:100060000000000057010008570100085701000870
:100070005701000857010008000000005701000860
:100080000000000000000000000000000000000070
:100090005701000800000000570100085701000840
:1000A00000000000570100080000000000000000F0
:1000B0005701000857010008000000000000000080
:1000C00000F002F800F030F80CA030C8083824180E
:1000D0002D18671EA246AB4654465D46AC4201D180
:1000E00000F022F87E460F3EB6460FCC0126334282
:1000F00000D0FB1A3343A246AB4618470C0600005B
:100100001C0600000023002400250026103A01D31D
:1001100078C1FBD8520700D330C100D50B607047BF
:100120001FB51FBD10B510BD00F029F81146FFF72F
:10013000F7FF00F0C1FA00F041F803B4FFF7F2FF57
:1001400003BC00F047F8000006480047FEE7FEE762
:10015000FEE7FEE7FEE7FEE703480449044A054BD5
:1001600070470000C10000086800002068060020F9
:10017000680200206802002070477047704775468B
:1001800000F024F8AE46050069465346C008C0009A
:10019000854618B020B5FFF7DFFF60BCB6460026E5
:1001A0000027C0C5C0C5C0C5C0C5C0C5C0C5C0C585
:1001B000C0C5403D490849008D46704710B504460A
:1001C000C046C0462046FFF7B8FF10BD0048704744
:1001D0000000002001491820ABBEFEE72600020007
:1001E000704780B584B07D208000039000F090F9C6
:1001F0000290039801900198401C002804D0FFE76A
:100200000198401C0190FFE7FFE700F081F9029997
:10021000401A0199884201D2FFE7F6E704B080BD99
:1002200085B0BA490491039000200290019000909B
:10023000FFE7039800680299C840002800D13FE119
:1002400003980068029901228A40104001900198A9
:10025000002800D130E103984068032108400128BC
:1002600007D0FFE7039840680321084002282CD1FB
:10027000FFE70498806800900298400003218140C5
:100280000098884300900398C0680299490088400C
:10029000009901430091009804998860049840688F
:1002A00000900298012181400098884300900398B3
:1002B00040681021084000090299884000990143D4
:1002C0000091009804994860FFE703984068032173
:1002D0000840032816D0FFE70498C06800900298F1
:1002E0004000032181400098884300900398806873
:1002F00002994900884000990143009100980499AF
:10030000C860FFE70398406803210840022820D115
:10031000FFE704980299C90889004018006A009014
:1003200002984007C00E0F2181400098884300903A
:100330000398006902994907C90E88400099014352
:10034000009100980499029AD208920089180862D4
:10035000FFE70498006800900298400003210A46D5
:1003600082400098904300900398406808400299AA
:100370004900884000990143009100980499086061
:10038000039880798007002800D194E04D480168E7
:100390000122114301600298032188434A494058D1
:1003A000009002988007000F0F2181400098884339
:1003B0000090049805210907884202D1FFE7002038
:1003C00017E004985149884202D1FFE701200FE06D
:1003D00004983E49884202D1FFE7022007E0049AD0
:1003E0003B4B052006219A4200D00846FFE7FFE775
:1003F000FFE702998907090F88400099014300919E
:1004000000980299032291432F4A8850314800688E
:100410000090019800998143009103988079C0066B
:10042000002805D5FFE70198009901430091FFE7F7
:1004300000982849086028480068009001980099B1
:1004400081430091039880798006002805D5FFE755
:100450000198009901430091FFE700981E49086048
:100460001E4800680090019800998143009103980C
:1004700080798007002805D5FFE70198009901439E
:100480000091FFE700981549086015480068009042
:10049000019800998143009103988079C007002852
:1004A00005D0FFE70198009901430091FFE700980C
:1004B0000B490860FFE7FFE70298401C0290B8E68E
:1004C00005B0704734100240080001400008005099
:1004D000001C0050080401400C04014004040140C9
:1004E0000004014083B00948029001A80121018065
:1004F000029949690091009900880A460240120455
:10050000884310180299886103B0704700040050B6
:10051000044800687047C04602480168491C0160F1
:100520007047C0466000002080B582B001A800215D
:1005300001700948016840221143016000F00EF883
:10054000002804D0FFE701A80121017002E0C046A5
:10055000C046FFE702B080BD0020024080B582B0F7
:100560000320009000F02AF8002804D0FFE701A83B
:10057000012101700FE00098032804D8FFE70098DC
:1005800000F00DF803E001A80121017003E001A8CB
:1005900000210170FFE701A8007802B080BD80B59E
:1005A00084B003A9FF220A7002900020019008562F
:1005B000029900F03FF804B080BD000080B582B021
:1005C00003480190019800F00BF802B080BDC046CE
:1005D00031080000FFE7FEE7FFE7FEE770477047DE
:1005E00010B582B000900098401E000E002803D085
:1005F000FFE7012001900FE00098401E08490860C5
:100600000024E043032100F015F806480460064882
:10061000072101600194FFE7019802B010BDC046B8
:1006200014E000E018E000E010E000E080B5FFF723
:1006300073FF80BD70B582B001AA107000910020D8
:100640001056002816D4FFE7002301ACE256032021
:10065000C043024017495258E3569C07E40EFF2559
:10066000A540AA43009DAD01EDB2A5402A43034039
:100670005A501AE001AC23780F200340083B0321B5
:10068000C9430B400A4A9B5800256457A507ED0E45
:10069000FF26AE40B343009EB601F6B2AE403343F0
:1006A0000440083C0C40A350FFE702B070BDC046B8
:1006B0001CED00E000E400E080B588B00020079069
:1006C000FFF732FFFFE70F48016802221143016084
:1006D0000068104006900698FFE7002005900490FF
:1006E00003900290019001210291039004900191E6
:1006F000059001A8FFF794FDFFE7FFF7F3FEFFF772
:1007000070FDFAE72C1002401807000800000020D6
:08071000680600000401000866
:04000005080000C12E
:00000001FF
