:020000040800F2
:10000000C8050020D5000008C7380008F52D0008F5
:1000100000000000000000000000000000000000E0
:10002000000000000000000000000000013A00088D
:100030000000000000000000CB380008513A000822
:10004000E3000008E3000008F9390008E3000008B5
:10005000E3000008E3000008E3000008C106000810
:1000600000000000E3000008E3000008E3000008CF
:10007000E3000008E300000800000000E3000008BF
:100080000000000000000000000000000000000070
:10009000E300000800000000E3000008F92D00085C
:1000A00000000000E3000008000000000000000065
:1000B000E3000008BF380008000000000000000056
:1000C0000348854600F00EFA00480047F143000857
:1000D000C805002003480047FEE7FEE7FEE7FEE70D
:1000E000FEE7FEE7C1000008421C0178401C002921
:1000F000FBD1801A7047F0B51FB40646002082B0CD
:1001000005464024019100901BE0019922460F46CC
:10011000304600F028FA049A059B801A994110D3C2
:1001200010461946224600F00EFA361A8F41019702
:10013000224601200021009F00F005FA38184D41A9
:1001400000902046641E0028DFDC019B00982946B1
:10015000324607B0F0BD0000F0B5074608465840EB
:1001600087B0C00F049048000E4659004008490867
:10017000BC1A884105D2384631461E4617460B4602
:1001800002465800400810434CD0300D0390400503
:100190005900400D490D0590401A0290402872DA2E
:1001A00018030121000B09050843019004980092EF
:1001B000002805D001995242002088410092019008
:1001C000029840210A1A0199009800F0BCF90546EE
:1001D0000C466B4607CB00F0D7F9C0197141039A62
:1001E0000E0D0023D71756401A467A40164344D0C6
:1001F000049A002A2DD0029A012A039A15DC1205CE
:10020000C01A914101263605001C7141D20F059E8E
:10021000D2070093019202962A46234600F0D4F9B1
:1002200007B0F0BD38463146FAE71605224A0F46B8
:10023000B218C01AB74101210905001C4F4100182E
:100240007F41114618187941E20F10436D1964413E
:1002500013E0E2076D0815436408C2071443039ACC
:1002600001261205C01A91413605001C7141CE07C6
:10027000400830434908C01851412A46234600F03F
:1002800096F9CDE7FFE7049801224000C117121A42
:1002900000238B4104983146C417381AA141EEE778
:1002A00030B40124E407634030BC55E730B4012486
:1002B000E407614030BC4FE70000E0FFF0B51FB439
:1002C00088B00B990998002448400999C00F49004B
:1002D00049080991C0070B990090490049080B9102
:1002E00009990898A64608431CD00B990A98084318
:1002F00018D0099801244000420D4800410D09988A
:1003000024050003000B204309900B980003000B09
:1003100020430B9050181C494018002201901446AD
:10032000104605E0002001460DB0F0BD032801DABB
:10033000034600E003239C46C11A0AAE0AE05F00B0
:1003400008ADED5B4F00F75B7D430027AA187C41A9
:10035000491C5B1E6145F2DD410004AB5A52210489
:10036000120C0A43240C401C0828DFDB0198029081
:100370000099704601910090059B049A0799069890
:1003800000F022F9D0E700000DFCFFFFF0B50C46AD
:100390005C4085B0E40FE40703944C000026640839
:1003A00059009446490802460296224321D06246EB
:1003B0000A431ED06200570D4A000E032303550D59
:1003C000012402462C492405781B1B0B360B4018D0
:1003D00023432643614600901C46501AB44103D380
:1003E0000098401C009002E0921800985B410028A1
:1003F00003DA0020014605B0F0BD00200121090507
:100400000746864611E064461D46141BB54106D3D7
:100410006546521BB341744607430C43A646CD07BD
:1004200040084908284392185B4105460D43EAD12C
:100430001046184313D06046194650407140084397
:1004400006D06046101AB34106D20122002306E00E
:1004500000220123DB0702E00122D243531000985F
:1004600074460105381C6141029C039D00196941D5
:1004700000F09DF8BFE70000FD0300004A000903FB
:100480000123090B1B0519430A4B10B5520D9A4263
:1004900002DA0020014610BD064B34339A4203DCD9
:1004A0009A1A00F060F810BD034BD21800F04BF818
:1004B00010BD0000FF030000CDFBFFFF10B50029B9
:1004C00004DB0124E40740428C412146002B04DB7D
:1004D0001C460123DB075242A341994200D19042BE
:1004E00010BD0000064C0125064E05E0E36807CC70
:1004F0002B430C3C98471034B442F7D3FFF7E4FD8C
:10050000505400087054000870B50446002903D008
:1005100000202022012310E0002801D00020C04349
:10052000C046C0460DE02546D5408D4205D30D4658
:100530009540641B1D46954040191546521E002DDE
:10054000F1DC214670BD10B5202A04DB0146203ABB
:100550009140002010BD914020239C1A0346E340A7
:100560001943904010BD10B5202A04DB0846203AFC
:10057000D040002110BD0B46D340D0402024A21A09
:1005800091400843194610BD10B5202A06DBCB1751
:100590000846203A1041C1170B4306E00B461341B1
:1005A000D0402024A21A91400843194610BD10B52E
:1005B000002B08DA0024401C614192185B411A4369
:1005C00001D14008400010BDF0B51FB482B005460F
:1005D0000C0003D0084604F085FA02E004F082FA29
:1005E00020300246009021462846FFF7ACFF049BCE
:1005F000059A04460F4618431143084314D0184681
:1006000010431BD0009840210A1A18460599FFF79D
:10061000AAFF05460E46009A05990498FFF793FF36
:10062000084305D0012004E02046394607B0F0BD5C
:100630000020C11705430E432C43374300990E9801
:100640006305401A7905E40A00220C43FD0A0A30CA
:1006500002D500200146E9E70105101969410C9C0B
:100660000D9D00196941FFF7A2FFDFE730B5434355
:1006700051435C18010C130C0D465D432C1980B2DC
:1006800092B20546554351430A0C09044D19624183
:100690005843010C00044019514130BDD2B201E071
:1006A0000270401C491EFBD270470022F6E710B5CD
:1006B00013460A4604461946FFF7F0FF204610BDD0
:1006C00080B500F08FF880BD83B0019068460021AE
:1006D000017001982521405C02280DD0FFE70198A8
:1006E0000421C163FFE70198242100224254FFE75F
:1006F00002A80121017020E00198006801680E2223
:1007000091430160019800680168012291430160F2
:100710000198416C1C23194013468B40006C4360C8
:10072000019825214254FFE70198242100224254D8
:10073000FFE7009802A90870FFE703B0704780B593
:1007400082B0019068460021017001982521405C2B
:10075000022807D0FFE701980421C1636846012100
:10076000017026E00198006801680E229143016043
:100770000198006801680122914301600198416C71
:100780001C23194013468B40006C436001982521BF
:100790004254FFE70198242100224254FFE70198C8
:1007A000806B002804D0FFE70198816B8847FFE742
:1007B000FFE76846007802B080BD81B000900098E5
:1007C0002521405C01B0704780B582B001A9088046
:1007D0000888802803D1FFE704F07EF8FFE702B025
:1007E00080BD000080B582B001A880210180084949
:1007F00009680088014208D0FFE701A80188044A7F
:1008000011600088FFF7E0FFFFE702B080BDC0463F
:100810001404014085B004900391002002900190DF
:100820000090FFE7039800680299C840002800D1B3
:100830003FE103980068029901228A40104001902C
:100840000198002800D130E1039840680321084056
:10085000012807D0FFE703984068032108400228D9
:100860002CD1FFE704988068009002984000032193
:1008700081400098884300900398C068029949001D
:100880008840009901430091009804998860049879
:1008900040680090029801218140009888430090B0
:1008A0000398406810210840000902998840009987
:1008B00001430091009804994860FFE7039840685D
:1008C00003210840032816D0FFE70498C068009071
:1008D00002984000032181400098884300900398CB
:1008E000806802994900884000990143009100986E
:1008F0000499C860FFE70398406803210840022874
:1009000020D1FFE704980299C90889004018006ABD
:10091000009002984007C00E0F2181400098884344
:1009200000900398006902994907C90E8840009910
:100930000143009100980499029AD2089200891804
:100940000862FFE7049800680090029840000321C5
:100950000A468240009890430090039840680840FF
:100960000299490088400099014300910098049938
:100970000860039880798007002800D194E0EE4851
:1009800001680122114301600298032188434A490A
:100990004058009002988007000F0F218140009876
:1009A00088430090049805210907884202D1FFE797
:1009B000002017E004984149884202D1FFE7012056
:1009C0000FE004983E49884202D1FFE7022007E089
:1009D000049A3C4B052006219A4200D00846FFE7C6
:1009E000FFE7FFE702998907090F88400099014353
:1009F000009100980299032291432F4A885032486F
:100A000000680090019800998143009103988079D3
:100A1000C006002805D5FFE7019800990143009121
:100A2000FFE700982849086028480068009001986E
:100A3000009981430091039880798006002805D5AC
:100A4000FFE70198009901430091FFE700981F49D3
:100A500008601F4800680090019800998143009148
:100A6000039880798007002805D5FFE70198009951
:100A700001430091FFE70098154908601548006898
:100A80000090019800998143009103988079C007F4
:100A9000002805D0FFE70198009901430091FFE786
:100AA00000980C490860FFE7FFE70298401C02909D
:100AB000B8E605B07047C046080001400004005089
:100AC00000080050001C0050080401400C040140C4
:100AD000040401400004014083B005200007029097
:100AE00001A840210180029909690088014204D0CF
:100AF000FFE768460121017003E0684600210170AC
:100B0000FFE76846007803B0704783B0029001A801
:100B10000180684602700078002805D0FFE701A830
:100B200000880299886104E001A80088029988621F
:100B3000FFE703B070470000524800687047C046A6
:100B400081B0009001B0704783B0029001A801709D
:100B50006846028003B0704780B584B03D4803907A
:100B6000039800688069029003980068006801900B
:100B700002A84078C007002810D0FFE701A800783D
:100B8000C00900280AD0FFE70398416C01221143F5
:100B90004164039800681102C161FFE702A8407830
:100BA000042108408008002811D0FFE701A8007840
:100BB000C00900280BD0FFE70398416C08221143BD
:100BC00041640398006801218902C161FFE702A81E
:100BD0004078022108404008002811D0FFE701A812
:100BE0000078C00900280BD0FFE70398416C02226F
:100BF000114341640398006801214902C161FFE784
:100C00000398406C0090684600780B21084205D09C
:100C1000FFE70398009902F03FFAFFE704B080BDB8
:100C200080B584B00B4803900398006880690290F7
:100C300003980068006801900398406B002806D074
:100C4000FFE70398436B0299019A9847FFE704B0C6
:100C500080BDC046B000002081B0009001B0704758
:100C600081B0009001B0704781B0009001B0704732
:100C700081B0009001B0704702480168491C0160D2
:100C80007047C046C401002080B582B001A8002191
:100C900001700A480168402211430160032000F0FE
:100CA0000FF8002804D0FFE701A80121017002E03D
:100CB00000F036F8FFE702B080BDC04600200240D9
:100CC00080B582B00090144800687D21C900FFF70C
:100CD0001BFC01F093FC002804D0FFE701A80121D0
:100CE000017014E00098032809D8FFE7009900205C
:100CF000C04300F02DF800980849086003E001A8FF
:100D00000121017003E001A800210170FFE701A8A3
:100D1000007802B080BDC046000000200400002022
:100D200005480168012211430160DD48016812078E
:100D3000114301607047C0463410024080B582B054
:100D400001A908700020085603F0D8FA02B080BD4F
:100D500080B584B003AA1070029100200190105653
:100D6000029903F0E1FA04B080BD0000CD480168AB
:100D700001229202114301607047C046C9480168D0
:100D800001225202114301607047C046C548016804
:100D900001221202114301607047C04685B0012054
:100DA000049003A9087000210291BE49096842021B
:100DB00011400191224909680140009101980028E1
:100DC0000BD0FFE70098002807D0FFE7B54801687F
:100DD0000122520291430160FFE7B248016802918B
:100DE00002990322914302910499029A0A430292C2
:100DF000029901601348016804221143016003A8AD
:100E00000078012802D1FFE730BF03E040BF20BFD8
:100E100020BFFFE70B48016804229143016001985D
:100E200000280BD0FFE70098002807D0FFE79D4877
:100E300001680122520211430160FFE705B07047CB
:100E40002000014010ED00E080B586B0049001A8BC
:100E500000210170049800788006002800D4D8E0B2
:100E6000049800788006002801D5FFE7FFE78C484A
:100E70000068C000002809D4FFE789480168012202
:100E800013071943016001A80270FFE78548006855
:100E9000C00500281DD4FFE7824801680122120224
:100EA00011430160FFF748FE0390FFE77D480068AB
:100EB000C00500280CD4FFE7FFF73EFE0399401A57
:100EC000652804D3FFE705A803210170E4E0EDE7FE
:100ED000FFE7754800680321090508400290029861
:100EE000049A52680A40904214D0FFE70498406880
:100EF00003210904084088420BD1FFE76A480068D3
:100F00008003002804D5FFE705A801210170C3E094
:100F1000FFE7FFE7654800680321090408400290E5
:100F20000298002841D0FFE70298049949680322FB
:100F300012041140884238D0FFE7049800788006F8
:100F4000002832D5FFE75948016803221204914373
:100F5000029101680122D2041143016001689143AA
:100F600001600299016002A84078C00700281BD0E8
:100F7000FFE7FFF7E1FD0390FFE74C480068012120
:100F800049020840400A00280DD1FFE7FFF7D4FDD1
:100F90000399401A4749884204D3FFE705A8032173
:100FA000017079E0E9E7FFE7FFE704980078800641
:100FB000002821D5FFE7FFE7FFE7049840680321F9
:100FC0000904084088420BD1FFE7F6480168032274
:100FD00012059143049B5B681340C9180160FFE749
:100FE000FFE7049840680321090408402F490A6874
:100FF00002430A60FFE7FFE701A80078012807D154
:10100000FFE7274801680122120791430160FFE7CB
:10101000FFE7049800788007002809D5FFE72448F7
:1010200001680C229143049A926811430160FFE722
:1010300004980078400700280AD5FFE71C4801689B
:10104000032292029143049AD26811430160FFE7A0
:1010500004980078000700280AD5FFE714480168C3
:10106000032212039143049A126911430160FFE7BE
:1010700004980078000600280AD5FFE70C480168AC
:10108000032292049143049A526911430160FFE7DD
:1010900005A800210170FFE705A8007806B080BD13
:1010A0003810024000700040001002405010024012
:1010B0004C1002408913000080B586B004900120D6
:1010C00003900498002804D1FFE705A801210170CE
:1010D00061E10398B249096801221140884221D98F
:1010E000FFE7AF48016801229143039A1143016071
:1010F000FFF722FD0290FFE7A948006801210840A0
:10110000039988420DD0FFE7FFF716FD0299401AB8
:10111000A549884204D3FFE705A8032101703AE1FD
:10112000EAE7FFE7049800788007002809D5FFE781
:10113000F0480168F0229143049A926811430160DB
:10114000FFE704980078C007002800D1BCE00498AD
:10115000406802280ED1FFE7E848006801214904F1
:101160000840400C002804D1FFE705A801210170C8
:1011700011E134E00498406803280ED1FFE7DF480E
:101180000068012149060840400E002804D1FFE70D
:1011900005A801210170FEE020E0049840680128C4
:1011A0000DD1FFE7D54800680421084080080028D9
:1011B00004D1FFE705A801210170ECE00DE0CF4864
:1011C0000068012149020840400A002804D1FFE7D5
:1011D00005A801210170DEE0FFE7FFE7FFE7C54852
:1011E000016803229143049A526811430160FFF79A
:1011F000A3FC029004984068022816D1FFE7FFE79D
:10120000BC4800680C21084008280DD0FFE7FFF714
:1012100093FC0299401A6449884204D3FFE705A869
:1012200003210170B7E0EBE74DE004984068032824
:1012300016D1FFE7FFE7AF4800680C2108400C28F3
:101240000DD0FFE7FFF778FC0299401A5649884213
:1012500004D3FFE705A8032101709CE0EBE731E030
:1012600004984068012816D1FFE7FFE7A14800680D
:101270000C21084004280DD0FFE7FFF75DFC029920
:10128000401A4949884204D3FFE705A803210170A9
:1012900081E0EBE715E0FFE7964800680007800F64
:1012A00000280DD0FFE7FFF747FC0299401A3E499E
:1012B000884204D3FFE705A8032101706BE0EBE748
:1012C000FFE7FFE7FFE7FFE70398354909680122D9
:1012D0001140884221D2FFE7314801680122914341
:1012E000039A11430160FFF727FC0290FFE72C48A7
:1012F000006801210840039988420DD0FFE7FFF7FD
:101300001BFC0299401A2849884204D3FFE705A82C
:10131000032101703FE0EAE7FFE704980078400707
:1013200000280AD5FFE7734801680722120291439B
:10133000049AD26811430160FFE70498007800071F
:1013400000280BD5FFE76B4801680722D2029143C2
:10135000049A1269D20011430160FFE700F04EF8D1
:1013600064490968C9B20909104A515CC840134967
:1013700008600F480068FFF7A3FC01A9087008780F
:10138000002804D0FFE7019805A9087003E005A82C
:1013900000210170FFE705A8007806B080BDC046B7
:1013A000002002400010024089130000EF530008A3
:1013B00004000020014800687047C046000000207B
:1013C00080B5FFF7F7FF4B49096807221202114069
:1013D000090A094A515CC84080BDC04680B5FFF784
:1013E000E9FF444909680722D2021140C90A024AAA
:1013F000515CC84080BDC046FF53000810B586B0A0
:101400003C480068059005980C2108400C2861D8DC
:1014100078440079400087445C5D5D5D065D5D5DFC
:10142000135D5D5D160035480068C006002803D5D1
:10143000FFE73448009002E031480090FFE755E0B4
:101440003148009052E005980F2189040840800C33
:101450002949085C04900598032189050840800DFE
:10146000401C039023480068C00300280DD5FFE707
:101470000498254A002421462346FFF7F7F8039AEB
:101480002346FEF738FE029020E01C480068C006A4
:1014900000280DD5FFE704981A4A00242146234668
:1014A000FFF7E4F8039A2346FEF725FE02900CE0CE
:1014B0000498134A002421462346FFF7D7F8039ADD
:1014C0002346FEF718FE0290FFE7FFE70298009020
:1014D0000CE0FFE70D48006880B2400B01900198D6
:1014E000401C01218140C8030090FFE7009806B02E
:1014F00010BDC0460C100240E65300080010024028
:101500000024F40000093D0000127A00041002409B
:1015100010B58AB008900898002804D1FFE709A800
:1015200001210170B5E3FC4801680C2211400491CF
:101530000068012109040840039008980078C0075A
:10154000002800D18DE0049808280AD0FFE704980D
:101550000C2819D1FFE7039801210904884213D10F
:10156000FFE7EE480068012149040840400C0028CC
:1015700009D0FFE708984068002804D1FFE709A8D0
:101580000121017085E36BE0FFE7089840680121C5
:101590000904884207D1FFE7E048016801221204EC
:1015A0001143016021E00898406805210904884240
:1015B0000BD1FFE7D9480168012293041943016068
:1015C00001681204114301600EE0D4480168012251
:1015D000130499430160016819400291029901685E
:1015E000920491430160FFE7FFE7FFE70898406836
:1015F00000281AD0FFE7FFF79FFA0790FFE7C748D8
:101600000068012149040840400C00280CD1FFE784
:10161000FFF792FA0799401A652804D3FFE709A853
:101620000321017035E3EAE719E0FFF785FA079037
:10163000FFE7BA480068012149040840400C00282F
:101640000CD0FFE7FFF778FA0799401A652804D312
:10165000FFE709A8032101701BE3EAE7FFE7FFE7C3
:10166000FFE7089800788007002800D4A7E00898D2
:10167000C068069006A800788006002809D5FFE714
:10168000A648016820221143016006989043069005
:10169000FFE70498042808D0FFE704980C2840D1FD
:1016A000FFE7039800283CD1FFE79C48006804212D
:1016B00008408008002808D0FFE70698002804D1D9
:1016C000FFE709A801210170E3E2954801681F22A4
:1016D00012029143089A12691202114301608F4865
:1016E000016809229143069A11430160FFE7FFF761
:1016F00085FE89490968C9B209098A4A515CC8400E
:101700008949086089480068FFF7DAFA05A9087076
:101710000878002804D0FFE7059809A90870B8E206
:101720004CE0069800282AD0FFE77C48016809228F
:101730009143069A11430160FFF7FEF90790FFE716
:101740007648006804210840800800280CD1FFE793
:10175000FFF7F2F90799401A032804D3FFE709A815
:101760000321017095E2EBE76D4801681F22120228
:101770009143089A12691202114301601DE0674803
:101780000168012291430160FFF7D6F90790FFE756
:101790006248006804210840800800280CD0FFE758
:1017A000FFF7CAF90799401A032804D3FFE709A8ED
:1017B000032101706DE2EBE7FFE7FFE7FFE7089821
:1017C0000078C006002800D4A0E00498002844D186
:1017D000FFE752480068012149020840400A0028FA
:1017E00009D0FFE708988069002804D1FFE709A81D
:1017F000012101704DE24A480168072252039143DA
:10180000089A126A114301600168FF22120691438F
:10181000089AD2691206891801600898006A400B7C
:10182000401C01218140C8033B490968C9B209092C
:101830003C4A515CC8403C4908603C480068FFF79E
:101840003FFA05A908700878002804D0FFE705983A
:1018500009A908701DE2FFE757E008988069002891
:1018600032D0FFE72D4801680122120211430160C6
:10187000FFF762F90790FFE7284800680121490255
:101880000840400A00280CD1FFE7FFF755F90799F7
:10189000401A032804D3FFE709A803210170F8E1E7
:1018A000EAE71F480168072252039143089A126A27
:1018B000114301600168FF2212069143089AD26920
:1018C0001206891801601FE0F54801680122120222
:1018D00091430160FFF730F90790FFE7F048006897
:1018E000012149020840400A00280CD0FFE7FFF719
:1018F00023F90799401A032804D3FFE709A8032115
:101900000170C6E1EAE7FFE7FFE7FFE70898007824
:10191000000700284ED50BE00C10024000100240DA
:1019200004100240EF5300080000002004000020D3
:101930000898406900281ED0FFE7DA4801680122B4
:1019400011430160FFF7F8F80790FFE7D5480068FA
:1019500002210840400800280CD1FFE7FFF7ECF80F
:101960000799401A032804D3FFE709A8032101704F
:101970008FE1EBE71DE0CB48016801229143016054
:10198000FFF7DAF80790FFE7C64800680221084031
:10199000400800280CD0FFE7FFF7CEF80799401A5F
:1019A000032804D3FFE709A80321017071E1EBE7E5
:1019B000FFE7FFE7089800784007002800D4BBE065
:1019C00001A800210170B8480068C000002809D4AF
:1019D000FFE7B5480168012213071943016001A818
:1019E0000270FFE7B1480068C00500281DD4FFE77A
:1019F000AE4801680122120211430160FFF79CF812
:101A00000790FFE7A9480068C00500280CD4FFE74D
:101A1000FFF792F80799401A652804D3FFE709A851
:101A20000321017035E1EDE7FFE7FFE708988068E3
:101A300001210902884207D1FFE79A480168012283
:101A40001202114301602EE00898806800280BD133
:101A5000FFE794480168012213029943016001687D
:101A60009202914301601DE00898806805210902F7
:101A700088420BD1FFE78B4801680122930219438A
:101A8000016001681202114301600AE085480168A3
:101A9000012213029943016001689202914301609F
:101AA000FFE7FFE7FFE7FFE70898806800281BD003
:101AB000FFE7FFF741F80790FFE77A480068012148
:101AC00049020840400A00280DD1FFE7FFF734F82B
:101AD0000799401A7649884204D3FFE709A80321F1
:101AE0000170D6E0E9E71AE0FFF726F80790FFE774
:101AF0006C480068012149020840400A00280DD0C6
:101B0000FFE7FFF719F80799401A6949884204D39B
:101B1000FFE709A803210170BBE0E9E7FFE701A89F
:101B20000078012807D1FFE75F480168012212070A
:101B300091430160FFE7FFE70898406A002800D161
:101B4000A3E004980C2872D0FFE70898406A0228A6
:101B50004CD1FFE75248016801221206914301600F
:101B6000FEF7EAFF0790FFE74D48006801214906AC
:101B70000840400E00280CD0FFE7FEF7DDFF079974
:101B8000401A032804D3FFE709A80321017080E06D
:101B9000EAE742480168FD2212049143089A936AD9
:101BA000D46A2343126B1343194301603C48016814
:101BB0000122120611430160FEF7BEFF0790FFE706
:101BC00037480068012149060840400E00280CD122
:101BD000FFE7FEF7B1FF0799401A032804D3FFE798
:101BE00009A80321017054E0EAE71FE02C480168CE
:101BF0000122120691430160FEF79EFF0790FFE766
:101C000027480068012149060840400E00280CD0F2
:101C1000FFE7FEF791FF0799401A032804D3FFE777
:101C200009A80321017034E0EAE7FFE72CE00898F7
:101C3000406A012804D1FFE709A80121017028E0CA
:101C40001648006803900398012109040840089988
:101C5000896A884212D1FFE703980F21890408405E
:101C60000899C96A884209D1FFE7039803218905C9
:101C700008400899096B884204D0FFE709A80121B0
:101C8000017006E0FFE7FFE7FFE709A80021017008
:101C9000FFE709A800780AB010BDC0460C1002404A
:101CA0000010024050100240381002400070004006
:101CB0008913000081B0009001B0704781B000909E
:101CC00001B0704780B582B0BE4801900120410448
:101CD000274A116001990968896800030140080BCF
:101CE00000281AD0FFE701980068C06801210902A6
:101CF0000840000A00280FD0FFE701980068C0687C
:101D00001C49084301210902884301990968C860F8
:101D10000198FFF7D3FFFFE7FFE7019800688068AD
:101D2000012149030840400B00281AD0FFE7019821
:101D30000068C068012149020840400A00280FD00D
:101D4000FFE701980068C0680B4908430121490278
:101D5000884301990968C8600198FFF7ABFFFFE766
:101D6000FFE7019821210122425402B080BDC04604
:101D7000140401407FFEFFFF7FFDFFFF80B584B0AC
:101D8000904803901B480290002001900090039817
:101D90000068406818490840009068464188029AE7
:101DA000D17000991F2212021140090A029A517043
:101DB00000993F221140029A91700088400B0299CD
:101DC00008700198002813D1FFE70298C07801F04D
:101DD0007DFD0299C8700298407801F077FD029964
:101DE00048700298807801F071FD02998870FFE7D1
:101DF00004B080BD2B0000203FFFFF0080B584B001
:101E000070480390244802900020019000900398AD
:101E10000068806A029948600398006800691F4959
:101E20000840029988600398006800681C490840CF
:101E3000009000983F2109040840000C02990870A6
:101E400000987F210A021040000A029A5070009800
:101E50000840029988700098012189050840800D8A
:101E60000299C8700198002813D1FFE70298007802
:101E700001F02CFD029908700298407801F026FDCF
:101E8000029948700298807801F020FD02998870CC
:101E9000FFE704B080BDC046B0010020FF7F000016
:101EA0007F7F7F0080B584B04648029001A8012161
:101EB00001700298002804D1FFE703A801210170F6
:101EC0007BE002982121405C002808D1FFE70298BE
:101ED000202100224254029800F078F8FFE702988F
:101EE00021210222425402980068C0681021084053
:101EF000000900284FD1FFE7FFE702980068CA21D8
:101F000041620298006853214162FFE7029801F0A4
:101F10000BFD01A908700878002821D1FFE702987D
:101F200000688168284A114081600298416802690E
:101F3000114382691143006882680A4382600298F3
:101F4000C16800680161029881680904006802693B
:101F50000A430261029801F029FD01A90870FFE718
:101F600001A8007800280FD1FFE702980068C16C33
:101F700003229143C1640298C16942691143006818
:101F8000C26C0A43C264FFE7FFE702980068FF21C2
:101F90004162FFE703E001A800210170FFE701A80B
:101FA0000078002805D1FFE7029821210122425440
:101FB000FFE7019803A90870FFE703A8007804B0C1
:101FC00080BDC04604010020BFFF8FFF10B594B054
:101FD000139013980068184988422AD1FFE7082017
:101FE000069000200F9001200B9006A8FFF790FAB2
:101FF000002802D0FFE7FFE7FEE720200090012045
:10200000400401906846FEF71FFF002802D0FFE75A
:10201000FFE7FEE7094801680122920411430160CD
:10202000022400212046FEF793FE2046FEF786FE9E
:10203000FFE714B010BDC046002800405010024019
:10204000B0B588B0FC490691059000250495AA48D2
:10205000006840097D21CC002146FEF755FA444333
:10206000039402950195FFE706982021405C012822
:1020700004D1FFE707A8022101703BE10698202167
:1020800001224254FFE7FFE7069821210222425431
:102090000498002834D1FFE706980068806840065D
:1020A000002801D5FFE703E005980021C170FFE794
:1020B0000598C069002801D1FFE700E0FFE7059817
:1020C000007801F015FC04040598407801F010FC3C
:1020D000000224180598807801F00AFC241805985D
:1020E000C17889050C432021405C01F001FC000609
:1020F00004430598C1690C4340690443029427E0F6
:102100000698006880684006002801D5FFE703E0D4
:1021100005980021C170FFE70598C069002801D12A
:10212000FFE700E0FFE70598017809044278120212
:10213000891882788918C278920511432022825C1E
:1021400012061143C2691143406901430291FFE73E
:1021500005984168806901430191FFE7069800688E
:10216000CA2141620698006853214162FFE7059841
:10217000406A01210902884249D1FFE706980068B8
:102180008168604A1140816006980068C0685E49B5
:102190000843104006990968C860FFE70398401E8D
:1021A00003900398002814D1FFE7FFE70698006822
:1021B000FF214162FFE70698212103224254FFE7F5
:1021C0000698202100224254FFE707A8032101704E
:1021D00090E0FFE706980068C068C0070028DDD0DF
:1021E000FFE7029806990968C8610198069909688D
:1021F00048640698006881680122130219438160CF
:1022000006980068816812031143816054E00698C3
:1022100000688168394A1140816006980068C0688A
:1022200037490843104006990968C8603248006879
:1022300040097D21CC002146FEF766F94443039412
:10224000FFE70398401E03900398002814D1FFE78E
:10225000FFE706980068FF214162FFE70698212109
:1022600003224254FFE70698202100224254FFE750
:1022700007A8032101703DE0FFE706980068C068E9
:102280000221084040080028DBD0FFE702980699A9
:1022900009680862019806990968886406980068C8
:1022A00081680122530219438160069800688168A1
:1022B000520311438160FFE7144801680122520470
:1022C000114301601248016811430160FFE706985D
:1022D0000068FF214162FFE7069821210122425454
:1022E000FFE70698202100224254FFE707A80021BB
:1022F0000170FFE708B0B0BD00000020FFFDFFFF48
:102300007FFDFFFFFFFEFFFF7FFEFFFF0004014098
:102310000804014010B586B09E48049047480390D9
:10232000002002900190FFE704982021405C0128E2
:1023300004D1FFE705A8022101707AE0049820216A
:1023400001224254FFE7FFE7049821210222425470
:10235000029800280DD1FFE703984078C0060028B6
:1023600007D5FFE703984178EF2211400A31417009
:10237000FFE70298002816D1FFE70398C07801F024
:10238000B7FA04040398407801F0B2FA0002241866
:102390000398807801F0ACFA201803990978490372
:1023A000084301900CE00398C178090442781202B6
:1023B0008918827889180078400301430191FFE76A
:1023C000FFE704980068CA2141620498006853211D
:1023D0004162FFE7049801F0A7FA6946087008789F
:1023E00000280CD1FFE701981549084004990968B5
:1023F0004860049801F0DAFA69460870FFE7684619
:102400000078002805D1FFE70498212101224254D9
:10241000FFE7FFE704980068FF214162FFE7FFE75D
:102420000498202100224254FFE7009805A9087073
:10243000FFE706B010BDC046040100202B000020BD
:102440003FFFFF0010B586B05248049052480390F9
:10245000002002900190FFE704982021405C0128B1
:1024600004D1FFE705A80221017091E00498202122
:1024700001224254FFE7FFE704982121022242543F
:102480000298002822D1FFE704980068806840067F
:10249000002801D5FFE703E003980021C170FFE7A2
:1024A0000398007801F024FA04040398407801F0BE
:1024B0001FFA000224180398807801F019FA2018F6
:1024C0000399C97889050843019018E004980068C9
:1024D00080684006002801D5FFE703E0039800214B
:1024E000C170FFE703980178090442781202891845
:1024F00082788918C078800501430191FFE7FFE7E2
:1025000004980068CA21416204980068532141621E
:10251000FFE7049801F008FA694608700878002877
:102520001CD1FFE701981D4908400499096808601B
:1025300004980068816801229204914381600398A5
:10254000C168006901430498006882680A43826098
:10255000049801F02BFA69460870FFE76846007896
:10256000002805D1FFE70498212101224254FFE70A
:10257000FFE704980068FF214162FFE7FFE7049846
:10258000202100224254FFE7009805A90870FFE7C8
:1025900006B010BD04010020B00100207F7F7F0045
:1025A00080B584B002900020019002980068114923
:1025B000C160FEF7C1FA0190FFE702980068C068A9
:1025C000800600280DD4FFE7FEF7B6FA0199401AFD
:1025D0000949884204D3FFE703A80321017004E0FE
:1025E000EBE703A800210170FFE703A8007804B01F
:1025F00080BDC0465FFF0100E903000080B582B0E6
:102600000190019801F0FEF902B080BD82B0019006
:1026100068460180019800680349884202D1FFE7BB
:10262000FFE7FFE702B070470048004081B000902C
:1026300001B0704781B0009001B0704780B5A8B07C
:10264000F6480F900F980068C0690E900F980068C8
:1026500000680D900F98006880680C900E98F04903
:1026600008400B900B98002817D1FFE70EA80078C0
:102670008006002810D5FFE70DA800788006002806
:102680000AD5FFE70F98806E002804D0FFE70F9867
:10269000816E8847FFE75AE2FFE70B98002800D1D8
:1026A000FBE00CA80078C007002805D1FFE70D98D3
:1026B000DC49084200D1F0E00EA80078C0070028ED
:1026C00010D0FFE70DA84078C00700280AD0FFE728
:1026D0000F980068012101620F98842283580B43F0
:1026E0008350FFE70EA800788007002811D5FFE788
:1026F0000CA80078C00700280BD0FFE70F980068EF
:10270000022101620F988421425804231A43425047
:10271000FFE70EA800784007002811D5FFE70CA8B6
:102720000078C00700280BD0FFE70F98006804214D
:1027300001620F988421425802231A434250FFE756
:102740000EA800780007002816D5FFE70DA800782E
:102750008006002806D4FFE70CA80078C0070028F0
:102760000AD0FFE70F980068082101620F988422C1
:1027700083580B438350FFE70EA8407800070028DA
:1027800012D5FFE70DA8C078400700280CD5FFE759
:102790000F9800680121C90201620F9884214258F4
:1027A00020231A434250FFE70F9884214058002805
:1027B00072D0FFE70EA800788006002810D5FFE74A
:1027C0000DA80078800600280AD5FFE70F98806ED4
:1027D000002804D0FFE70F98816E8847FFE7FFE7E6
:1027E0000F98842140580A900F9800688068402113
:1027F0000840402806D0FFE70AA8007828210842B0
:1028000041D0FFE70F9801F091FA0F9800688068B7
:102810004006002832D5FFE7FFE7EFF3108017905E
:102820001798099001202790279880F310880F9817
:10283000006881684022914381600998269026981B
:1028400080F31088FFE70F98406F002811D0FFE752
:102850000F98406FBF4981630F98406FFDF76FFF7E
:10286000002805D0FFE70F98406F816B8847FFE78E
:1028700003E00F98FFF7DEFEFFE703E00F98FFF796
:10288000D9FEFFE707E00F98FFF7D4FE0F988421E9
:1028900000224250FFE7FFE759E10F98006E012840
:1028A00000D019E10EA80078C006002800D413E17A
:1028B0000DA80078C006002800D40DE10F9800682C
:1028C000102101620F98006880684006002800D43B
:1028D00092E00F98406F0068406808A90880088857
:1028E000002800D187E008A800880F995822895A4B
:1028F000884200DB7FE008980F995A2288520F988F
:10290000406F006800688006002867D4FFE7FFE793
:10291000EFF31080169016980790012025902599C6
:1029200081F310880F9909680A68000282430A60DF
:1029300007982490249880F31088FFE7FFE7EFF3CF
:10294000108015901598069001202390239981F30B
:1029500010880F9909688A6882438A6006982290D5
:10296000229880F31088FFE7FFE7EFF310801490C0
:102970001498059001202190219880F310880F98D9
:1029800000688168402291438160059820902098DA
:1029900080F31088FFE70F988021202242500F9883
:1029A00000210166FFE7EFF3108013901398049065
:1029B00001201F901F9880F310880F98006801680D
:1029C00010229143016004981E901E9880F3108895
:1029D000FFE70F98406FFDF777FEFFE70F980221A2
:1029E00041660F985821415A5A22825A891A89B24F
:1029F000FFF70CFEFFE7AAE00F985821415A5A2230
:102A0000805A081A03A908800F98805A002862D0BB
:102A1000FFE703A8008800285DD005E0280100201A
:102A20000F08000020010004FFE7EFF31080129070
:102A30001298029001201D901D9880F310880F9825
:102A400000680168092252019143016002981C90BC
:102A50001C9880F31088FFE7FFE7EFF310801190D8
:102A60001198019001201B901B9981F310880F99F8
:102A700009688A6882438A6001981A901A9880F3DC
:102A80001088FFE70F988021202242500F980021E4
:102A900001660F988166FFE7EFF3108010901098A1
:102AA000009001201990199880F310880F98006801
:102AB000016810229143016000981890189880F3E3
:102AC0001088FFE70F98022141660F9803A9098833
:102AD000FFF79CFDFFE73AE00EA88078C0060028CB
:102AE0000FD5FFE70CA880784006002809D5FFE73E
:102AF0000F9800680121090501620F98FFF796FD04
:102B000025E00EA800780006002810D5FFE70DA8E4
:102B10000078000600280AD5FFE70F98C06E00284D
:102B200004D0FFE70F98C16E8847FFE70FE00EA8BB
:102B30000078400600280AD5FFE70DA80078400677
:102B4000002804D5FFE70F9801F048F9FFE728B007
:102B500080BDC046093D000880B582B0A148009004
:102B60000098002804D1FFE701A80121017048E086
:102B700000988069002801D0FFE700E0FFE7009897
:102B8000C06F002808D1FFE7009878210022425446
:102B9000009800F03BF8FFE700982421C1670098F7
:102BA00000680168012291430160009801F03CF93E
:102BB000012804D1FFE701A80121017021E000985C
:102BC000406A002804D0FFE7009800F045FFFFE7C7
:102BD0000098006841680922D20291434160009840
:102BE000006881682A22914381600098006801682A
:102BF000012211430160009800F0DCFF01A9087078
:102C0000FFE701A8007802B080BDC046B0B588B02B
:102C10000790079800681A4988422ED1FFE7FFE71E
:102C200018480168012211430160006810400690B5
:102C30000698FFE7002405940494039402940194F9
:102C4000022002900C20019003940320049006209F
:102C500005900520000701A9FDF7DCFD0A48016881
:102C600001229204114301601D2528462146FEF7EA
:102C70006FF82846FEF762F8FFE708B0B0BDC0461F
:102C8000004800402C1002403810024080B588B047
:102C9000544A0692059004A80180322003900698B9
:102CA000C06F202800D097E00598002805D0FFE7E6
:102CB00004A80088002804D1FFE707A801210170BB
:102CC0008EE00698806801210903884210D1FFE751
:102CD0000698006900280BD1FFE705A80078C00717
:102CE000002804D0FFE707A80121017078E0FFE782
:102CF000069884210022425006982121C167FDF7E1
:102D00001BFF009004980699502288520498069957
:102D100052228852069880680121090388420AD10C
:102D2000FFE706980069002805D1FFE70020029020
:102D30000598019004E00598029000200190FFE7BB
:102D4000FFE706985221405A00282ED0FFE7069848
:102D5000009A039B802101F055FA002807D0FFE775
:102D600006982021C16707A80321017038E0029866
:102D700000280BD1FFE7019800881B4908400699FD
:102D8000096888620198801C019008E00298007828
:102D90000699096888620298401C0290FFE706982D
:102DA0005221425A521E4252CBE70698009A039B88
:102DB000402101F027FA002807D0FFE706982021DC
:102DC000C16707A8032101700AE006982021C167A6
:102DD00007A80021017003E007A802210170FFE7A6
:102DE00008B080BD28010020FF01000081B00090E4
:102DF00001B07047FFE7FEE780B5074800688069CB
:102E00004005400F002803D0FFE7FDF7A5FE02E0D4
:102E1000FDF706FFFFE780BDB000002080B582B05F
:102E200001900198806A00900098806B002805D07E
:102E3000FFE70098806B00218163FFE70098C06B7B
:102E4000002805D0FFE70098C06B00218163FFE7F1
:102E5000009800F00BFD02B080BD83B0029001A885
:102E60000180002100910088C007002812D0FFE7F0
:102E7000009842210843009002984121405C28219B
:102E80000840282805D0FFE70098B02108430090AB
:102E9000FFE7FFE701A800888007002812D5FFE7B9
:102EA000009844210843009002984121405C282169
:102EB0000840282805D0FFE70098B021084300907B
:102EC000FFE7FFE701A800880004002805D5FFE719
:102ED0000098B82108430090FFE701A80088102857
:102EE00005D1FFE70098902108430090FFE701A873
:102EF0000088202805D1FFE7009820210843009092
:102F0000FFE701A80088402805D1FFE7009840218D
:102F100008430090FFE70098029909680A68824315
:102F20000A6003B0704781B0009000980068806923
:102F3000022108404008002805D0FFE700980068FB
:102F400000218162FFE7009800688069C0070028BF
:102F500007D1FFE700980068816901221143816170
:102F6000FFE701B07047000080B586B0059004917E
:102F700005984121405C2821084028287CD1FFE7A2
:102F8000059800688069012109040840000C03A924
:102F900008700598006880697F2149040840000C8A
:102FA00002A908800598006880683A49084001A98C
:102FB000088005980068C068FE21084069460880BE
:102FC0000598C068022843D1FFE702A800880621BF
:102FD0000840019AD2090A40904222D1FFE70198A5
:102FE00002A908800598816C491C81640598806C51
:102FF000022815D1FFE70598002181640598006833
:103000000821C161FFE70598402100224254FFE7F3
:10301000059803A9097802AA1288FDF795FDFFE734
:1030200015E0009802A9088005980121C903FFF75F
:1030300014FFFFE70598402100224254FFE705985E
:1030400003A9097802AA1288FDF77EFDFFE712E0C6
:1030500005980121C903FFF700FFFFE7059840210C
:1030600000224254FFE7059803A9097802AA1288B2
:10307000FDF76AFDFFE70AE0059800680821C161D5
:10308000FFE70598402100224254FFE7FFE706B022
:1030900080BDC046FF03000080B584B0039002915C
:1030A00003984121415C01A8017003994222002349
:1030B0008B540399984ACA6203994B850299039AE3
:1030C000536C0B435364007828280AD0FFE701A80B
:1030D0000078292805D0FFE701A800782A280CD11C
:1030E000FFE703980321FFF7B8FE03984121282248
:1030F000425403986049416335E003988749FFF7DC
:10310000ACFE0398FFF70FFF03984121405C602855
:1031100025D0FFE7039841212022425403980068FC
:10312000806910404009012818D1FFE70398006822
:10313000806910210840000901280AD1FFE703989F
:1031400000681021C1610398416C0422114341645D
:10315000FFE7039800682021C161FFE7FFE70398BC
:1031600000214163FFE70398006B00900398806B98
:1031700000283AD0FFE70098112804D0FFE7009814
:10318000212832D1FFE70398006800684004002836
:1031900008D5FFE703980068016801229203914374
:1031A0000160FFE70398806BFDF707FB012817D04C
:1031B000FFE70398806B31498163FFE70398402163
:1031C00000224254FFE70398806BFDF7B8FA00280D
:1031D00005D0FFE70398806B816B8847FFE703E02A
:1031E000039800F043FBFFE743E00398C06B00281F
:1031F0003AD0FFE70098122804D0FFE70098222871
:1032000032D1FFE70398006800680004002808D561
:10321000FFE70398006801680122D203914301602F
:10322000FFE70398C06BFDF7C8FA012817D0FFE746
:103230000398C06B11498163FFE703984021002286
:103240004254FFE70398C06BFDF779FA002805D0D8
:10325000FFE70398C06B816B8847FFE703E00398A3
:1032600000F004FBFFE703E0039800F0FFFAFFE73C
:10327000FFE704B080BDC046253600081D2E0008BB
:1032800080B582B0019000910198B249C162019865
:103290000021016301984122202383540198422296
:1032A00081540198416368460078042108408008F1
:1032B00000281ED0FFE701980068406A0199496A1A
:1032C00008700198416A491C41620198008D0028EC
:1032D0000ED0FFE70198018D491E01850198418DAF
:1032E000491E41850198416C042211434164FFE766
:1032F000FFE701980949FFF7B0FD01980068102128
:10330000C161FFE70198402100224254FFE7019884
:10331000FDF7A6FC02B080BD0000FFFF03800000A7
:1033200080B586B005900491059800680068039008
:103330000498029005984121405C01A90870059805
:1033400000682022C2610878212805D0FFE701A883
:103350000078292808D1FFE705987C49FFF77DFD13
:1033600005982121016313E001A80078222805D0E7
:10337000FFE701A800782A2808D1FFE705987249DD
:10338000FFF76BFD05982221016300E0FFE7FFE7EF
:103390000598006841680122D203114341600598F5
:1033A000006841686A4A114041600598FFF7BBFD1B
:1033B00003A84078402108408009002814D0FFE786
:1033C0000598006801680122920391430160059805
:1033D000806B002807D0FFE70598806B0068406885
:1033E00005994885FFE71BE003A84078C00900283D
:1033F00014D0FFE70598006801680122D2039143C9
:1034000001600598C06B002807D0FFE70598C06BE6
:103410000068406805994885FFE700E0FFE7FFE79F
:1034200002A8007804210840800800281DD0FFE78A
:10343000029804218843029005980068406A059923
:10344000496A08700598416A491C41620598008DD7
:10345000002809D0FFE70598018D491E01850598D0
:10346000418D491E4185FFE7FFE70598408D002803
:1034700006D0FFE70598416C042211434164FFE741
:103480000598422100224254059842630598406CF9
:10349000002810D0FFE70598416CFFF7FDFD059867
:1034A0004121405C282805D1FFE705980299FFF7E4
:1034B000E7FEFFE746E00598C06AEB49884217D06F
:1034C000FFE7059800F048F80598E749C1620598BC
:1034D000412120224254059800210163FFE705980D
:1034E000402100224254FFE70598FDF7B9FB28E090
:1034F00005984121405C222811D1FFE70598412120
:1035000020224254059800210163FFE705984021DD
:1035100000224254FFE70598FDF7A6FB10E005984E
:10352000412120224254059800210163FFE70598BC
:10353000402100224254FFE70598FDF799FBFFE781
:10354000FFE7FFE706B080BD0280000001800000B9
:1035500000E800FE0000FFFF80B582B001900198F6
:103560000068006800900198422100224254684699
:103570004078402108408009002808D0FFE70198E2
:103580000068016801229203914301600FE06846E0
:103590004078C009002808D0FFE70198006801685A
:1035A0000122D2039143016000E0FFE7FFE70198A9
:1035B0004121405C292815D1FFE7019841212822AB
:1035C000425401982121016301980121FFF745FC34
:1035D000FFE70198402100224254FFE70198FDF7E0
:1035E00047FB1CE001984121405C2A2815D1FFE7E8
:1035F0000198412128224254019822210163019817
:103600000221FFF72AFCFFE70198402100224254E3
:10361000FFE70198FDF728FB00E0FFE7FFE702B0B6
:1036200080BD000080B586B004900391029204989A
:10363000C06A019003980090FFE704984021405C25
:10364000012804D1FFE705A80221017008E10498D0
:10365000402101224254FFE7FFE76846007820211D
:103660000840400900280DD0FFE702A8007820217B
:1036700008404009002805D0FFE704980099FFF7AB
:103680004FFEFFE768460078102108400009002837
:1036900055D0FFE702A80078102108400009002853
:1036A0004DD0FFE70498408D00282ED1FFE7049805
:1036B0004121405C28280BD1FFE7019801214906F0
:1036C000884205D1FFE704980099FFF7D9FD1BE078
:1036D00004984121405C292810D1FFE701986249F4
:1036E00088420BD0FFE7049800681021C16104985C
:1036F000FFF719FC0498FFF72FFF04E00498006817
:103700001021C161FFE7FFE718E00498006810216D
:10371000C1610498416C042211434164019800285E
:1037200006D0FFE7019801210906884205D1FFE78D
:103730000498416CFFF7B0FCFFE7FFE786E06846BE
:10374000007804210840800800282FD0FFE702A855
:103750000078042108408008002827D0FFE704985B
:10376000408D002813D0FFE704980068406A049950
:10377000496A08700498416A491C41620498018DA5
:10378000491E01850498418D491E4185FFE7049833
:10379000408D002809D1FFE701983349884204D0C1
:1037A000FFE70498FFF7D8FEFFE74EE06846007891
:1037B00008210840C00800280DD0FFE702A80078C3
:1037C00008210840C008002805D0FFE704980099A8
:1037D000FFF7CAFB38E0684600780221084040083D
:1037E00000282FD0FFE702A80078022108404008F7
:1037F000002827D0FFE70498408D002812D0FFE76B
:103800000498416A0978006881620498416A491CF9
:1038100041620498418D491E41850498018D491EDD
:1038200001850EE0019801210906884204D0FFE7D6
:103830000198002804D1FFE70498FFF78DFEFFE709
:10384000FFE700E0FFE7FFE7FFE7FFE7FFE7049898
:10385000402100224254FFE705A800210170FFE744
:1038600005A8007806B080BD0000FFFF80B582B0DB
:10387000019001984121405C602811D1FFE7019837
:10388000412120224254019800210163FFE7019861
:10389000402100224254FFE70198FDF751F90CE066
:1038A000019800210163FFE7019840210022425462
:1038B000FFE70198FDF7D0F9FFE702B080BD80B5C2
:1038C000FEF7BCFE80BDFFE7FEE7704782B001A9AE
:1038D000087000200090087800090A2242430092F4
:1038E000009809780F2211404018C0B202B070470A
:1038F00082B001A9087000200090FFE701A80078BD
:103900000A2808D3FFE70098401C009001980A3865
:1039100001A90870F2E700980007000E01A90978D4
:10392000084302B07047000080B584B003900020C7
:10393000029001A9087003980068C068400600283A
:103940002ED4FFE703980068C16880221143C1604C
:10395000FDF7F2F80290FFE703980068C1680020C5
:103960004906002906D4FFE701A80078401E411E41
:103970008841FFE7C007002811D0FFE7FDF7DCF81A
:103980000299401A0849884208D3FFE70398212189
:103990000422425401A801210170FFE7DCE7FFE7A0
:1039A00001A8007804B080BDE903000080B582B0B2
:1039B000019068460021017001980068C16880226A
:1039C0009143C160019800688068800600280FD488
:1039D000FFE70198FEF7E4FD002808D0FFE7019813
:1039E000212104224254684601210170FFE7FFE7CC
:1039F0006846007802B080BD80B5FEF763F980BDEF
:103A00007047000010B582B000900098401E000E74
:103A1000002803D0FFE7012001900FE00098401E2E
:103A2000084908600024E043032100F07DFC0648BB
:103A300004600648072101600194FFE7019802B085
:103A400010BDC04614E000E018E000E010E000E027
:103A500080B5FDF711F980BD81B000900098242158
:103A6000405CC00700280CD0FFE700980068406861
:103A700001214904884300998A6A10430968486013
:103A8000FFE700982421405C800700280CD5FFE761
:103A90000098006840680121090488430099CA6AB7
:103AA000104309684860FFE700982421405C400704
:103AB00000280CD5FFE700980068406801218904C0
:103AC000884300990A6B104309684860FFE7009833
:103AD0002421405C000700280CD5FFE7009800680F
:103AE00040680121C903884300994A6B1043096863
:103AF0004860FFE700982421405CC00600280CD5F0
:103B0000FFE7009800688068012109038843009955
:103B10008A6B104309688860FFE700982421405CA5
:103B2000800600280CD5FFE7009800688068012116
:103B3000490388430099CA6B104309688860FFE70E
:103B400000982421405C400600281DD5FFE700981E
:103B500000684068012109058843009A136C1843E6
:103B6000126850600098006C88420CD1FFE7009802
:103B70000068406803214905884300994A6C104356
:103B800009684860FFE7FFE700982421405C0006D1
:103B900000280CD5FFE70098006840680121C9049F
:103BA000884300998A6C104309684860FFE701B0B8
:103BB0007047000080B590B00590059884210022E0
:103BC0004250FCF7B9FF04900598006800680007B0
:103BD00000282FD5FFE70598049A01214905494B94
:103BE00000F010FB002824D0FFE7FFE7EFF3108080
:103BF00009900998039001200F900F9880F3108886
:103C000005980068016880229143016003980E9036
:103C10000E9880F31088FFE705982021C167FFE721
:103C20000598782100224254FFE706A8032101707D
:103C300063E0FFE70598006800684007002847D563
:103C4000FFE70598049A012189052E4B00F0DAFA66
:103C500000283CD0FFE7FFE7EFF3108008900898BA
:103C6000029001200D900D9880F31088059800684F
:103C70000168092252019143016002980C900C984E
:103C800080F31088FFE7FFE7EFF3108007900798B5
:103C9000019001200B900B9981F310880599096818
:103CA0008A6882438A6001980A900A9880F3108893
:103CB000FFE70598802120224250FFE705987821F0
:103CC00000224254FFE706A80321017015E0FFE738
:103CD00005982021C1670598802281500598002110
:103CE000016605984166FFE7059878210022425455
:103CF000FFE706A800210170FFE706A8007810B0D2
:103D000080BDC046FFFFFF0180B582B001900198E1
:103D1000806A009000985A21002242520098522155
:103D200042520098FEF786FC02B080BD8DB0039031
:103D3000FFE7EFF3108006900698029001200C90A8
:103D40000C9880F3108803980068016809225201DA
:103D50009143016002980B900B9880F31088FFE765
:103D6000FFE7EFF3108005900598019001200A907D
:103D70000A9981F31088039909688A6882438A60E6
:103D800001980990099880F31088FFE70398006E66
:103D9000012818D1FFE7FFE7EFF3108004900498A3
:103DA000009001200890089880F31088039800681C
:103DB000016810229143016000980790079880F3F2
:103DC0001088FFE7FFE703988021202242500398E4
:103DD00000210166039881660DB0704780B586B0FA
:103DE0000290FFE7EFF31080039003980190012009
:103DF0000590059880F310880298006801684022B9
:103E00009143016001980490049880F31088FFE7C3
:103E100002982021C16702980021C1660298FEF72E
:103E2000E5FF06B080BD000010B588B0079002A87D
:103E30000021017007980068C649884201D1FFE758
:103E400000E0FFE707988168026911434269114366
:103E5000C06901430691079800680068BE490840A0
:103E60000699084307990968086007980068406840
:103E70000321090388430799CA6810430968486009
:103E800007988069069007980068D849884206D04C
:103E9000FFE70798006A069901430691FFE7079834
:103EA000006880680B210902884306990843079936
:103EB00009688860FFE707980068CD49884227D1E4
:103EC000FFE7CC4800680C2108400C281BD8C046EE
:103ED0007844007940008744061616160E1616160A
:103EE0000A161616120004A8002101700FE004A89B
:103EF000022101700BE004A80421017007E004A86E
:103F00000821017003E004A810210170FFE736E0EA
:103F100007980068B54988422CD1FFE7B54800688A
:103F200003218902084000280FD0FFE70121890200
:103F3000884212D0FFE70121C902884209D0FFE779
:103F40000321890288420CD00FE004A800210170EF
:103F50000FE004A8022101700BE004A80421017005
:103F600007E004A80821017003E004A810210170F3
:103F7000FFE703E004A810210170FFE7FFE7FFE778
:103F8000079800689949884267D1FFE704A800783C
:103F9000082823D87844007940008744041F081F6C
:103FA000171F1F1F1B00FDF70BFA01901CE0924822
:103FB0000068102108400009002803D0FFE790485E
:103FC000019002E08D480190FFE70DE0FDF716FA41
:103FD000019009E00120C003019005E0002001905C
:103FE00002A801210170FFE70198002834D0FFE703
:103FF00001980799496803224A43904207D3FFE793
:104000000198079949680903884204D9FFE702A883
:10401000012101701FE00198010E0002079A526809
:104020005408002300195941FCF765F803900398E0
:10403000000A03280AD3FFE70398000D002805D1E2
:10404000FFE7039807990968C86003E002A8012107
:104050000170FFE7FFE7FFE7BFE00798C0690121B4
:10406000C90388425FD1FFE704A80078082827D851
:10407000784400794000874404080C231B23232341
:104080001F00FDF79DF9019020E0FDF7A7F90190D1
:104090001CE059480068102108400009002803D09E
:1040A000FFE75748019002E054480190FFE70DE018
:1040B000FDF7A4F9019009E00120C003019005E09B
:1040C0000020019002A801210170FFE7019800285B
:1040D00028D0FFE701984000079949684A088018EE
:1040E000FCF712FA03900398102816D3FFE703A8F1
:1040F0004088002811D1FFE703980F21884305A9C4
:10410000088003980E2210404008059A02430A8056
:10411000088807990968C86003E002A801210170B6
:10412000FFE7FFE758E004A8007808282DD8C0462C
:104130007844007940008744040811282028282862
:104140002400FDF73DF9019025E0FDF747F90190C6
:1041500021E0C04600480040F369FFEF26480068B0
:10416000102108400009002803D0FFE724480190EF
:1041700002E022480190FFE70DE0FDF73FF90190D2
:1041800009E00120C003019005E00020019002A891
:1041900001210170FFE7019800281CD0FFE701987A
:1041A000079949684A088018FCF7AEF9039003980C
:1041B00010280BD3FFE703A84088002806D1FFE7AB
:1041C00003A8008807990968C86003E002A80121D4
:1041D0000170FFE7FFE7FFE7FFE70798002181662F
:1041E0000798C16602A8007808B010BD00480040DA
:1041F000004400404C100240001002400024F40033
:1042000000093D0010B586B00490039102A800217A
:10421000017001920093FFE704980068C069039958
:104220000840401A4142484102A9097888425CD1BD
:10423000FFE70098401C002856D0FFE7FCF77CFC05
:104240000199401A0099884204D8FFE70098002895
:1042500004D1FFE705A8032101704AE00498006833
:104260000068400700283ED5FFE704980068C06951
:1042700008210840C008012814D1FFE7049800680D
:10428000082404620498FFF751FD049884214450E7
:10429000FFE70498782100224254FFE705A8012196
:1042A000017026E004980068C0690121C902084035
:1042B000C00A012816D1FFE7049800680121C9024D
:1042C00001620498FFF732FD0498842120224250B5
:1042D000FFE70498782100224254FFE705A8032154
:1042E000017006E0FFE7FFE796E705A800210170EF
:1042F000FFE705A8007806B010BD000081B0694650
:10430000087000200856002809D4FFE768460078A6
:104310001F2108400121814002480160FFE701B0F0
:104320007047C04600E100E070B582B001AA10708D
:10433000009100201056002816D4FFE7002301AC9E
:10434000E2560320C043024017495258E3569C07E7
:10435000E40EFF25A540AA43009DAD01EDB2A540A6
:104360002A4303405A501AE001AC23780F2003403F
:10437000083B0321C9430B400A4A9B580025645758
:10438000A507ED0EFF26AE40B343009EB601F6B280
:10439000AE4033430440083C0C40A350FFE702B05A
:1043A00070BDC0461CED00E000E400E080B5FCF705
:1043B00093FB80BD80B582B000F06AF900F0FAFA94
:1043C00000F0CAF9FDF71AF801900199064800F0CB
:1043D000FBFA00F01BFBFFE7044801210022FCF779
:1043E00094FBFFE702B080BD315400080004005088
:1043F000F0B595B000241494FCF746FC00F0F4F8F6
:10440000FFF7D8FF00F02CF900F008F9139412948C
:10441000119410940F940E94FFE7FFF7CBFF0FACAD
:10442000204600F0CFF80EAD284600F0B7F8E97846
:104430006A78AB7820786678A7782D78039502970C
:1044400001960090184800F0BFFA04AD28212846D4
:10445000FCF72BF9012000020D900E9820216854E2
:1044600000270B97114809900F2000060A90EF7063
:104470000F98287060786870A0780A303C26314622
:10448000FCF742F8A970A0780A303146FCF73CF8F6
:10449000074800F099FA05972846FDF7D1FD00F08E
:1044A0005BF9FCF77BFCB8E70754000800808080CC
:1044B0003E540008F0B585B004AE307003A801701A
:1044C00002AD2A7001AF00243C70204600F0D7FAFC
:1044D000307800F0BFFA00F04AF83870012000F0A0
:1044E000CEFA204600F0CBFA2878002812D1FFE758
:1044F000FFE703980199014301A80170FFE704A8B1
:1045000000782021084300F0A5FA01A8007800F007
:10451000A1FA25E002A80078012812D1FFE7FFE701
:1045200003980199814301A80170FFE704A800786E
:104530002021084300F08EFA01A8007800F08AFAE2
:104540000DE002A80078022808D1FFE7FFE70398F2
:104550000199014001A80170FFE7FFE7FFE7FFE7CE
:10456000012000F08CFA01A8007805B0F0BD80B5FC
:1045700082B000F02DF901A90870087802B080BD62
:1045800080B582B004490191694608800198098884
:1045900000F04EF902B080BD0800002080B582B066
:1045A0000190FDF7EBFB2D48C178019AD17041785D
:1045B000019A51708178019A917000780199087080
:1045C00002B080BD80B582B00190FDF717FC2F4886
:1045D0000178019A11704178019A5170807801999F
:1045E000887002B080BDC04680B50A480A490160A3
:1045F000002141607F22826009225201C260016174
:104600008161C161FDF74EFC002801D0FFE7FFE7A3
:1046100080BDC046040100200028004080B584B061
:10462000FD20C00003A9088002A80421017001A890
:104630000D21017068460621017003980649401853
:104640000649C870029848700198887000980870F0
:10465000FDF760FE04B080BD30F8FFFF2B000020A6
:1046600080B584B003A80A21017002A8142101704A
:1046700001A800210170039804490870029848704D
:1046800001988870FDF7DEFE04B080BDB001002007
:10469000F0B599B00CAC34212046FCF706F80025A3
:1046A0000B950A9509950895079506950595049526
:1046B00003950295019525480168254F394001264B
:1046C000F20289180160FCF761FB22480168394059
:1046D00001600A200C900E950F96102010901196F4
:1046E000022015901695B0041790B005189020463A
:1046F000FCF70EFF002801D0FFE7FFE70F2007902F
:1047000003200890002009900A900B9007A8FCF75E
:10471000D3FC002801D0FFE7FFE72C200190002008
:1047200004900120010305914004029001A8FCF7C8
:104730008BFB002801D0FFE7FFE70D48016801224D
:1047400012071143016019B0F0BDC046007000406F
:10475000FFE7FFFF5010024080B5054801680122C5
:10476000120711430160FCF709FBFCF7FFFA80BD5B
:104770003810024080B582B001900D480D490160AB
:1047800001994160002181610C2242610122D20223
:104790000262C1610161C16081604162FEF7DCF9C2
:1047A000002803D0FFE700F02DF9FFE702B080BD3D
:1047B000280100200048004080B582B09049019156
:1047C0006946088001980988FEF760FA02B080BD4A
:1047D00080B582B001A80021017068460170FFE732
:1047E0006846007807281FDCFFE7FFF7DFFD002899
:1047F00009D0FFE7684600788021C140019808434E
:1048000001A9087000E0FFE7C046C046012000F0A3
:104810004BF9C046C046002000F046F9FFE700987B
:10482000401C69460870DBE701A8007802B080BD33
:1048300080B584B00390029100200190FFE70198B9
:10484000029988420AD2FFE7FFF7C2FF0399019A53
:104850008854FFE70198401C0190F0E7002000F029
:1048600023F904B080BD10B582B001A90870684674
:1048700000210170FFE768460078072819DCFFE790
:1048800001A80078694609788022CA40104000F0EB
:10489000FFF8C046C046012000F006F9C046C046F9
:1048A000002000F001F9FFE70098401C69460870FD
:1048B000E1E70024204600F0EBF8204600F0F4F891
:1048C00002B010BD80B582B001A90870087800F070
:1048D000CAF802B080BD0000F0B581B007202021E9
:1048E0000222FFF7E7FD002806D0FFE7272020215E
:1048F0000022FFF7DFFD59E0072040210222FFF7E9
:10490000D9FD002842D0FFE727204021002422467D
:10491000FFF7D0FD204600F0B2F8602000F09AF8D2
:10492000FFF725FE224E2027F0550125284600F0EE
:10493000A6F8204600F0A3F8072000F08BF8FFF758
:1049400016FE21217054705C0E22104070542846CF
:1049500000F095F8204600F092F8092000F07AF86F
:10496000FFF705FE22217054705C284070542846E1
:1049700000F085F8204600F082F8612000F06AF827
:10498000F05DFFF7FDFD284600F079F807201021C3
:104990000222FFF78FFD002806D0FFE72720102115
:1049A0000022FFF787FDFFE7FFE7FFE701B0F0BD5B
:1049B0000800002080B582B0E120400201900198FB
:1049C000FFF7D8FE02B080BD83B010B583B0079367
:1049D00006920591029005A801900299019A084C4F
:1049E000204600F06DF82046FBF77EFB80B2FFF713
:1049F000E3FE03B010BC01BC03B086467047C0465E
:104A00002F000020FFE700BFFDE7000080B586B063
:104A1000FFE70E4801680222114301600068104060
:104A200005900598FFE70020049003900290019004
:104A3000009001210191029003900091049004489C
:104A40006946FBF7E7FE06B080BDC0462C10024069
:104A50000004005080B582B001A908700878FFF703
:104A600002FF02B080BD80B582B001A908700A784B
:104A7000052000071021FCF748F802B080BD80B582
:104A800082B001A908700878FFF71CFF02B080BD52
:104A900080B582B001A908700A780520000780213E
:104AA000FCF733F802B080BD80B582B001A9087070
:104AB0000A78052000072021FCF727F802B080BD06
:104AC00037B514460846064B6A46214600F0EAF818
:104AD00004466946002000F081FC20463EBD0000EF
:104AE000DD5300082021020C01D010211046020ADB
:104AF00001D010460839020901D01046091F82086A
:104B000001D01046891E420801D0881E7047081A3D
:104B1000704702E008C8121F08C1002AFAD1704786
:104B20007047002001E001C1121F002AFBD170472D
:104B3000F0B51FB486B00998089A030D002102430E
:104B400014D05148514A181850430514119801289F
:104B500010981AD0281A401C00264D4F4D49009637
:104B600001910490002812DA444211E011980124C6
:104B700049A3012801D11098C1430698119A846075
:104B80000360C26041600BB0F0BD4042E4E7044600
:104B9000210500203F4A001C51410391029012E080
:104BA000E00707D032463B4601990098FBF786FBA9
:104BB0000191009032463B4610461946FBF77EFBBA
:104BC00006460F466410002CEAD10498039B002887
:104BD000029A0999089806DAFBF770FB019B009A84
:104BE000FBF76CFB05E0FBF7D1FB019B009AFBF7A1
:104BF000CDFB04460E460022284BFBF75FFC03D892
:104C00000020C043014607E00022254B20463146E4
:104C1000FBF7A2FAFBF732FC102409E0002C0ADBB8
:104C20000A220023FBF767FA079B30321A55641EED
:104C300002460A43F2D11122641C079B121B1C1965
:104C4000119B012B03D0012308430ED10AE0084336
:104C500004D0112010900020119077E71098151AB9
:104C60006D1E0BE01098824202DD00236D1C03E0F4
:104C7000824201DA00236D1E002BEED006981199B6
:104C80008260C16030C07EE701FCFFFF104D000074
:104C9000000014400000F03F300000000000F0432E
:104CA0000000E03FFFB597B00646002518E2252832
:104CB00077D100242746FD49049400E00443761C84
:104CC00032780120203A90400842F7D130782A28E3
:104CD0000ED00222307801463039092916D80499BD
:104CE0000A235943303940181443761C0490F1E7E5
:104CF000189802C804911890002904DA0120400392
:104D000004434842049002200443761C30782E2845
:104D100014D1042004437078761C2A2809D11898ED
:104D2000761C80C8189009E00A214F43303FC7190C
:104D3000761C3078014630390929F5D930786C284D
:104D400010D006DC4C281AD068280ED06A2817D15B
:104D500004E0742813D07A2812D110E00120400515
:104D600004430CE00121090501E0032109050C437E
:104D70007178814203D1012000052418761C761C2D
:104D80003078119066280BD013DC58287DD009DCD0
:104D900000287BD04528F6D04628F4D047281AD1E1
:104DA000A5E118E0632835D0642870D0652812D1B9
:104DB0009DE170286CD008DC6728F1D069287BD091
:104DC0006E280DD06F2806D1BAE073282ED0752832
:104DD00071D0782859D01A9A199990476D1C7EE1A4
:104DE0006002400F022809D003280DD0042818982B
:104DF00001680DD00D60001D189070E11898EA1739
:104E000001680D604A60F6E7189801680D80F2E7C6
:104E10000D70F0E718986A4601781172001D18901D
:104E20000020507202A80090012005E0189802C8E6
:104E3000189000200091C04361070DD5002101E0CA
:104E40000199491C0191B94212DA8142F8DB009ABA
:104E5000515C0029F4D10BE0002101E00199491CCB
:104E600001918142FADB019A0099895C0029F5D110
:104E7000019904981A9B471A21463846199A00F05E
:104E800097FA0199401945180BE04FE02CE113E027
:104E90004EE0009800990078491C00911A9A1999DF
:104EA00090470198401E0190401CF2D1214638469F
:104EB0001A9B199A10E137E00A2000210090019115
:104EC0006002410F022907D0189A01CA1892C2172E
:104ED0009446032908D00AE01898C01DC108C900EB
:104EE00005C91891944607E000B2C21794460429F8
:104EF00002D140B2C1178C4600226146944506DAC1
:104F00000A460021404291418C462D2102E02105B4
:104F100004D52B216A461173012103E0E10701D07A
:104F20002021F7E7029155E00A200AE0102008E06E
:104F3000102000900021042004430191082703E081
:104F400008200021019100906002410F022907D042
:104F5000189A01CA189200229446032908D008E042
:104F60001898C01DC108C90005C91891944603E0EE
:104F700080B2042900D1C0B200210291210729D5B5
:104F80001199702906D0009A1021019B4A401A43BA
:104F900005D00EE040216A461173012108E0614608
:104FA000014306D030216A461173119951730221D1
:104FB0000291009A0821019B4A401A430AD1614696
:104FC000014301D1610705D530216A4611730121E2
:104FD0007F1E02911199582904D035A10E910DA977
:104FE0000D910DE037A1F9E76146019B009AFBF7AF
:104FF00082F80E9B8C469B5C0D9A521E0D9213708C
:1050000061460143F0D10D9805A9081A203001909E
:10501000600703D501200004844300E001270198C4
:10502000874201DD381A00E0002001990090411804
:10503000029809180498401A0490E00306D4214607
:105040001A9B199A049800F0B3F94519002706E055
:1050500003A81A9AC05D199990476D1C7F1C02988D
:105060008742F5DBE0030CD521461A9B199A049878
:1050700000F09EF9451904E01A9A302019999047DA
:105080006D1C0099481E00900029F5DC08E00D9881
:105090000D990078491C0D911A9A199990476D1C29
:1050A0000199481E01900029F1DC63E10928010003
:1050B000303132333435363738396162636465668E
:1050C0000000000030313233343536373839414250
:1050D000434445460000000000F05AF94519761C8B
:1050E0003078002800D0E2E528461BB0F0BD60070C
:1050F00000D406271898C01DC108C90048680A686E
:105100000831C30FDB071891190001D09CA108E0FA
:10511000210501D59BA104E0E10701D09AA100E09F
:105120009AA1430011985B08109165280CD006DC09
:10513000452809D046281DD0472841D141E066289E
:1051400018D067283CD13CE00021112F01DB112051
:1051500000E0781C0191009008A911A8FFF7E8FC75
:10516000139905910021119A15927F1C12980197AD
:10517000009150E00120C00703900120019008A990
:10518000009711A8FFF7D4FC139A149905920022F6
:10519000119B009212981593059A0192002901D053
:1051A000104602E0791C40180190381A01D5019888
:1051B00004E04042401E0090781C0190C01B029009
:1051C00043E0012F00DA01270021112F01DD11201A
:1051D00000E038460191009008A911A8FFF7A8FC4B
:1051E00013990591119A0021129815920091019737
:1051F00021070CD40599B94201DB019900E0019126
:10520000012904DD159A491E515C302906D0B842A7
:1052100001DA011D05DA0121029115E00199491E0B
:10522000EDE7002805DC0099411800910199091A61
:1052300003E0019A411C914200DD01910099401A5E
:10524000401C02900120C0070390200706D4029959
:105250000198814202DB0020C04302900020694691
:10526000C87707AF012103980337C907884224D0C4
:10527000022011902B201290039800280CDA404253
:1052800003902D20129007E00A210398FBF73CF9C8
:1052900030317F1E039039701199481E11900029FA
:1052A000F2DC03980028EFD1791E1298087030784C
:1052B000202108404530BF1E387006A8C01BC01D05
:1052C000039010980078002800D00120019941181F
:1052D0000298C0170918039809180498401A401E2C
:1052E0000490E00306D421461A9B199A049800F012
:1052F0005FF8451910980078002803D01A9A199978
:1053000090476D1CE00324D521461A9B199A0498F6
:1053100000F04EF845191CE00098002807DB0099C2
:105320000598884203DD1598405C199901E01999A8
:1053300030201A9A904700986D1C401C00900298EB
:10534000401E0290002804D11A9A2E2019999047E5
:105350006D1C0199481E01900029DDDC05E03878BC
:105360001A9A7F1C199990476D1C0399481E039047
:105370000029F4DC21461A9B199A0498ACE6000037
:105380002D0000002B0000002000000000000000A5
:10539000F8B5044600251E461746880404D405E0E7
:1053A00039462020B0476D1C641EF9D52846F8BD4B
:1053B000FFB50446002581B01E46C80301D530273D
:1053C00000E02027880404D505E038460399B0475B
:1053D0006D1C641EF9D5284605B0F0BD0A68531C43
:1053E0000B6010707047030406080C101820300082
:1053F0000000000000000001020304060708090085
:10540000000000010203043230253032642E2530C2
:1054100032642E253032642020253032643A253023
:1054200032643A25303264207765656B3A25640A28
:1054300000467265713A20256420487A0A00736537
:1054400074207365636F6E64733A25640000000016
:10545000705400080000002008000000124B0008F3
:105460007854000808000020C0050000224B000806
:08547000000020000400000010
:04000005080000C12E
:00000001FF
