:020000040800F2
:1000000078060020D50000081F4D00089D34000828
:1000100000000000000000000000000000000000E0
:10002000000000000000000000000000254D000856
:100030000000000000000000234D0008754D00087E
:10004000E3000008E3000008E3000008E300000804
:10005000E3000008E3000008E3000008690A000864
:1000600000000000E3000008E3000008E3000008CF
:10007000E3000008E300000800000000E3000008BF
:100080000000000000000000000000000000000070
:10009000E300000800000000E3000008A1340008AD
:1000A00000000000E3000008000000000000000065
:1000B000E3000008174D00080000000000000000E9
:1000C0000348854600F088FA00480047D55B0008E1
:1000D0007806002003480047FEE7FEE7FEE7FEE75C
:1000E000FEE7FEE7C1000008421C0178401C002921
:1000F000FBD1801A7047F0B51FB40646002082B0CD
:1001000005464024019100901BE0019922460F46CC
:10011000304600F0A2FA049A059B801A994110D348
:1001200010461946224600F088FA361A8F41019788
:10013000224601200021009F00F07FFA38184D412F
:1001400000902046641E0028DFDC019B00982946B1
:10015000324607B0F0BD024670B54A40D30FDB0708
:1001600040002DD04A002AD0010E140E00021202C7
:100170000919400A520A8418E50104465443000A4A
:10018000120A2E045043A4194219200CC543AA1880
:10019000120C0125AD03521C521912047F3924049C
:1001A00000D0521C104301D44000491EC2B20C06BC
:1001B000C0092018401C4008802A02D003E000201B
:1001C00070BD40084000002900DA0020184370BDCF
:1001D00070B502464A40D50F40004A00ED0740087E
:1001E0005208002814D0002A12D0C40DD30D4102A9
:1001F0000120C0055202490A520AE41A09181218CD
:100200007D34914201D3641C00E04900002C01DAE6
:10021000002070BD0023914201D3891A0343400896
:1002200049000028F7D100290AD0914202D10121CA
:10023000C90705E0914201D2012101E00121C94332
:10024000E005C018401900F02CFA70BDF0B5074663
:100250000846584087B0C00F049048000E46590029
:1002600040084908BC1A884105D2384631461E4626
:1002700017460B4602465800400810434CD0300D3C
:10028000039040055900400D490D0590401A029019
:10029000402872DA18030121000B09050843019078
:1002A00004980092002805D001995242002088410C
:1002B00000920190029840210A1A0199009800F0DA
:1002C000BCF905460C466B4607CB00F0D7F9C019C0
:1002D0007141039A0E0D0023D71756401A467A40F3
:1002E000164344D0049A002A2DD0029A012A039A78
:1002F00015DC1205C01A914101263605001C71411A
:10030000D20F059ED2070093019202962A462346F9
:1003100000F015FA07B0F0BD38463146FAE7160589
:10032000224A0F46B218C01AB74101210905001C24
:100330004F4100187F41114618187941E20F1043D0
:100340006D19644113E0E2076D0815436408C207A4
:100350001443039A01261205C01A91413605001C68
:100360007141CE07400830434908C01851412A4620
:10037000234600F0D7F9CDE7FFE7049801224000BB
:10038000C117121A00238B4104983146C417381A3A
:10039000A141EEE730B40124E407634030BC55E7E7
:1003A00030B40124E407614030BC4FE70000E0FFB7
:1003B000F0B51FB488B00B990998002448400999FA
:1003C000C00F490049080991C0070B9900904900E6
:1003D00049080B9109990898A64608431CD00B9927
:1003E0000A98084318D0099801244000420D48009B
:1003F000410D099824050003000B204309900B9838
:100400000003000B20430B9050181C494018002299
:1004100001901446104605E0002001460DB0F0BDE5
:10042000032801DA034600E003239C46C11A0AAE02
:100430000AE05F0008ADED5B4F00F75B7D430027EE
:10044000AA187C41491C5B1E6145F2DD410004ABEA
:100450005A522104120C0A43240C401C0828DFDBEA
:10046000019802900099704601910090059B049AB2
:100470000799069800F063F9D0E700000DFCFFFF34
:10048000F0B50C465C4085B0E40FE40703944C00E3
:100490000026640859009446490802460296224301
:1004A00021D062460A431ED06200570D4A000E0357
:1004B0002303550D012402462C492405781B1B0BF0
:1004C000360B401823432643614600901C46501AC1
:1004D000B44103D30098401C009002E092180098A9
:1004E0005B41002803DA0020014605B0F0BD002082
:1004F000012109050746864611E064461D46141B86
:10050000B54106D36546521BB341744607430C43BD
:10051000A646CD0740084908284392185B41054686
:100520000D43EAD11046184313D060461946504097
:100530007140084306D06046101AB34106D201222A
:10054000002306E000220123DB0702E00122D24360
:100550005310009874460105381C6141029C039DAC
:100560000019694100F0DEF8BFE70000FD0300005C
:100570004A0009030123090B1B0519430A4B10B557
:10058000520D9A4202DA0020014610BD064B343368
:100590009A4203DC9A1A00F060F810BD034BD2189F
:1005A00000F04BF810BD0000FF030000CDFBFFFF83
:1005B00010B5002904DB0124E40740428C412146A8
:1005C000002B04DB1C460123DB075242A341994266
:1005D00000D1904210BD0000064C0125064E05E0FA
:1005E000E36807CC2B430C3C98471034B442F7D354
:1005F000FFF76AFD94780008B478000870B50446E7
:10060000002903D000202022012310E0002801D07F
:100610000020C043C046C0460DE02546D5408D426F
:1006200005D30D469540641B1D469540401915465F
:10063000521E002DF1DC214670BD10B5202A04DBCE
:100640000146203A9140002010BD914020239C1A81
:100650000346E3401943904010BD10B5202A04DB47
:100660000846203AD040002110BD0B46D340D04070
:100670002024A21A91400843194610BD10B5202A23
:1006800006DBCB170846203A1041C1170B4306E0A2
:100690000B461341D0402024A21A9140084319462A
:1006A00010BD002904DA401C490001D14008400077
:1006B000704770B40024050C05D11024000402D149
:1006C000002921D01124050E01D100020834050FA4
:1006D00001D10001241D850F01D18000A41C002838
:1006E00001DB4000641C002908D020252E1B0D468C
:1006F000F540A14000D001212943084301061B1BFE
:10070000000ADB1D02D5002070BC7047DB051818FD
:1007100080180029F8DA401C4900F5D170BC400867
:100720004000704710B5002B08DA0024401C6141DE
:1007300092185B411A4301D14008400010BDF0B54A
:100740001FB482B005460C0003D0084606F064FBD7
:1007500002E006F061FB2030024600902146284668
:10076000FFF76BFF049B059A04460F46184311439D
:10077000084314D0184610431BD0009840210A1A91
:1007800018460599FFF769FF05460E46009A059938
:100790000498FFF752FF084305D0012004E02046EB
:1007A000394607B0F0BD0020C11705430E432C4366
:1007B000374300990E986305401A7905E40A002230
:1007C0000C43FD0A0A3002D500200146E9E7010585
:1007D000101969410C9C0D9D00196941FFF7A2FF9A
:1007E000DFE7F8B500242546002904DA0E46012487
:1007F00000214042B141002B04DA1E460023524240
:100800000125B341FFF777FC8C4617461E46AC42E4
:1008100003D0002540428D41AC46002C02D000267A
:1008200057429E4161463A46334601B0F0BD30B56D
:10083000434351435C18010C130C0D465D432C19C6
:1008400080B292B20546554351430A0C09044D1932
:1008500062415843010C00044019514130BD034628
:100860000B439B0703D009E008C9121F08C0042AE4
:10087000FAD203E00B780370401C491C521EF9D2D7
:100880007047D2B201E00270401C491EFBD2704793
:100890000022F6E710B513460A4604461946FFF74C
:1008A000F0FF204610BD10B5002296231146FFF739
:1008B00000FF10BD0EB5C217C10F5040CA07401847
:1008C0000021054B0293019200910A460B46FFF767
:1008D00036FF03B000BD0000330400000EB505492B
:1008E0000291002100910A460B460191FFF727FF74
:1008F00003B000BD330400003EB5CA17CB0F00247F
:1009000050405140C0186141DA07054B02930192F3
:10091000009422462346FFF712FF03B030BD0000CB
:1009200033040000CB0FDB07490010B5490802462D
:100930000A4307D00A0D07240903E401090B121B1F
:10094000002A01DC002010BDC900440F0C43C10087
:10095000E018D2058018FFF7A4FE10BD10B582B0D4
:100960000190019C084800680849FFF747FE604372
:100970000090FFE70098002804D0FFE70098401E91
:100980000090F7E702B010BD0000002040420F00C9
:1009900080B584B0029000200190029909688968AE
:1009A00003221140012904D1FFE702980068006882
:1009B000FFE7C007002845D1FFE70298006880687C
:1009C000244908420DD0FFE70298416D10221143DF
:1009D00041650298816D01221143816503A802706F
:1009E00034E0029801688A68012002438A60FFF7B8
:1009F000B5FF00F079FE0190FFE7029800680068FB
:100A0000C00700281DD1FFE700F06EFE0199401AD3
:100A10000B2815D3FFE7029800680068C00700287C
:100A20000DD1FFE70298416D1022114341650298F4
:100A3000816D01221143816503A8027006E0FFE782
:100A4000DBE7FFE703A800210170FFE703A80078B8
:100A500004B080BD1700008080B582B0019001987D
:100A600000F05CFC02B080BD80B500F081FC80BD70
:100A700080B586B0994804900020039002A90870C0
:100A800001900090FFE704985021405C012804D1B8
:100A9000FFE705A8022101707FE0049850210122A0
:100AA0004254FFE7FFE70498006881680320014093
:100AB0000020012904D1FFE7049800680068FFE7DF
:100AC000C007002856D1FFE70498416D022001437A
:100AD000012002029143049A516504990968C9688A
:100AE00003221140009104990968CB689343CB60BD
:100AF000049909688A68C00702438A6000F0F4FD1F
:100B00000190FFE7049800688068C00F012822D197
:100B1000FFE700F0E9FD0199401A0B281AD3FFE71F
:100B2000049800688068C00F012812D1FFE704987C
:100B3000406D102108430221884304994865FFE76E
:100B40000498502100224254FFE705A801210170BA
:100B500023E0FFE7D6E7009804990968CA680243D2
:100B6000CA600498406D012108430221884304991A
:100B7000486508E00498416D20221143416502A8B0
:100B800001210170FFE7FFE7049850210022425441
:100B9000FFE7029805A90870FFE706B080BDC046D0
:100BA00080B584B0F548029044480190FFE7029870
:100BB0005021405C012804D1FFE703A80221017005
:100BC00079E00298502101224254FFE7FFE70298A2
:100BD0000068806804210840800800280FD0FFE7E3
:100BE0000298416D202211434165FFE70298502190
:100BF00000224254FFE703A8012101705BE0019845
:100C000040682F49884227D0FFE7019800682E49A5
:100C10000840029909688A6A02438A6201988078CA
:100C2000400700280AD5FFE7D54801680122D20510
:100C3000114301600A20FFF791FEFFE701988078D9
:100C40008007002807D5FFE7CD48016801229205FB
:100C500011430160FFE724E001980068C04319498F
:100C60000843029909688A6A02408A62019880787A
:100C70004007002807D5FFE7C14801680122D205D7
:100C800091430160FFE7019880788007002807D52D
:100C9000FFE7BB4801680122920591430160FFE72D
:100CA000FFE7FFE70298502100224254FFE703A824
:100CB00000210170FFE704B080BDC046640200203F
:100CC000011000000000F8FFFFFF070081B0AB48F3
:100CD000009000980068006C01B07047F800002098
:100CE00080B582B0A54800900098002804D1FFE7A5
:100CF00001A8012101703FE10098406D00280AD150
:100D0000FFE70098002181650098502281540098E7
:100D100000F03AF9FFE70098406D102108401028D4
:100D200009D0FFE700980068806804210840800827
:100D300000280FD0FFE70098416D10221143416554
:100D4000FFE70098502100224254FFE701A801214B
:100D5000017011E10098406D022108430121090250
:100D60008843009948650098006881680320014025
:100D70000020012904D1FFE7009800680068FFE720
:100D8000C007002845D1FFE7FFE70098406803212E
:100D9000890788420ED0FFE7009840680121890743
:100DA000884207D0FFE7009840680121C9078842C0
:100DB0000ED1FFE700980068016903229207914372
:100DC000016100984168006802690A43026112E00B
:100DD0000098006801690322920791430161684805
:100DE00001680F22920491430160009949680268EA
:100DF0000A430260FFE7FFE700980068C168182215
:100E00009143C160009881680068C2680A43C2606B
:100E1000FFE75B4801680122520691430160009997
:100E2000496B490602680A430260009800688068BE
:100E3000C000002808D4FFE70098006881680122FC
:100E4000120711438160FFE700980068C1684D4AAE
:100E50001140C1600099C8680A69921E53425A4104
:100E60009200104320228A5C520310432C228A5C99
:100E7000520010430A6B10438A6992031043CA69F7
:100E8000D20310430968CA680243CA600098406AE6
:100E9000FF21C231884209D0FFE70098416A826A87
:100EA00011430068C2680A43C260FFE7009821212D
:100EB000405C01281AD1FFE700982021405C0028FF
:100EC00008D1FFE700980068C168012212041143AD
:100ED000C1600AE00098416D2022114341650098ED
:100EE000816D012211438165FFE7FFE70098C06B28
:100EF000012818D1FFE7009800680169FF229200DD
:100F0000914301610098016C426C1143826C114362
:100F1000006802690A4302610098006801690122C1
:100F2000114301610EE0009800680069C0070028C5
:100F300007D0FFE700980068016901229143016131
:100F4000FFE7FFE70098006841690722914341618C
:100F50000098816B006842690A4342610098002151
:100F600081650098406D0122104302229043009A4F
:100F7000506501A80170FFE702B080BDF8000020B5
:100F8000082701401902FEFF70B588B00790079846
:100F90000068184988422AD1FFE7FFE71648016830
:100FA0000122114301600068104006900698FFE797
:100FB000002005900490039002900190032102917B
:100FC00003900126019605900520040701AD2046F7
:100FD000294600F0E5F9022001902046294600F05C
:100FE000DFF906480168720211430160FFE708B0AB
:100FF00070BDC046002401402C1002403410024055
:1010000080B586B0834804900A20039000200290A7
:10101000019004984069082803D1FFE70820019057
:1010200019E004980068C068C00700280FD0FFE7E7
:101030000498416D202211434165FFE70498502137
:1010400000224254FFE705A80121017086E00C2030
:101050000190FFE7FFE700F047FB0290FFE70498ED
:1010600000680068019908422AD1FFE70398401CF4
:10107000002824D0FFE70398002808D0FFE700F0FD
:1010800033FB0299401A0399884217D9FFE7049865
:1010900000680068019908420FD1FFE70498416D8C
:1010A000042211434165FFE7049850210022425475
:1010B000FFE705A80321017050E0FFE7FFE7CEE757
:1010C0000498416D01225202114341650498006861
:1010D000C0680005800F002832D1FFE70498202166
:1010E000405C00282CD1FFE70498006800680007E6
:1010F000002824D5FFE70498006880680421084090
:10110000800800280FD1FFE70498006841680C228E
:10111000914341600498406D0121084309028843CE
:10112000049948650AE00498416D20221143416505
:101130000498816D012211438165FFE7FFE7FFE716
:1011400004988069002805D1FFE7049800680C2105
:101150000160FFE705A800210170FFE706B080BD30
:1011600080B584B02B48029001A80021017002983C
:101170000068806804210840800800283FD1FFE70C
:10118000FFE702985021405C012804D1FFE703A843
:10119000022101703BE00298502101224254FFE7F6
:1011A000FFE70298C069012806D0FFE70298FFF721
:1011B000EFFB01A90870FFE701A8007800281DD106
:1011C000FFE70298406D01210902084312490840D7
:1011D00002994865029800218165FFE70298502135
:1011E00000224254FFE7029800681C210160029827
:1011F00000688168042211438160FFE703E001A8D1
:1012000002210170FFE7019803A90870FFE704B00D
:1012100080BDC046F8000020FEF1FFFF83B00190C2
:1012200068460021017001982521405C02280DD0FC
:10123000FFE701980421C163FFE701982421002200
:101240004254FFE702A80121017020E001980068E4
:1012500001680E2291430160019800680168012233
:10126000914301600198416C1C23194013468B4047
:10127000006C4360019825214254FFE70198242126
:1012800000224254FFE7009802A90870FFE703B06C
:10129000704780B582B001906846002101700198C6
:1012A0002521405C022807D0FFE701980421C16393
:1012B00068460121017026E00198006801680E224D
:1012C0009143016001980068016801229143016027
:1012D0000198416C1C23194013468B40006C4360FD
:1012E000019825214254FFE701982421002242540D
:1012F000FFE70198806B002804D0FFE70198816B1D
:101300008847FFE7FFE76846007802B080BD81B0FC
:10131000009000982521405C01B0704780B584B0F2
:10132000039000F0E1F90290039801900198401CAD
:10133000002804D0FFE70198401C0190FFE7FFE779
:1013400000F0D2F90299401A0199884201D2FFE7D0
:10135000F6E704B080BD80B582B001A90880088896
:10136000802803D1FFE705F019FBFFE702B080BD3D
:1013700080B582B001A880210180084909680088F1
:10138000014208D0FFE701A80188044A11600088E3
:10139000FFF7E1FFFFE702B080BDC0461404014043
:1013A00085B0049003910020029001900090FFE727
:1013B000039800680299C840002800D13FE10398D3
:1013C0000068029901228A4010400190019800288B
:1013D00000D130E10398406803210840012807D07C
:1013E000FFE7039840680321084002282CD1FFE75B
:1013F0000498806800900298400003218140009882
:10140000884300900398C068029949008840009979
:101410000143009100980499886004984068009006
:101420000298012181400098884300900398406809
:101430001021084000090299884000990143009159
:10144000009804994860FFE703984068032108402A
:10145000032816D0FFE70498C06800900298400067
:101460000321814000988843009003988068029986
:101470004900884000990143009100980499C86090
:10148000FFE70398406803210840022820D1FFE7C6
:1014900004980299C90889004018006A00900298CF
:1014A0004007C00E0F2181400098884300900398A8
:1014B000006902994907C90E8840009901430091CB
:1014C00000980499029AD208920089180862FFE7EE
:1014D0000498006800900298400003210A46824068
:1014E0000098904300900398406808400299490092
:1014F000884000990143009100980499086003987E
:1015000080798007002800D194E04E4801680122CC
:10151000114301600298032188434B4940580090D1
:1015200002988007000F0F218140009888430090A7
:10153000049805210907884202D1FFE7002017E03F
:1015400004985D49884202D1FFE701200FE004982A
:101550003E49884202D1FFE7022007E0049A3C4B53
:10156000052006219A4200D00846FFE7FFE7FFE783
:1015700002998907090F884000990143009100985A
:10158000029903229143304A885032480068009003
:10159000019800998143009103988079C006002842
:1015A00005D5FFE70198009901430091FFE70098F6
:1015B00028490860284800680090019800998143F4
:1015C0000091039880798006002805D5FFE70198EF
:1015D000009901430091FFE700981F4908601F48E8
:1015E00000680090019800998143009103988079E8
:1015F0008007002805D5FFE7019800990143009175
:10160000FFE70098154908601548006800900198A8
:1016100000998143009103988079C007002805D084
:10162000FFE70198009901430091FFE700980C49FA
:101630000860FFE7FFE70298401C0290B8E605B09B
:101640007047C046341002400800014000080050B6
:10165000001C0050080401400C0401400404014037
:101660000004014083B0029001A801800299096939
:101670000088014204D0FFE768460121017003E0C1
:10168000684600210170FFE76846007803B07047A4
:1016900083B00948029001A801210180029949699B
:1016A0000091009900880A460240120488431018ED
:1016B0000299886103B070470004005083B0029023
:1016C00001A80180684602700078002805D0FFE775
:1016D00001A800880299886104E001A800880299A5
:1016E0008862FFE703B07047014800687047C04652
:1016F0007402002081B0009001B0704783B0029066
:1017000001A801706846028003B0704780B584B0BC
:10171000D34803900398006880690290039800689A
:101720000068019002A84078C007002810D0FFE7A9
:1017300001A80078C00900280AD0FFE70398416C8F
:10174000012211434164039800681102C161FFE75F
:1017500002A84078042108408008002811D0FFE743
:1017600001A80078C00900280BD0FFE70398416C5E
:101770000822114341640398006801218902C16174
:10178000FFE702A84078022108404008002811D055
:10179000FFE701A80078C00900280BD0FFE70398F5
:1017A000416C0222114341640398006801214902FF
:1017B000C161FFE70398406C0090684600780B21F8
:1017C000084205D0FFE70398009902F075F8FFE79B
:1017D00004B080BD80B584B0ED48039003980068E4
:1017E0008069029003980068006801900398406B3C
:1017F000002806D0FFE70398436B0299019A9847A7
:10180000FFE704B080BDC04681B0009001B07047D2
:1018100080B582B0DE4800900098002804D1FFE730
:1018200001A80121017074E000984121405C00286A
:1018300008D1FFE70098402100224254009800F0B0
:1018400033FAFFE7009841212422425400980068AF
:101850000168012291430160009841680F231B0633
:10186000994300680161009800688168D203914340
:1018700081600098C068012808D1FFE7009881685E
:101880000122D20311430068816007E0009881685B
:1018900021229202114300688160FFE70098C0682E
:1018A000022806D1FFE7009800680121C9024160C3
:1018B000FFE7009800684168184A114341600098AA
:1018C0000168CA680120C3039A43CA6000990A6983
:1018D0004B691A438B691B021A430968CA60009955
:1018E000CA690B6A1A4309680A60009909680A689C
:1018F00002430A600098002141640098412220239D
:1019000083540098016300984222815401A8017019
:10191000FFE701A8007802B080BDC0460080000249
:1019200081B0009001B0704781B0009001B0704765
:1019300081B0009001B0704710B58AB0D24A0892C9
:1019400007AAEC231380069005A801800120400619
:1019500004904448029008984121405C202879D1A5
:10196000FFE7FFE708984021405C012804D1FFE72A
:1019700009A80221017071E0089840210122425417
:10198000FFE7FFE7089841212222425408984221AC
:101990001022425408980021416406980899486230
:1019A00005980899488504980899C8620898B84924
:1019B00041630898408D000A002807D0FFE7089887
:1019C000FF21018501200006039007E00898408D63
:1019D000089908850898C06A0390FFE70898006B8B
:1019E000122812D1FFE704990120AA2906D0FFE7A7
:1019F00004986849401841424841FFE7C007002861
:101A000003D1FFE7002002900CE0089801F05AFD96
:101A10000898408DFF2804D8FFE70898C06A039013
:101A2000FFE7FFE7089807A909882822825C039B43
:101A3000029C009403F01CF9FFE708984021002263
:101A40004254FFE70898022101F0DCFD09A80021BB
:101A5000017003E009A802210170FFE70AB010BD80
:101A6000540100200024008010B58AB086490891F6
:101A700007A9EC220A80069005A801210180002018
:101A800004908448029008984121405C202879D134
:101A9000FFE7FFE708984021405C012804D1FFE7F9
:101AA00009A80221017071E00898402101224254E6
:101AB000FFE7FFE70898412121224254089842217C
:101AC00010224254089800214164069808994862FF
:101AD00005980899488504980899C86208986C493F
:101AE00041630898408D000A002807D0FFE7089856
:101AF000FF21018501200006039007E00898408D32
:101B0000089908850898C06A0390FFE70898006B59
:101B1000112812D1FFE704990120AA2906D0FFE776
:101B200004981C49401841424841FFE7C00700287B
:101B300003D1FFE7002002900CE0089801F0C2FCFE
:101B40000898408DFF2804D8FFE70898C06A0390E2
:101B5000FFE7FFE7089807A909882822825C039B12
:101B6000029C009403F084F8FFE7089840210022CB
:101B70004254FFE70898012101F044FD09A8002123
:101B8000017003E009A802210170FFE70AB010BD4F
:101B9000540100200056FFFF10B588B03A4A069263
:101BA00005AAEC231380049003A801800698412124
:101BB000405C202861D1FFE706980068806980B208
:101BC000C00B012804D1FFE707A80221017058E0EB
:101BD000FFE706984021405C012804D1FFE707A8F1
:101BE000022101704DE00698402101224254FFE796
:101BF000FFE70698412121224254069842211022F3
:101C0000425406980021416404980699486203985A
:101C10000699488506981D49C16206981C4941638A
:101C20000698408D000A002807D0FFE70698FF219C
:101C3000018501200006029007E00698408D069974
:101C40000885012040060290FFE7069805A909884B
:101C50002822825C029B0F4C009403F009F8FFE7F6
:101C60000698402100224254FFE70698012101F026
:101C7000C9FC07A80021017003E007A80221017038
:101C8000FFE708B010BDC046540100200000FFFF70
:101C90009D4200080020008081B0009001B0704794
:101CA00081B0009001B07047B0B588B00790079838
:101CB00000681A4988422ED1FFE7FFE718480168FB
:101CC0000122114301600068104006900698FFE76A
:101CD0000020059004900390029001901220029041
:101CE00003204002019001240394022004900594F3
:101CF0000520000701A9FFF753FBE54801686205CD
:101D00001143016017252846214600F07FF8284638
:101D100000F072F8FFE708B0B0BDC04600540040C4
:101D20002C10024081B0009001B0704781B000904B
:101D300001B0704702480168491C01607047C04605
:101D40007402002080B582B001A8002101700A4809
:101D50000168402211430160032000F00FF80028C1
:101D600004D0FFE701A80121017002E000F036F87D
:101D7000FFE702B080BDC0460020024080B582B0BF
:101D80000090144800687D21C900FEF737FC00F080
:101D900089FF002804D0FFE701A80121017014E0A9
:101DA0000098032809D8FFE700990020C04300F0FD
:101DB0002DF800980849086003E001A8012101708E
:101DC00003E001A800210170FFE701A8007802B03C
:101DD00080BDC046000000200C00002005480168BE
:101DE000012211430160AA480168120711430160F2
:101DF0007047C0463410024080B582B001A9087017
:101E00000020085603F00CFC02B080BD80B584B001
:101E100003AA10700291002001901056029903F05D
:101E200015FC04B080BD00009A480168012212022E
:101E3000114301607047C04680B586B0049001A888
:101E400000210170049800788006002800D4D8E0B2
:101E5000049800788006002801D5FFE7FFE78C484A
:101E60000068C000002809D4FFE789480168012202
:101E700013071943016001A80270FFE78548006855
:101E8000C00500281DD4FFE7824801680122120224
:101E900011430160FFF728FC0390FFE77D480068CD
:101EA000C00500280CD4FFE7FFF71EFC0399401A79
:101EB000652804D3FFE705A803210170E4E0EDE7FE
:101EC000FFE7754800680321090508400290029861
:101ED000049A52680A40904214D0FFE70498406880
:101EE00003210904084088420BD1FFE76A480068D3
:101EF0008003002804D5FFE705A801210170C3E095
:101F0000FFE7FFE7654800680321090408400290E5
:101F10000298002841D0FFE70298049949680322FB
:101F200012041140884238D0FFE7049800788006F8
:101F3000002832D5FFE75948016803221204914373
:101F4000029101680122D2041143016001689143AA
:101F500001600299016002A84078C00700281BD0E8
:101F6000FFE7FFF7C1FB0390FFE74C480068012142
:101F700049020840400A00280DD1FFE7FFF7B4FBF3
:101F80000399401A4749884204D3FFE705A8032173
:101F9000017079E0E9E7FFE7FFE704980078800641
:101FA000002821D5FFE7FFE7FFE7049840680321F9
:101FB0000904084088420BD1FFE7F6480168032274
:101FC00012059143049B5B681340C9180160FFE749
:101FD000FFE7049840680321090408402F490A6874
:101FE00002430A60FFE7FFE701A80078012807D154
:101FF000FFE7274801680122120791430160FFE7CC
:10200000FFE7049800788007002809D5FFE72448F7
:1020100001680C229143049A926811430160FFE722
:1020200004980078400700280AD5FFE71C4801689B
:10203000032292029143049AD26811430160FFE7A0
:1020400004980078000700280AD5FFE714480168C3
:10205000032212039143049A126911430160FFE7BE
:1020600004980078000600280AD5FFE70C480168AC
:10207000032292049143049A526911430160FFE7DD
:1020800005A800210170FFE705A8007806B080BD13
:102090003810024000700040001002405010024012
:1020A0004C1002408913000080B586B004900120D6
:1020B00003900498002804D1FFE705A801210170CE
:1020C00061E10398B249096801221140884221D98F
:1020D000FFE7AF48016801229143039A1143016071
:1020E000FFF702FB0290FFE7A948006801210840C2
:1020F000039988420DD0FFE7FFF7F6FA0299401ADC
:10210000A549884204D3FFE705A8032101703AE1FD
:10211000EAE7FFE7049800788007002809D5FFE781
:10212000F0480168F0229143049A926811430160DB
:10213000FFE704980078C007002800D1BCE00498AD
:10214000406802280ED1FFE7E848006801214904F1
:102150000840400C002804D1FFE705A801210170C8
:1021600011E134E00498406803280ED1FFE7DF480E
:102170000068012149060840400E002804D1FFE70D
:1021800005A801210170FEE020E0049840680128C4
:102190000DD1FFE7D54800680421084080080028D9
:1021A00004D1FFE705A801210170ECE00DE0CF4864
:1021B0000068012149020840400A002804D1FFE7D5
:1021C00005A801210170DEE0FFE7FFE7FFE7C54852
:1021D000016803229143049A526811430160FFF79A
:1021E00083FA029004984068022816D1FFE7FFE7BF
:1021F000BC4800680C21084008280DD0FFE7FFF715
:1022000073FA0299401A6449884204D3FFE705A88B
:1022100003210170B7E0EBE74DE004984068032824
:1022200016D1FFE7FFE7AF4800680C2108400C28F3
:102230000DD0FFE7FFF758FA0299401A5649884235
:1022400004D3FFE705A8032101709CE0EBE731E030
:1022500004984068012816D1FFE7FFE7A14800680D
:102260000C21084004280DD0FFE7FFF73DFA029942
:10227000401A4949884204D3FFE705A803210170A9
:1022800081E0EBE715E0FFE7964800680007800F64
:1022900000280DD0FFE7FFF727FA0299401A3E49C0
:1022A000884204D3FFE705A8032101706BE0EBE748
:1022B000FFE7FFE7FFE7FFE70398354909680122D9
:1022C0001140884221D2FFE7314801680122914341
:1022D000039A11430160FFF707FA0290FFE72C48C9
:1022E000006801210840039988420DD0FFE7FFF7FD
:1022F000FBF90299401A2849884204D3FFE705A850
:10230000032101703FE0EAE7FFE704980078400707
:1023100000280AD5FFE7734801680722120291439B
:10232000049AD26811430160FFE70498007800071F
:1023300000280BD5FFE76B4801680722D2029143C2
:10234000049A1269D20011430160FFE700F04EF8D1
:1023500064490968C9B20909104A515CC840134967
:1023600008600F480068FFF709FD01A908700878A8
:10237000002804D0FFE7019805A9087003E005A82C
:1023800000210170FFE705A8007806B080BDC046B7
:10239000002002400010024089130000237700084B
:1023A0000C000020014800687047C0460000002073
:1023B00080B5FFF7F7FF4B49096807221202114069
:1023C000090A094A515CC84080BDC04680B5FFF784
:1023D000E9FF444909680722D2021140C90A024AAA
:1023E000515CC84080BDC0463377000810B586B048
:1023F0003C480068059005980C2108400C2861D8DD
:1024000078440079400087445C5D5D5D065D5D5DFC
:10241000135D5D5D160035480068C006002803D5D1
:10242000FFE73448009002E031480090FFE755E0B4
:102430003148009052E005980F2189040840800C33
:102440002949085C04900598032189050840800DFE
:10245000401C039023480068C00300280DD5FFE707
:102460000498254A002421462346FEF7E0F9039A02
:102470002346FDF740FE029020E01C480068C0069D
:1024800000280DD5FFE704981A4A00242146234668
:10249000FEF7CDF9039A2346FDF72DFE02900CE0DE
:1024A0000498134A002421462346FEF7C0F9039AF4
:1024B0002346FDF720FE0290FFE7FFE70298009019
:1024C0000CE0FFE70D48006880B2400B01900198D6
:1024D000401C01218140C8030090FFE7009806B02E
:1024E00010BDC0460C1002401A77000800100240D0
:1024F0000024F40000093D0000127A00041002409C
:1025000010B58AB008900898002804D1FFE709A800
:1025100001210170B5E3FC4801680C2211400491CF
:102520000068012109040840039008980078C0075A
:10253000002800D18DE0049808280AD0FFE704980D
:102540000C2819D1FFE7039801210904884213D10F
:10255000FFE7EE480068012149040840400C0028CC
:1025600009D0FFE708984068002804D1FFE709A8D0
:102570000121017085E36BE0FFE7089840680121C5
:102580000904884207D1FFE7E048016801221204EC
:102590001143016021E00898406805210904884240
:1025A0000BD1FFE7D9480168012293041943016068
:1025B00001681204114301600EE0D4480168012251
:1025C000130499430160016819400291029901685E
:1025D000920491430160FFE7FFE7FFE70898406836
:1025E00000281AD0FFE7FFF77FF80790FFE7C748FA
:1025F0000068012149040840400C00280CD1FFE785
:10260000FFF772F80799401A652804D3FFE709A875
:102610000321017035E3EAE719E0FFF765F8079059
:10262000FFE7BA480068012149040840400C00282F
:102630000CD0FFE7FFF758F80799401A652804D334
:10264000FFE709A8032101701BE3EAE7FFE7FFE7C3
:10265000FFE7089800788007002800D4A7E00898D2
:10266000C068069006A800788006002809D5FFE714
:10267000A648016820221143016006989043069005
:10268000FFE70498042808D0FFE704980C2840D1FD
:10269000FFE7039800283CD1FFE79C48006804212D
:1026A00008408008002808D0FFE70698002804D1D9
:1026B000FFE709A801210170E3E2954801681F22A4
:1026C00012029143089A12691202114301608F4865
:1026D000016809229143069A11430160FFE7FFF761
:1026E00085FE89490968C9B209098A4A515CC8400E
:1026F0008949086089480068FFF740FB05A9087010
:102700000878002804D0FFE7059809A90870B8E206
:102710004CE0069800282AD0FFE77C48016809228F
:102720009143069A11430160FEF7DEFF0790FFE731
:102730007648006804210840800800280CD1FFE793
:10274000FEF7D2FF0799401A032804D3FFE709A830
:102750000321017095E2EBE76D4801681F22120228
:102760009143089A12691202114301601DE0674803
:102770000168012291430160FEF7B6FF0790FFE771
:102780006248006804210840800800280CD0FFE758
:10279000FEF7AAFF0799401A032804D3FFE709A808
:1027A000032101706DE2EBE7FFE7FFE7FFE7089821
:1027B0000078C006002800D4A0E00498002844D186
:1027C000FFE752480068012149020840400A0028FA
:1027D00009D0FFE708988069002804D1FFE709A81D
:1027E000012101704DE24A480168072252039143DA
:1027F000089A126A114301600168FF221206914390
:10280000089AD2691206891801600898006A400B7C
:10281000401C01218140C8033B490968C9B209092C
:102820003C4A515CC8403C4908603C480068FFF79E
:10283000A5FA05A908700878002804D0FFE70598D4
:1028400009A908701DE2FFE757E008988069002891
:1028500032D0FFE72D4801680122120211430160C6
:10286000FEF742FF0790FFE7284800680121490270
:102870000840400A00280CD1FFE7FEF735FF079912
:10288000401A032804D3FFE709A803210170F8E1E7
:10289000EAE71F480168072252039143089A126A27
:1028A000114301600168FF2212069143089AD26920
:1028B0001206891801601FE0F54801680122120222
:1028C00091430160FEF710FF0790FFE7F0480068B2
:1028D000012149020840400A00280CD0FFE7FEF71A
:1028E00003FF0799401A032804D3FFE709A803212F
:1028F0000170C6E1EAE7FFE7FFE7FFE70898007825
:10290000000700284ED50BE00C10024000100240DA
:102910000410024023770008000000200C00002073
:102920000898406900281ED0FFE7DA4801680122B4
:1029300011430160FEF7D8FE0790FFE7D548006815
:1029400002210840400800280CD1FFE7FEF7CCFE2A
:102950000799401A032804D3FFE709A8032101704F
:102960008FE1EBE71DE0CB48016801229143016054
:10297000FEF7BAFE0790FFE7C6480068022108404C
:10298000400800280CD0FFE7FEF7AEFE0799401A7A
:10299000032804D3FFE709A80321017071E1EBE7E5
:1029A000FFE7FFE7089800784007002800D4BBE065
:1029B00001A800210170B8480068C000002809D4AF
:1029C000FFE7B5480168012213071943016001A818
:1029D0000270FFE7B1480068C00500281DD4FFE77A
:1029E000AE4801680122120211430160FEF77CFE2D
:1029F0000790FFE7A9480068C00500280CD4FFE74E
:102A0000FEF772FE0799401A652804D3FFE709A86C
:102A10000321017035E1EDE7FFE7FFE708988068E3
:102A200001210902884207D1FFE79A480168012283
:102A30001202114301602EE00898806800280BD133
:102A4000FFE794480168012213029943016001687D
:102A50009202914301601DE00898806805210902F7
:102A600088420BD1FFE78B4801680122930219438A
:102A7000016001681202114301600AE085480168A3
:102A8000012213029943016001689202914301609F
:102A9000FFE7FFE7FFE7FFE70898806800281BD003
:102AA000FFE7FEF721FE0790FFE77A480068012163
:102AB00049020840400A00280DD1FFE7FEF714FE46
:102AC0000799401A7649884204D3FFE709A80321F1
:102AD0000170D6E0E9E71AE0FEF706FE0790FFE78F
:102AE0006C480068012149020840400A00280DD0C6
:102AF000FFE7FEF7F9FD0799401A6949884204D3B8
:102B0000FFE709A803210170BBE0E9E7FFE701A89F
:102B10000078012807D1FFE75F480168012212070A
:102B200091430160FFE7FFE70898406A002800D161
:102B3000A3E004980C2872D0FFE70898406A0228A6
:102B40004CD1FFE75248016801221206914301600F
:102B5000FEF7CAFD0790FFE74D48006801214906CE
:102B60000840400E00280CD0FFE7FEF7BDFD079996
:102B7000401A032804D3FFE709A80321017080E06D
:102B8000EAE742480168FD2212049143089A936AD9
:102B9000D46A2343126B1343194301603C48016814
:102BA0000122120611430160FEF79EFD0790FFE728
:102BB00037480068012149060840400E00280CD122
:102BC000FFE7FEF791FD0799401A032804D3FFE7BA
:102BD00009A80321017054E0EAE71FE02C480168CE
:102BE0000122120691430160FEF77EFD0790FFE788
:102BF00027480068012149060840400E00280CD0F3
:102C0000FFE7FEF771FD0799401A032804D3FFE799
:102C100009A80321017034E0EAE7FFE72CE00898F7
:102C2000406A012804D1FFE709A80121017028E0CA
:102C30001648006803900398012109040840089988
:102C4000896A884212D1FFE703980F21890408405E
:102C50000899C96A884209D1FFE7039803218905C9
:102C600008400899096B884204D0FFE709A80121B0
:102C7000017006E0FFE7FFE7FFE709A80021017008
:102C8000FFE709A800780AB010BDC0460C1002404A
:102C90000010024050100240381002400070004006
:102CA0008913000080B582B00190019802F03CF8D1
:102CB00002B080BD82B00190684601800198006832
:102CC0000349884202D1FFE7FFE7FFE702B0704700
:102CD0000048004081B0009001B0704781B0009082
:102CE00001B0704780B5A8B0F6480F900F98006803
:102CF000C0690E900F98006800680D900F980068EA
:102D000080680C900E98F04908400B900B980028B2
:102D100017D1FFE70EA800788006002810D5FFE73E
:102D20000DA80078800600280AD5FFE70F98806E6E
:102D3000002804D0FFE70F98816E8847FFE75AE22A
:102D4000FFE70B98002800D1FBE00CA80078C00733
:102D5000002805D1FFE70D98DC49084200D1F0E0DA
:102D60000EA80078C007002810D0FFE70DA8407813
:102D7000C00700280AD0FFE70F9800680121016210
:102D80000F98842283580B438350FFE70EA80078E6
:102D90008007002811D5FFE70CA80078C00700289D
:102DA0000BD0FFE70F980068022101620F98842181
:102DB000425804231A434250FFE70EA80078400708
:102DC000002811D5FFE70CA80078C00700280BD019
:102DD000FFE70F980068042101620F988421425890
:102DE00002231A434250FFE70EA80078000700288C
:102DF00016D5FFE70DA800788006002806D4FFE767
:102E00000CA80078C00700280AD0FFE70F980068D8
:102E1000082101620F98842283580B438350FFE7F7
:102E20000EA840780007002812D5FFE70DA8C0784B
:102E3000400700280CD5FFE70F9800680121C90260
:102E400001620F988421425820231A434250FFE721
:102E50000F9884214058002872D0FFE70EA8007810
:102E60008006002810D5FFE70DA80078800600280E
:102E70000AD5FFE70F98806E002804D0FFE70F986F
:102E8000816E8847FFE7FFE70F98842140580A903A
:102E90000F980068806840210840402806D0FFE76E
:102EA0000AA800782821084241D0FFE70F9802F0D5
:102EB000CFF80F98006880684006002832D5FFE7F9
:102EC000FFE7EFF3108017901798099001202790E3
:102ED000279880F310880F980068816840229143FA
:102EE000816009982690269880F31088FFE70F9854
:102EF000406F002811D0FFE70F98406FBF498163F2
:102F00000F98406FFEF7C5F9002805D0FFE70F982E
:102F1000406F816B8847FFE703E00F98FFF7DEFE05
:102F2000FFE703E00F98FFF7D9FEFFE707E00F98F0
:102F3000FFF7D4FE0F98842100224250FFE7FFE7FD
:102F400059E10F98006E012800D019E10EA8007811
:102F5000C006002800D413E10DA80078C0060028A0
:102F600000D40DE10F980068102101620F980068ED
:102F700080684006002800D492E00F98406F0068F7
:102F8000406808A908800888002800D187E008A8C0
:102F900000880F995822895A884200DB7FE0089800
:102FA0000F995A2288520F98406F00680068800677
:102FB000002867D4FFE7FFE7EFF31080169016981C
:102FC000079001202590259981F310880F990968B1
:102FD0000A68000282430A6007982490249880F3CC
:102FE0001088FFE7FFE7EFF3108015901598069023
:102FF00001202390239981F310880F9909688A682A
:1030000082438A6006982290229880F31088FFE716
:10301000FFE7EFF3108014901498059001202190A1
:10302000219880F310880F980068816840229143AE
:10303000816005982090209880F31088FFE70F9812
:103040008021202242500F9800210166FFE7EFF314
:10305000108013901398049001201F901F9880F304
:1030600010880F980068016810229143016004984D
:103070001E901E9880F31088FFE70F98406FFEF7B0
:10308000CDF8FFE70F98022141660F985821415A69
:103090005A22825A891A89B2FFF70CFEFFE7AAE08A
:1030A0000F985821415A5A22805A081A03A90880B9
:1030B0000F98805A002862D0FFE703A800880028F4
:1030C0005DD005E0A80100200F08000020010004E9
:1030D000FFE7EFF3108012901298029001201D90EC
:1030E0001D9880F310880F9800680168092252012A
:1030F0009143016002981C901C9880F31088FFE7B0
:10310000FFE7EFF3108011901198019001201B90C0
:103110001B9981F310880F9909688A6882438A6035
:1031200001981A901A9880F31088FFE70F98802171
:10313000202242500F98002101660F988166FFE718
:10314000EFF31080109010980090012019901998BA
:1031500080F310880F980068016810229143016085
:1031600000981890189880F31088FFE70F980221B4
:1031700041660F9803A90988FFF79CFDFFE73AE035
:103180000EA88078C00600280FD5FFE70CA880782D
:103190004006002809D5FFE70F98006801210905BE
:1031A00001620F98FFF796FD25E00EA80078000653
:1031B000002810D5FFE70DA80078000600280AD5E2
:1031C000FFE70F98C06E002804D0FFE70F98C16E8C
:1031D0008847FFE70FE00EA80078400600280AD5D0
:1031E000FFE70DA800784006002804D5FFE70F98F8
:1031F00001F086FFFFE728B080BDC0462D500008D3
:1032000080B582B0A14800900098002804D1FFE763
:1032100001A80121017048E000988069002801D0D0
:10322000FFE700E0FFE70098C06F002808D1FFE744
:103230000098782100224254009800F03BF8FFE704
:1032400000982421C1670098006801680122914319
:103250000160009801F07AFF012804D1FFE701A87E
:103260000121017021E00098406A002804D0FFE7A6
:10327000009801F083FDFFE700980068416809228B
:10328000D202914341600098006881682A229143EC
:103290008160009800680168012211430160009874
:1032A00001F01AFE01A90870FFE701A8007802B03A
:1032B00080BDC046B0B588B00790079800681A492D
:1032C00088422ED1FFE7FFE7184801680122114329
:1032D00001600068104006900698FFE700240594FE
:1032E0000494039402940194022002900C20019013
:1032F000039403200490062005900520000701A9EF
:10330000FEF74EF80A480168012292041143016059
:103310001D2528462146FEF779FD2846FEF76CFD5F
:10332000FFE708B0B0BDC046004800402C10024086
:103330003810024080B588B0544A0692059004A81F
:103340000180322003900698C06F202800D097E0BB
:103350000598002805D0FFE704A80088002804D1BC
:10336000FFE707A8012101708EE00698806801211F
:103370000903884210D1FFE70698006900280BD1A5
:10338000FFE705A80078C007002804D0FFE707A8DA
:103390000121017078E0FFE7069884210022425065
:1033A00006982121C167FEF79FF9009004980699BD
:1033B00050228852049806995222885206988068B2
:1033C0000121090388420AD1FFE706980069002815
:1033D00005D1FFE7002002900598019004E00598D0
:1033E000029000200190FFE7FFE706985221405A23
:1033F00000282ED0FFE70698009A039B802102F058
:1034000093F8002807D0FFE706982021C16707A896
:103410000321017038E0029800280BD1FFE70198E2
:1034200000881B4908400699096888620198801C39
:10343000019008E00298007806990968886202986D
:10344000401C0290FFE706985221425A521E4252F7
:10345000CBE70698009A039B402102F065F800280C
:1034600007D0FFE706982021C16707A80321017054
:103470000AE006982021C16707A80021017003E037
:1034800007A802210170FFE708B080BDA801002055
:10349000FF01000081B0009001B07047FFE7FEE738
:1034A00080B50748006880694005400F002803D0B8
:1034B000FFE7FEF72BF902E0FEF78CF9FFE780BD8E
:1034C0005401002081B000900098C06AAA2804D15D
:1034D000FFE700980021C1620DE00098C06A552105
:1034E0004902884205D1FFE7009801214906C162DF
:1034F00000E0FFE7FFE701B0704780B582B00190C0
:103500000198806A00900098806B002805D0FFE742
:103510000098806B00218163FFE70098C06B002852
:1035200005D0FFE70098C06B00218163FFE700989A
:1035300001F0C8FB02B080BD83B0029001A80180F9
:10354000002100910088C007002812D0FFE70098F2
:1035500042210843009002984121405C2821084004
:10356000282805D0FFE70098B02108430090FFE726
:10357000FFE701A800888007002812D5FFE7009820
:1035800044210843009002984121405C28210840D2
:10359000282805D0FFE70098B02108430090FFE7F6
:1035A000FFE701A800880004002805D5FFE7009880
:1035B000B82108430090FFE701A80088102805D132
:1035C000FFE70098902108430090FFE701A80088DA
:1035D000202805D1FFE70098202108430090FFE74D
:1035E00001A80088402805D1FFE700984021084342
:1035F0000090FFE70098029909680A6882430A6010
:1036000003B0704783B0029001A8018000200090B1
:103610000298406B4949884242D0FFE70298406BCC
:10362000474988423CD0FFE70298406B45498842B1
:1036300036D0FFE701A800880004002805D5FFE781
:103640000098B82108430090FFE701A80088C00750
:10365000002805D0FFE70098F22108430090FFE71B
:1036600001A800888007002805D5FFE70098F4210D
:1036700008430090FFE701A80088102805D1FFE764
:103680000098902108430090FFE701A800882028B7
:1036900005D1FFE70098202108430090FFE745E0AF
:1036A00001A800880004002805D5FFE70098B8218C
:1036B00008430090FFE701A80088C007002805D054
:1036C000FFE70098F22108430090FFE701A8008877
:1036D0008007002805D5FFE70098F42108430090F3
:1036E000FFE701A80088102805D1FFE70098902186
:1036F00008430090FFE701A80088202805D1FFE7D4
:103700000098602108430090FFE70298406B0D4944
:1037100088420AD0FFE701A80088402805D1FFE7CA
:103720000098402108430090FFE7FFE700980299C6
:1037300009680A6802430A6003B0704775400008D0
:10374000F94700083945000881B0009000980068EA
:103750008069022108404008002805D0FFE7009852
:10376000006800218162FFE7009800688069C00757
:10377000002807D1FFE70098006881690122114302
:103780008161FFE701B0704780B586B00590049174
:1037900005984121405C2821084028287CD1FFE77A
:1037A000059800688069012109040840000C03A9FC
:1037B00008700598006880697F2149040840000C62
:1037C00002A908800598006880683A49084001A964
:1037D000088005980068C068FE2108406946088096
:1037E0000598C068022843D1FFE702A80088062197
:1037F0000840019AD2090A40904222D1FFE701987D
:1038000002A908800598816C491C81640598806C28
:10381000022815D1FFE7059800218164059800680A
:103820000821C161FFE70598402100224254FFE7CB
:10383000059803A9097802AA1288FDF75FFFFFE740
:1038400015E0009802A9088005980121C903FFF737
:1038500073FEFFE70598402100224254FFE70598D8
:1038600003A9097802AA1288FDF748FFFFE712E0D2
:1038700005980121C903FFF75FFEFFE70598402186
:1038800000224254FFE7059803A9097802AA12888A
:10389000FDF734FFFFE70AE0059800680821C161E1
:1038A000FFE70598402100224254FFE7FFE706B0FA
:1038B00080BDC046FF03000080B584B00390029134
:1038C00003984121415C01A8017003994222002321
:1038D0008B540399984ACA6203994B850299039ABB
:1038E000536C0B435364007828280AD0FFE701A8E3
:1038F0000078292805D0FFE701A800782A280CD1F4
:10390000FFE703980321FFF717FE039841212822C0
:10391000425403986049416335E003988749FFF7B3
:103920000BFE0398FFF710FF03984121405C6028CD
:1039300025D0FFE7039841212022425403980068D4
:10394000806910404009012818D1FFE703980068FA
:10395000806910210840000901280AD1FFE7039877
:1039600000681021C1610398416C04221143416435
:10397000FFE7039800682021C161FFE7FFE7039894
:1039800000214163FFE70398006B00900398806B70
:1039900000283AD0FFE70098112804D0FFE70098EC
:1039A000212832D1FFE7039800680068400400280E
:1039B00008D5FFE70398006801680122920391434C
:1039C0000160FFE70398806BFDF7A1FC012817D089
:1039D000FFE70398806B31498163FFE7039840213B
:1039E00000224254FFE70398806BFDF752FC002849
:1039F00005D0FFE70398806B816B8847FFE703E002
:103A0000039801F05FF9FFE743E00398C06B0028DB
:103A10003AD0FFE70098122804D0FFE70098222848
:103A200032D1FFE70398006800680004002808D539
:103A3000FFE70398006801680122D2039143016007
:103A4000FFE70398C06BFDF762FC012817D0FFE782
:103A50000398C06B11498163FFE70398402100225E
:103A60004254FFE70398C06BFDF713FC002805D014
:103A7000FFE70398C06B816B8847FFE703E003987B
:103A800001F020F9FFE703E0039801F01BF9FFE7DD
:103A9000FFE704B080BDC046294A0008FB34000897
:103AA00080B582B00190009101989149C16201985E
:103AB000002101630198412220238354019842226E
:103AC00081540198416368460078042108408008C9
:103AD00000281ED0FFE701980068406A0199496AF2
:103AE00008700198416A491C41620198008D0028C4
:103AF0000ED0FFE70198018D491E01850198418D87
:103B0000491E41850198416C042211434164FFE73D
:103B1000FFE701980949FFF70FFD019800681021A0
:103B2000C161FFE70198402100224254FFE701985C
:103B3000FDF7F6FE02B080BD0000FFFF038000002D
:103B400080B586B0059004910498029005980068AD
:103B50002021C16105984121405C212808D1FFE75F
:103B600005980121FFF7E8FC0598112101630FE09A
:103B700005984121405C222808D1FFE705980221E1
:103B8000FFF7DAFC05981221016300E0FFE7FFE789
:103B9000059800684168554A114041600598002128
:103BA000416305985249C16202A80078102108407B
:103BB000000900280AD0FFE7059800681021C161BC
:103BC0000598416C042211434164FFE705984121A7
:103BD000405C60280FD1FFE702A80078042108406C
:103BE0008008002807D0FFE705980068406AC0B247
:103BF00001900198FFE70598FFF7A6FD0598406C36
:103C0000039005984121405C602804D0FFE70398A9
:103C1000002805D0FFE70598416CFFF74DFE62E0F4
:103C200005984121405C21282AD1FFE705984121D0
:103C30002022425405980021016305984221405CEE
:103C400040280ED1FFE70598422100224254FFE7A9
:103C50000598402100224254FFE70598FEF720F81E
:103C60000DE00598422100224254FFE705984021CB
:103C700000224254FFE70598FDF75AFEFFE731E0C6
:103C800005984121405C22282AD1FFE7059841216F
:103C90002022425405980021016305984221405C8E
:103CA00040280ED1FFE70598422100224254FFE749
:103CB0000598402100224254FFE70598FDF7ECFFEC
:103CC0000DE00598422100224254FFE7059840216B
:103CD00000224254FFE70598FDF726FEFFE700E0CB
:103CE000FFE7FFE7FFE706B080BDC04600E800FE43
:103CF0000000FFFF80B582B00190019842210022B0
:103D0000425401984121405C212818D1FFE70198D5
:103D10004121202242540198112101630198002180
:103D2000416301980121FFF707FCFFE7019840215B
:103D300000224254FFE70198FDF7FAFD17E00198D1
:103D4000412120224254019812210163019800214F
:103D5000416301980221FFF7EFFBFFE70198402143
:103D600000224254FFE70198FDF7DEFDFFE702B0B5
:103D700080BD000080B586B005900491059800686C
:103D8000006803900498029005984121405C01A9C5
:103D90000870059800682022C2610878212805D0A3
:103DA000FFE701A80078292808D1FFE705987C499A
:103DB000FFF7C2FB05982121016313E001A80078F9
:103DC000222805D0FFE701A800782A2808D1FFE7BC
:103DD00005987249FFF7B0FB05982221016300E0C6
:103DE000FFE7FFE70598006841680122D20311430D
:103DF00041600598006841686A4A11404160059831
:103E0000FFF7A2FC03A84078402108408009002861
:103E100014D0FFE7059800680168012292039143DE
:103E200001600598806B002807D0FFE70598806B3C
:103E30000068406805994885FFE71BE003A84078C3
:103E4000C009002814D0FFE7059800680168012226
:103E5000D203914301600598C06B002807D0FFE7AB
:103E60000598C06B0068406805994885FFE700E049
:103E7000FFE7FFE702A80078042108408008002837
:103E80001DD0FFE70298042188430290059800683E
:103E9000406A0599496A08700598416A491C41625F
:103EA0000598008D002809D0FFE70598018D491E6F
:103EB00001850598418D491E4185FFE7FFE705987B
:103EC000408D002806D0FFE70598416C042211437D
:103ED0004164FFE70598422100224254059842635D
:103EE0000598406C002810D0FFE70598416CFFF75B
:103EF000E3FC05984121405C282805D1FFE705989F
:103F00000299FFF7CDFDFFE746E00598C06AE14959
:103F1000884217D0FFE7059800F046F80598DD497C
:103F2000C162059841212022425405980021016375
:103F3000FFE70598402100224254FFE70598FDF76E
:103F4000EFFC28E005984121405C222811D1FFE7D1
:103F50000598412120224254059800210163FFE782
:103F60000598402100224254FFE70598FDF7DAFE4C
:103F700010E0059841212022425405980021016358
:103F8000FFE70598402100224254FFE70598FDF71E
:103F9000CDFEFFE7FFE7FFE706B080BD028000002F
:103FA0000180000000E800FE80B582B00190019819
:103FB000006800680090019842210022425468463F
:103FC0004078402108408009002808D0FFE7019888
:103FD0000068016801229203914301600FE0684686
:103FE0004078C009002808D0FFE701980068016800
:103FF0000122D2039143016000E0FFE7FFE701984F
:104000004121405C292815D1FFE701984121282250
:10401000425401982121016301980121FFF78CFA94
:10402000FFE70198402100224254FFE70198FDF785
:104030007DFE1CE001984121405C2A2815D1FFE754
:1040400001984121282242540198222101630198BC
:104050000221FFF771FAFFE7019840210022425444
:10406000FFE70198FDF75EFE00E0FFE7FFE702B023
:1040700080BD000010B588B0069005910492FFE75E
:1040800006984021405C012804D1FFE707A80221DF
:104090000170FBE00698402101224254FFE7FFE750
:1040A00005A80078102108400009002819D0FFE772
:1040B00004A80078102108400009002811D0FFE76B
:1040C000069800681021C1610698416C04221143D2
:1040D000416406982021FFF795FA0698FFF734FB14
:1040E000CAE005A80078C009002874D0FFE704A83A
:1040F000007840210840800900286CD0FFE706982E
:10410000006801684022914301600698408D0028B4
:104110004DD0FFE70698006840685F49084003A952
:1041200008800698408D000A002807D0FFE706980F
:10413000FF21018501200006029012E00698408DC3
:10414000069908850698C06AF949884204D0FFE7B5
:104150000698C06A029003E0012040060290FFE743
:10416000FFE7069803A909882822825C029B0024A5
:10417000009400F07DFD0698018D428D511A418515
:1041800006984121405C222808D1FFE70698006884
:1041900001680122D2031143016007E0069800681C
:1041A00001680122920311430160FFE712E00698C3
:1041B00000684068012149060840884204D0FFE7B2
:1041C0000698FFF797FD04E006984021FFF774FB7F
:1041D000FFE7FFE74FE005A800784021084080098D
:1041E000002830D0FFE704A800784021084080096B
:1041F000002828D0FFE70698408D00281DD1FFE752
:10420000069800684068012149060840884213D09A
:10421000FFE70698C06AC649884208D1FFE70698BA
:1042200000684168012292031143416003E006984F
:10423000FFF760FDFFE7FFE704E006984021FFF786
:104240003BFBFFE716E005A8007820210840400965
:1042500000280DD0FFE704A800782021084040097D
:10426000002805D0FFE706980599FFF769FC00E0F4
:10427000FFE7FFE7FFE7FFE7FFE70698402100229F
:104280004254FFE707A800210170FFE707A8007864
:1042900008B010BD0000FFFFFF03000010B588B09C
:1042A00006900591049205980290FFE70698402138
:1042B000405C012804D1FFE707A80221017032E128
:1042C0000698402101224254FFE7FFE702A8007848
:1042D000102108400009002815D0FFE704A8007845
:1042E00010210840000900280DD0FFE7069800685B
:1042F0001021C1610698416C042211434164069863
:10430000FFF722FAF0E002A80078042108408008B4
:1043100000281FD0FFE704A8007804210840800887
:10432000002817D0FFE702980421884302900698DE
:104330000068406A0699496A08700698416A491CF3
:1043400041620698018D491E01850698418D491EDE
:104350004185C8E002A800780221084040080028F2
:104360001AD0FFE704A8007802210840400800287E
:1043700012D0FFE70698416A0978006881620698C2
:10438000416A491C41620698018D491E01850698C3
:10439000418D491E4185A5E002A80078C00900288A
:1043A00065D0FFE704A80078402108408009002874
:1043B0005DD0FFE70698408D002844D0FFE70698BF
:1043C000008D00283FD1FFE70698006840685949F2
:1043D000084003A908800698408D000A00280FD0E5
:1043E000FFE70698FF210185069803A9098828227E
:1043F000825C0023009301231B0600F039FC21E0BE
:104400000698408D069908850698C06A48498842F2
:104410000BD0FFE7069803A909882822825CC36AAB
:104420000024009400F024FC0BE0069803A90988FE
:104430002822825C0023009301235B0600F018FC15
:10444000FFE7FFE712E0069800684068012149068F
:104450000840884204D0FFE70698FFF74BFC04E0D1
:1044600006984021FFF728FAFFE7FFE739E002A8A6
:104470000078402108408009002830D0FFE704A8D8
:104480000078402108408009002828D0FFE70698DE
:10449000408D00281DD1FFE7069800684068012183
:1044A00049060840884213D0FFE70698C06A2049B1
:1044B000884208D1FFE7069800684168012292030C
:1044C0001143416003E00698FFF714FCFFE7FFE7A4
:1044D00004E006984021FFF7EFF9FFE700E0FFE76F
:1044E000FFE7FFE7FFE7FFE702A800782021084089
:1044F000400900280DD0FFE704A8007820210840DB
:104500004009002805D0FFE706980299FFF718FB3D
:10451000FFE7FFE70698402100224254FFE707A883
:1045200000210170FFE707A8007808B010BDC04661
:104530000000FFFFFF03000080B586B004900391E8
:10454000029299480190FFE704984021405C0128BD
:1045500004D1FFE705A80221017020E10498402161
:1045600001224254FFE7FFE703A80078102108402A
:104570000009002819D0FFE702A8007810210840A0
:104580000009002811D0FFE7049800681021C161DC
:104590000498416C04221143416404982021FFF7E0
:1045A00031F80498FFF7D0F8EFE003A80078022173
:1045B00008404008002812D0FFE702A80078022136
:1045C0000840400800280AD0FFE70498006D0499CD
:1045D0000968886204980021C9430165D4E003A8F2
:1045E0000078C00900285AD0FFE702A800784021CF
:1045F00008408009002852D0FFE704981021FFF7F7
:1046000001F80498408D002843D0FFE70498408DBE
:10461000000A002810D0FFE70498FF2101850498C4
:10462000C16C049A2823D25C0023009389B2012331
:104630001B0600F01DFB10E00498408D04990885CE
:104640000498C16C049A2823D25C0023009389B299
:1046500001235B0600F00CFBFFE70498018D428DFF
:10466000511A418504984121405C222808D1FFE776
:104670000498006801680122D2031143016007E039
:104680000498006801680122920311430160FFE76A
:1046900004E004984021FFF70FF9FFE773E003A857
:1046A0000078402108408009002854D0FFE702A884
:1046B000007840210840800900284CD0FFE704988A
:1046C0004121405C222803D1FFE738480190FFE7F1
:1046D0000498408D000A002810D0FFE70498FF21BD
:1046E00001850498C16C049A2823D25C019B009335
:1046F00089B201231B0600F0BBFA10E00498408D3C
:10470000049908850498C16C049A2823D25C019B03
:10471000009389B201235B0600F0AAFAFFE7049830
:10472000018D428D511A418504984121405C222817
:1047300008D1FFE70498006801680122D203114301
:10474000016007E0049800680168012292031143A8
:104750000160FFE716E003A8007820210840400927
:1047600000280DD0FFE702A800782021084040096A
:10477000002805D0FFE704980399FFF7E1F900E06E
:10478000FFE7FFE7FFE7FFE7FFE7FFE704984021C8
:1047900000224254FFE705A800210170FFE705A8A9
:1047A000007806B080BDC046002000800024008054
:1047B00080B584B003A8702101800649029101AA46
:1047C0000621118000880299128801F0E1FC04B0F2
:1047D00080BDC0465802002080B584B003A9702275
:1047E0000A80029001AA032010800888029912888A
:1047F00001F045FD04B080BD80B588B006900591FC
:1048000004920698C06A039000200290FFE7069881
:104810004021405C012804D1FFE707A80221017074
:10482000FEE00698402101224254FFE7FFE705A879
:10483000007820210840400900280DD0FFE704A897
:104840000078202108404009002805D0FFE706989D
:104850000599FFF78FFAFFE705A8007810210840B7
:104860000009002800D1BAE004A80078102108400F
:104870000009002800D1B2E004A840784021084097
:104880008009002806D1FFE704A84078C009002865
:1048900000D19EE00698C06B002812D0FFE704A864
:1048A0004078C00900280BD0FFE70698C06B00686D
:1048B0004068002803D1FFE701200290FFE7FFE7EF
:1048C000FFE70698806B002814D0FFE704A8407823
:1048D00040210840800900280BD0FFE70698806B34
:1048E00000684068002803D1FFE701200290FFE73D
:1048F000FFE7FFE7029801282ED1FFE70698412144
:10490000405C28280BD1FFE7039801214906884223
:1049100005D1FFE706980599FFF7C2F81BE0069856
:104920004121405C292810D1FFE70398CF498842F4
:104930000BD0FFE7069800681021C1610698FEF7CA
:1049400003FF0698FFF730FB04E00698006810218B
:10495000C161FFE7FFE73BE0069800681021C161F5
:104960000698416C04221143416406984121405C41
:1049700001A908700398002806D0FFE703980121D9
:104980000906884223D1FFE701A80078212805D035
:10499000FFE701A80078292804D1FFE70698212124
:1049A00001630FE001A80078222805D0FFE701A8E5
:1049B00000782A2804D1FFE706982221016300E04D
:1049C000FFE7FFE70698416CFEF776FFFFE7FFE79A
:1049D00004E0069800681021C161FFE716E005A811
:1049E000007808210840C00800280DD0FFE704A87F
:1049F000007808210840C008002805D0FFE7069885
:104A00000599FEF7C1FE00E0FFE7FFE7FFE7069824
:104A1000402100224254FFE707A800210170FFE770
:104A200007A8007808B080BD80B586B004900391D7
:104A300002920498C06A019003980090FFE70498DE
:104A40004021405C012804D1FFE705A80221017044
:104A500008E10498402101224254FFE7FFE768463D
:104A6000007820210840400900280DD0FFE702A867
:104A70000078202108404009002805D0FFE704986D
:104A80000099FFF777F9FFE76846007810210840A2
:104A90000009002855D0FFE702A80078102108403F
:104AA000000900284DD0FFE70498408D00282ED142
:104AB000FFE704984121405C28280BD1FFE70198CB
:104AC00001214906884205D1FFE704980099FEF7C5
:104AD000E7FF1BE004984121405C292810D1FFE743
:104AE0000198624988420BD0FFE7049800681021C2
:104AF000C1610498FEF728FE0498FFF755FA04E018
:104B0000049800681021C161FFE7FFE718E00498EE
:104B100000681021C1610498416C04221143416472
:104B20000198002806D0FFE7019801210906884274
:104B300005D1FFE70498416CFEF7BEFEFFE7FFE7F3
:104B400086E06846007804210840800800282FD0BD
:104B5000FFE702A80078042108408008002827D039
:104B6000FFE70498408D002813D0FFE70498006801
:104B7000406A0499496A08700498416A491C416274
:104B80000498018D491E01850498418D491E418577
:104B9000FFE70498408D002809D1FFE701983349C9
:104BA000884204D0FFE70498FFF7FEF9FFE74EE0E4
:104BB0006846007808210840C00800280DD0FFE7AB
:104BC00002A8007808210840C008002805D0FFE7A7
:104BD00004980099FEF7D8FD38E068460078022175
:104BE0000840400800282FD0FFE702A800780221E3
:104BF00008404008002827D0FFE70498408D00288F
:104C000012D0FFE70498416A09780068816204982D
:104C1000416A491C41620498418D491E41850498AE
:104C2000018D491E01850EE0019801210906884287
:104C300004D0FFE70198002804D1FFE70498FFF7AC
:104C4000B3F9FFE7FFE700E0FFE7FFE7FFE7FFE774
:104C5000FFE70498402100224254FFE705A8002105
:104C60000170FFE705A8007806B080BD0000FFFFD7
:104C700010B585B0079C049003A8018002A90A70B2
:104C8000019300880D4A10400978090440180199E1
:104C90000843079908430121C907884300900498F5
:104CA000006840680799490D884305490840009904
:104CB000084304990968486005B010BDFF0300006F
:104CC000009C00FC80B582B0019001984121405CBD
:104CD000602811D1FFE70198412120224254019818
:104CE00000210163FFE70198402100224254FFE7C1
:104CF0000198FCF7FFFC0CE0019800210163FFE73D
:104D00000198402100224254FFE70198FCF77CFD06
:104D1000FFE702B080BD80B5FDF7E4FF80BDFFE78F
:104D2000FEE770477047000010B582B00090009811
:104D3000401E000E002803D0FFE7012001900FE085
:104D40000098401E084908600024E043032100F059
:104D50007DFC064804600648072101600194FFE7D6
:104D6000019802B010BDC04614E000E018E000E079
:104D700010E000E080B5FCF7DDFF80BD81B0009061
:104D800000982421405CC00700280CD0FFE7009861
:104D90000068406801214904884300998A6A1043E9
:104DA00009684860FFE700982421405C80070028DC
:104DB0000CD5FFE70098006840680121090488438A
:104DC0000099CA6A104309684860FFE700982421E7
:104DD000405C400700280CD5FFE700980068406859
:104DE00001218904884300990A6B104309684860CF
:104DF000FFE700982421405C000700280CD5FFE75E
:104E00000098006840680121C903884300994A6BF3
:104E1000104309684860FFE700982421405CC00601
:104E200000280CD5FFE7009800688068012109037D
:104E3000884300998A6B104309688860FFE70098EF
:104E40002421405C800600280CD5FFE7009800680C
:104E500080680121490388430099CA6B104309689F
:104E60008860FFE700982421405C400600281DD59B
:104E7000FFE7009800684068012109058843009A0F
:104E8000136C1843126850600098006C88420CD173
:104E9000FFE70098006840680321490588430099AE
:104EA0004A6C104309684860FFE7FFE70098242137
:104EB000405C000600280CD5FFE7009800684068B9
:104EC0000121C904884300998A6C1043096848602D
:104ED000FFE701B07047000080B590B005900598DD
:104EE000842100224250FCF7FFFB049005980068E3
:104EF0000068000700282FD5FFE70598049A0121D4
:104F00004905494B00F010FB002824D0FFE7FFE7DC
:104F1000EFF3108009900998039001200F900F98EB
:104F200080F3108805980068016880229143016031
:104F300003980E900E9880F31088FFE705982021C3
:104F4000C167FFE70598782100224254FFE706A8D1
:104F50000321017063E0FFE70598006800684007DF
:104F6000002847D5FFE70598049A012189052E4BB3
:104F700000F0DAFA00283CD0FFE7FFE7EFF31080FB
:104F800008900898029001200D900D9880F31088E9
:104F90000598006801680922520191430160029856
:104FA0000C900C9880F31088FFE7FFE7EFF3108078
:104FB00007900798019001200B900B9981F31088BE
:104FC000059909688A6882438A6001980A900A985C
:104FD00080F31088FFE70598802120224250FFE7E8
:104FE0000598782100224254FFE706A803210170AA
:104FF00015E0FFE705982021C167059880228150C0
:1050000005980021016605984166FFE7059878211B
:1050100000224254FFE706A800210170FFE706A81E
:10502000007810B080BDC046FFFFFF0180B582B0A0
:1050300001900198806A009000985A210022425203
:105040000098522142520098FDF748FE02B080BD00
:105050008DB00390FFE7EFF3108006900698029062
:1050600001200C900C9880F3108803980068016868
:10507000092252019143016002980B900B9880F332
:105080001088FFE7FFE7EFF3108005900598019087
:1050900001200A900A9981F31088039909688A68A7
:1050A00082438A6001980990099880F31088FFE78D
:1050B0000398006E012818D1FFE7FFE7EFF3108097
:1050C00004900498009001200890089880F31088BC
:1050D00003980068016810229143016000980790CE
:1050E000079880F31088FFE7FFE7039880212022CC
:1050F0004250039800210166039881660DB0704705
:1051000080B586B00290FFE7EFF31080039003981C
:10511000019001200590059880F31088029800689E
:10512000016840229143016001980490049880F343
:105130001088FFE702982021C16702980021C1660C
:105140000298FEF7A7F906B080BD000010B588B040
:10515000079002A80021017007980068C64988429C
:1051600001D1FFE700E0FFE707988168026911437A
:1051700042691143C06901430691079800680068BD
:10518000BE490840069908430799096808600798CE
:10519000006840680321090388430799CA681043DF
:1051A0000968486007988069069007980068D849A0
:1051B000884206D0FFE70798006A069901430691E6
:1051C000FFE70798006880680B2109028843069969
:1051D0000843079909688860FFE707980068CD4988
:1051E000884227D1FFE7CC4800680C2108400C28F2
:1051F0001BD8C0467844007940008744061616162E
:105200000E1616160A161616120004A800210170B2
:105210000FE004A8022101700BE004A80421017032
:1052200007E004A80821017003E004A81021017020
:10523000FFE736E007980068B54988422CD1FFE7C0
:10524000B548006803218902084000280FD0FFE715
:1052500001218902884212D0FFE70121C902884258
:1052600009D0FFE70321890288420CD00FE004A88F
:10527000002101700FE004A8022101700BE004A8D6
:105280000421017007E004A80821017003E004A8CC
:1052900010210170FFE703E004A810210170FFE76F
:1052A000FFE7FFE7079800689949884267D1FFE761
:1052B00004A80078082823D878440079400087445F
:1052C000041F081F171F1F1F1B00FDF771F8019017
:1052D0001CE092480068102108400009002803D013
:1052E000FFE79048019002E08D480190FFE70DE054
:1052F000FDF77CF8019009E00120C003019005E072
:105300000020019002A801210170FFE70198002808
:1053100034D0FFE701980799496803224A43904235
:1053200007D3FFE70198079949680903884204D920
:10533000FFE702A8012101701FE00198010E0002A1
:10534000079A52685408002300195941FAF7D3FE0E
:1053500003900398000A03280AD3FFE70398000D7F
:10536000002805D1FFE7039807990968C86003E0A2
:1053700002A801210170FFE7FFE7FFE7BFE0079800
:10538000C0690121C90388425FD1FFE704A8007802
:10539000082827D8784400794000874404080C2363
:1053A0001B2323231F00FDF703F8019020E0FDF7E6
:1053B0000DF801901CE059480068102108400009D0
:1053C000002803D0FFE75748019002E054480190BD
:1053D000FFE70DE0FDF70AF8019009E00120C003A6
:1053E000019005E00020019002A801210170FFE773
:1053F0000198002828D0FFE70198400007994968E4
:105400004A088018FBF7FAF803900398102816D37F
:10541000FFE703A84088002811D1FFE703980F2178
:10542000884305A9088003980E2210404008059A79
:1054300002430A80088807990968C86003E002A847
:1054400001210170FFE7FFE758E004A80078082871
:105450002DD8C046784400794000874404081128BC
:10546000202828282400FCF7A3FF019025E0FCF762
:10547000ADFF019021E0C04600480040F369FFEF16
:1054800026480068102108400009002803D0FFE7E3
:105490002448019002E022480190FFE70DE0FCF76C
:1054A000A5FF019009E00120C003019005E0002064
:1054B000019002A801210170FFE7019800281CD08B
:1054C000FFE70198079949684A088018FBF796F8A2
:1054D0000390039810280BD3FFE703A84088002807
:1054E00006D1FFE703A8008807990968C86003E0B0
:1054F00002A801210170FFE7FFE7FFE7FFE7079838
:10550000002181660798C16602A8007808B010BD26
:1055100000480040004400404C100240001002408F
:105520000024F40000093D0010B586B004900391FA
:1055300002A80021017001920093FFE7049800681F
:10554000C06903990840401A4142484102A90978BC
:1055500088425CD1FFE70098401C002856D0FFE746
:10556000FCF7C2F80199401A0099884204D8FFE775
:105570000098002804D1FFE705A8032101704AE044
:10558000049800680068400700283ED5FFE70498AB
:105590000068C06908210840C008012814D1FFE74D
:1055A00004980068082404620498FFF751FD0498E9
:1055B00084214450FFE70498782100224254FFE7F9
:1055C00005A80121017026E004980068C069012146
:1055D000C9020840C00A012816D1FFE704980068F4
:1055E0000121C90201620498FFF732FD0498842169
:1055F00020224250FFE70498782100224254FFE71E
:1056000005A80321017006E0FFE7FFE796E705A87C
:1056100000210170FFE705A8007806B010BD00006A
:1056200081B06946087000200856002809D4FFE7B9
:10563000684600781F21084001218140024801602E
:10564000FFE701B07047C04600E100E070B582B0EE
:1056500001AA1070009100201056002816D4FFE710
:10566000002301ACE2560320C043024017495258C0
:10567000E3569C07E40EFF25A540AA43009DAD011B
:10568000EDB2A5402A4303405A501AE001AC2378FA
:105690000F200340083B0321C9430B400A4A9B5893
:1056A00000256457A507ED0EFF26AE40B343009ECC
:1056B000B601F6B2AE4033430440083C0C40A35060
:1056C000FFE702B070BDC0461CED00E000E400E062
:1056D00081B0684600210180FFE7684600886328A2
:1056E00007DCFFE700BFFFE70098401C6946088021
:1056F000F3E701B0704780B5052000074021FBF7B4
:10570000B1FF80BD80B502480221FBF7ABFF80BD31
:1057100000040050F0B595B01490032601243046E3
:105720003146224600F0F6FA1498017800253046FA
:105730002A4600F0EFFA12AE30200990307014982B
:10574000007C70701498407CB0701498807CF0706D
:105750001498C07C30711498007D7071284601F057
:105760000DFB06273046394601F0E5FA204601F0E8
:1057700005FB10AE2A20069030701498007E7070E1
:105780001498407EB0701498807EF0701498C07E9B
:1057900030711498007F7071284601F0EFFA30469E
:1057A0003946089701F0C7FA204601F0E7FA0EAE35
:1057B0002B200590307014982021405C7070149854
:1057C0002121405CB07014982221405CF070149844
:1057D0002321405C307114982421405C707128466C
:1057E00001F0CCFA3046394601F0A5FA204601F026
:1057F000C5FA0DAF2C203870149828210791405C11
:105800007870284601F0BAFA02263846314601F08F
:1058100092FA204601F0B2FA0CAF2D20387014989D
:105820002921405C7870284601F0A8FA38463146B4
:1058300001F081FA204601F0A1FA0BAF2E2038705A
:1058400014980699405C7870284601F097FA38461B
:10585000314601F070FA204601F090FA0AAF2F208D
:10586000387014980599405C7870284601F086FAE3
:105870003846314601F05FFA204601F07FFA3F27B3
:1058800030463946224600F045FA1498C17A30462F
:105890002A4600F03FFA05267F213046224600F0D6
:1058A00039FA1498C17930462A4600F033FA1126A5
:1058B00030463946224600F02DFA12200090394633
:1058C000224600F027FA132001903946224600F0C4
:1058D00021FA142002903946224600F01BFA1520C6
:1058E00003903946224600F015FA162004903946F6
:1058F000224600F00FFA14980999415C30462A4676
:1059000000F008FA14983121415C00982A4600F012
:1059100001FA14983221415C01982A4600F0FAF904
:1059200014983321415C02982A4600F0F3F9149848
:105930003421415C03982A4600F0ECF91498352193
:10594000415C04982A4600F0E5F920463946224693
:1059500000F0E0F91498817A20462A4600F0DAF93E
:1059600008980799224600F0D5F91498007A022881
:1059700006D1FFE706202021002200F0CBF912E03B
:105980001498007A002801D1FFE70BE01498007A00
:10599000012806D1FFE706200821002200F0BAF90D
:1059A000FFE7FFE7FFE7062407210122204600F07A
:1059B000B1F91498417A0022204600F0ABF914980E
:1059C0008078012806D1FFE708210020024600F078
:1059D000A1F905E000200821012200F09BF9FFE772
:1059E0001498C078012806D1FFE704210020024660
:1059F00000F090F905E000200421012200F08AF96E
:105A0000FFE714983621405C012806D1FFE7012109
:105A10000020024600F07EF905E0002001210A4640
:105A200000F078F9FFE714984078012806D1FFE7E5
:105A30001D2001210A4600F06DF905E01D2001211D
:105A4000002200F067F9FFE70425F0210124284631
:105A5000224600F05FF914988088FA21FAF7CEFD0B
:105A60000007010E00262846324600F053F90F21A8
:105A70002846224600F04EF914988179284632468D
:105A800000F048F91C251F212846224600F042F963
:105A900014983721415C2846324600F03BF91498AF
:105AA0003821405C012806D1FFE71D200421002297
:105AB00000F030F905E01D200421012200F02AF950
:105AC000FFE714983921405C012806D1FFE71D202B
:105AD0000221002200F01EF905E01D200221012212
