:020000040800F2
:10000000D8080020610200080D340008BD26000851
:1000100000000000000000000000000000000000E0
:100020000000000000000000000000001D34000877
:1000300000000000000000000F3400082134000818
:100040006F0200086F0200086F0200086F020008CC
:100050006F0200086F0200086F0200086F020008BC
:10006000000000006F0200086F0200086F02000825
:100070006F0200086F020008000000006F02000815
:100080000000000000000000000000000000000070
:100090006F020008000000006F020008C12600087F
:1000A000000000006F0200080000000000000000D7
:1000B0006F020008892F0008000000000000000007
:1000C00000F002F800F0BDF80CA030C80838241881
:1000D0002D18671EA246AB4654465D46AC4201D180
:1000E00000F0AFF87E460F3EB6460FCC01263342F5
:1000F00000D0FB1A3343A246AB461847E04C000041
:10010000004D0000103A02D378C878C1FAD85207DF
:1001100001D330C830C101D504680C6070470000BD
:100120000023002400250026103A01D378C1FBD813
:10013000520700D330C100D50B60704710B56E294F
:1001400002D100F075F910BD702902D100F0AFFAAC
:1001500010BD662902D104F061FD10BD652902D1F0
:1001600004F05CFD10BD672902D104F057FD10BDFD
:10017000612902D104F05AFD10BD03681B0A01D3A6
:1001800080231943692902D100F01CF910BD6429AC
:1001900002D100F017F910BD752902D100F012F953
:1001A00010BD6F2902D100F02DFA10BD782902D1BF
:1001B00000F06AFA10BDE92902D100F0C9F910BDBA
:1001C000E42902D100F0C4F910BDF52902D100F0F4
:1001D000BFF910BDEF2902D100F020FA10BDF829B7
:1001E00002D100F05FFA10BD0368DB0901D3802360
:1001F0001943632902D100F042FF10BD732902D1D7
:1002000000F045FF10BDE32902D100F04FFF10BD03
:10021000F32902D100F052FF10BD002010BD1FB520
:1002200000F0B2FF04000020002104F0E1FC401CBB
:1002300060600020002104F0C5FCE0601FBD10B527
:1002400010BD00F079FF1146FFF7E9FF03F062FAF5
:1002500001F00EFB03B4FFF7F2FF03BC01F00AFC50
:1002600006480047FEE7FEE7FEE7FEE7FEE7FEE79B
:1002700003480449044A054B70470000C1000008C8
:10028000D8020020D8080020D8040020D80400207C
:100290001CB50C46064B7B4469460090204600F096
:1002A000E0F804460020694600F0EEF820461CBD48
:1002B000EF01000030B5441C03E00178401C002928
:1002C0000DD08107F9D10B4BDD0104C8D11A914340
:1002D0002940FAD0001B0A0603D0C01E30BD001B07
:1002E00030BD0A0401D0801E30BD0902FCD0401E82
:1002F00030BD00000101010170477047704770B5C3
:10030000044685690068C10601D5302600E0202634
:10031000C00707D070BD62683046A1689047206A68
:10032000401C20626D1EF6D570BD70B5044685690F
:100330000078C00707D170BD6268A168202090478F
:10034000206A401C20626D1EF6D570BD09684A0502
:1003500001D540B27047C905FCD500B270470968A5
:100360004A0501D5C0B27047C905FCD580B27047B7
:1003700070B50C460546012A05D02878800600D5C0
:10038000EA69002302E0012305E05B1C934202D2EC
:10039000E05C0028F9D1A869E618C01AA861286AAB
:1003A000C01828622846FFF7AAFF04E06A68207890
:1003B000A968641C9047B442F8D32846FFF7B5FFFC
:1003C00070BD0000F7B5002575291068009914A6C6
:1003D00011D0FFF7BBFF002802DA404211A608E067
:1003E000009909688A0701D50FA602E0490704D5DC
:1003F0000EA6012501E0FFF7B2FF009F002424377D
:1004000004E000F080FE30313955641C0028F8D13A
:100410002B4632462146009800F057FAFEBD0000F8
:10042000000000002D0000002B0000002000000054
:1004300011680268006A530501D5087009E0D30508
:1004400001D5088005E0130602D5C21705C100E0FA
:10045000086001207047000001694A1C02610878A9
:10046000704700B58FB002910021059105490193B5
:100470007944039111460490684600F025F90FB0C5
:1004800000BD0000E5FFFFFF0A681070521C0A6003
:1004900070470000F7B50446154686B02B487844EF
:1004A000002703C83E460090019111E007986A4674
:1004B0007100415A02A800F005FE411C07D02178C6
:1004C000890603D5E269391891420ED83F18761C87
:1004D0002078800602D5E069B84206DDAE42E5DB51
:1004E00007987100405A0028E0D1A069C01BA061A4
:1004F0002046FFF704FF154878445A3803C8009097
:100500000020019116E041006A460798415A02A86E
:1005100000F0D8FD0590401C0AD0002505E0626877
:1005200002A8A168405D90476D1C05988542F6D3EE
:100530000498401CB0420490E5DB206AC019206298
:100540002046FFF7F2FE09B0F0BD00009A47000018
:10055000F7B5D21D0025D20815A6D200F52905CA87
:1005600011D0002A05DA00214042914111A60A4625
:1005700008E0009909688B0701D50FA602E049073A
:1005800001D50EA601251146009F0024243704E062
:1005900000F05EF930323A55641C02460A43F7D146
:1005A0002B4632462146009800F08FF9FEBD000030
:1005B000000000002D0000002B00000020000000C3
:1005C00070B504460021243408E05507D2086D0FA9
:1005D000303565545D072A43DB08491C15461D4329
:1005E000F3D10468002310A2250708D520252C404C
:1005F0000C4304D0C46901230CA2641EC46100F042
:1006000064F970BD10B5044621461068FFF7A7FED7
:10061000002302462046FFF7D3FF10BDD21DD108AC
:10062000C9000CC9CCE70000000000003000000049
:10063000F8B50F460188090502D5224C7C4402E03A
:10064000204C7C440E3405460021243508E0160772
:100650001209360FA65D6E541E0732431B09491C52
:1006600016461E43F3D1224604780023240705D5FD
:10067000702F06D0002901D00223113200F025F995
:10068000F8BD01231032F9E770B504460D46214646
:100690001068FFF764FE0023024629462046FFF754
:1006A000C7FF70BDD21DD308DB000CCBC0E730B450
:1006B000036820241268234303600823C36130BC0D
:1006C0000023B5E704460000F3B50446002081B0DE
:1006D00020622046E1688847002872D0252802D091
:1006E0006268A168ABE0594F00267F442046E1686C
:1006F00088472028054608DB312D06D27819203896
:100700000078002801D00643F0E7B00701D50420A7
:1007100086430020E0610746A0612A2D0AD02846C2
:1007200004F048FA002827D0B8000019303D0090A6
:10073000856119E00298BA00121902C8916102900D
:100740002046E1688847012F054617D1E069002857
:100750001FDA202086431CE000980A218069484364
:1007600000994019303888612046E168884705467D
:1007700004F020FA0028EFD1012F0AD02E2D08D145
:100780002046E16888470546202006437F1C022F4B
:10079000C3DBA069002803DA4042A06101200643C0
:1007A000F00701D0102086436C2D0BD0682D09D0A6
:1007B0004C2D3CD06A2D38D0742D38D07A2D36D0BF
:1007C00016E040E0E1682F4620468847B8420546DB
:1007D00009D16C2F29D001208002E1680643204610
:1007E0008847054604E06C2F1DD0FF2001300643EA
:1007F000002D28D028464138192803D80120C002EE
:1008000006432035204626602946029A1646FFF701
:1008100095FC002810D001280BD0F61DF008C00070
:100820000830029055E74020E1E78020D5E700201E
:10083000D3E7361D02964CE762682846A1689047C8
:10084000206A401C44E7206AFEBD00007E4500008F
:100850000B4670B5024689078008084319469D0873
:10086000141AA94125090807054308092C1948410C
:10087000250A01060D43010A2C194141200C0D04E3
:1008800028430D0C00194D41002140194D41C0086D
:1008900069070843E908840F8D0025438400241864
:1008A0004D4124196D41121BAB4107E00925ED4371
:1008B0002C11521963410024401C61411C460A2539
:1008C0000026551BB441F1D270BDFFB504460D465C
:1008D00081B0243000902168880604D51022E06998
:1008E0009143216000E00120A84201DD471B00E0A8
:1008F00000270498A1697A191018081AA0612078B5
:10090000C00602D42046FFF7FAFC002608E0039850
:100910006268A168805D9047206A401C761C206256
:1009200004988642F3DB2078C0060AD52046FFF7FC
:10093000E6FC06E06268A16830209047206A401C0F
:10094000206238467F1E0028F4DC07E000986268C9
:10095000A168405D9047206A401C206228466D1EB9
:100960000028F3DC2046FFF7E0FC2078000602D5E3
:10097000022005B0F0BD0120FBE70000FFB50C46EA
:100980001E468FB003CA089009914F007D0D00D11B
:100990006D1E002108460020C0460321099A8905E2
:1009A0000840002A03DA8200801840080840800DC1
:1009B00001280A9002DD0020C0430A9008980743EE
:1009C0000DD0F048F049281848430714189800281B
:1009D0001DD07542291E1DDD0A9842421BE0189861
:1009E000012802D00020302104E00020F24305E07D
:1009F0002154401CB042FBDB30460022189B0021F2
:100A000021540F998B600A60486013B0F0BDBD1B84
:100A10006D1CDFE70A9A002900DA69420BA800F092
:100A2000FBFB0BAB07CB03AB07C30899099800F09E
:100A30005FFC6B4607C30146D4480918002D00919E
:100A40000BDDD24903980A9A49424018002303A9B2
:100A50000390684600F0BCFE08E003990A9A002360
:100A6000081803A90390684600F05CFE6B4607C3B4
:100A70000004000C03D00020C043410800E01046F1
:100A8000189A002A03D00022009215461EE0751E17
:100A900005D4FFF7DDFE303262556D1EF9D5012217
:100AA0000843079602D000227F1C04E020783028FB
:100AB00001D100227F1E002A069787D01EE0112D4B
:100AC00007DAFFF7C5FE303262556D1C02460A4355
:100AD000F5D1084303D00098002819D00EE000217A
:100AE000681E05E0235C625C63542254401E491C6E
:100AF0008142F7DBA81B401E07950690079A1899BC
:100B00000020A0540F98079B069A81600CC07CE7D8
:100B100011260020189059E7D21DF0B50D46044665
:100B2000D10893B0C90003C90C900D9104F02CF8C2
:100B300002460D98C00F01D02D2007E020688107E4
:100B400001D52B2002E04007C00F4001032A0F907F
:100B500001D0072A05DB03462946204600F018FB92
:100B60000EE12078800601D5E76900E006272846D7
:100B7000652D04D0662814D0672D69D12DE00020A2
:100B8000112F009001DB112300E07B1C0CAA03A9AC
:100B900010A8FFF7F3FE1199002610987D1C0E9106
:100BA00042E001203B460CAAC0070B9001200090B8
:100BB00003A910A8FFF7E2FE119D129810990026D4
:100BC00000280E9501D1781C0D18781B02D44642DE
:100BD0007D1C761EE81B00903AE0012F00DA012709
:100BE0000020112F009001DD112300E03B460CAAEC
:100BF00003A910A8FFF7C2FE11993D4610980026E0
:100C00000E91217809070BD40E99A94200DA0D46FE
:100C100003A9012D04DD4A19203AD27F302A06D0DB
:100C2000B84201DA011D04DA012100910FE06D1EC6
:100C3000EFE7002802DC86192D1A03E0411CA942C7
:100C400000DD0D46801B401C00900120C0070B906A
:100C50002078000705D40098A84202DB0020C0439A
:100C6000009069460020C8720B98012102AF03373B
:100C7000C907884225D0022010902B2011900B9894
:100C800000280BDA40420B902D20119006E00B98C3
:100C900000F039FA30317F1E0B9039701099481EE0
:100CA00000291090F3DC0B980028F0D111987F1EDA
:100CB00038702088000501D5452000E065207F1EA2
:100CC000387001A8C01BC01D0B900F98002800D0E1
:100CD000012041190098C01709180B980818A1693C
:100CE000081A401EA0612078C00602D42046FFF7F3
:100CF00006FB0F98002805D06268A1689047206A1B
:100D0000401C20622078C00625D52046FFF7F7FA60
:100D100021E0002E07DB0E98B04204DD03A86268D4
:100D2000805DA16802E06268A16830209047206A77
:100D3000761C401C20620098401E002800900AD1BA
:100D400000F022FAC06862680168405CA1689047C0
:100D5000206A401C206228466D1E0028D9DC07E06E
:100D600062683878A1687F1C9047206A401C206226
:100D70000B99481E00290B90F2DC2046FFF7D5FAAC
:100D8000032042E601FCFFFF104D0000E1DFFFFF02
:100D9000D21DF0B504460D46D0088DB0C00046689F
:100DA00007683146384603F0EFFE0246F00F01D0E7
:100DB0002D2307E02068810701D52B2302E040079F
:100DC000C00F43016846002B037001D0012000E0F2
:100DD0000020032A0A9001D0072A04DB2946204676
:100DE00000F0D6F92DE12078800601D40D2500E031
:100DF000E5697000400D0D2D01904BDA300D00219A
:100E00000B9008460020C046032189050840002EAB
:100E100005DA82008018C20F1018401008408015B3
:100E2000012801DD0020C043A9000023182906D3B2
:100E30009C460A460123183A1B07D34003E00122CF
:100E40001205CA4094460C31202902D33A46203973
:100E500000E032468A40002802DD002A06D119E06F
:100E6000002817D10121C9078A4213D319466346C6
:100E70007F185E41002806D10120C007824202D1BE
:100E8000084687439E430B98310D814202D001985A
:100E9000401C01902088000502D57149794402E088
:100EA0006F49794419396B460A9830221A540A98C6
:100EB0000A7C401C1A54401C0A900198002801DC4E
:100EC000302000E031201872019A0120002A02D05F
:100ED000644BD21804E072003A4302D0614A521CBB
:100EE0000192002D02DC2278120703D56A462E20DB
:100EF000507202200022864694460CE032033601EE
:100F0000120F6D1E8B5C02AA13546246521C401CC9
:100F10009446052A01DA002DF0DC002202AE08E03A
:100F20003B0F3F01CB5C521C6D1E3354401C082A02
:100F300001DA002DF4DC23689A0601D511E0401E89
:100F4000704504DD3218203AD27F302AF7D00028CD
:100F500007DD3218203AD27F2E2A02D11A0700D498
:100F6000401E002D03DD3E223254401C6D1E497C84
:100F700031540199401C002906DA2D21471C3154B7
:100F800001984042019003E02B21471C3154019805
:100F90007D21C900884206DB00F07CFC3030F05532
:100FA0007F1C019101E0642808DB0198642100F0B6
:100FB00071FC3030F0557F1C019101E00A2806DBFE
:100FC00001980A2100F066FC3030F0557F1C019832
:100FD0000A2100F05FFC3031F1550A98A1697F1CAD
:100FE0007A191018081AA0612078C00602D4204689
:100FF000FFF785F9216A6E460A980818206204E016
:1010000062683078A168761C90470A98401E0A9062
:10101000401CF5D12078C00602D52046FFF76FF9B5
:1010200002AE09E03078761C3E280DD06268A168D7
:101030009047206A401C20627F1EF3D22046FFF7B3
:1010400074F90DB00320F0BD206A4019206203E05E
:101050006268A168302090476D1EEDD3F8E700006C
:10106000F03D000001FCFFFF10B54369002B02D0EA
:10107000C046C04601E0FFF77BF9012010BD1278A1
:10108000014624310A7000224A700122ECE71168FF
:101090000022D243E8E710B54369002B02D0C046D6
:1010A000C04601E0FFF7F6F9012010BD12880146A5
:1010B000243182840022C2840122ECE711680022DC
:1010C000D243E8E7F8B516460C46054600F054F85A
:1010D0000368FF200230C05C012807D0FF2C0FD826
:1010E000185D00280CD001202C70F8BDFF3332466B
:1010F000214608331868C71828460023B847F8BDAA
:101100000020C043F8BD01468008081A02091018E3
:10111000020A1018020C1018C0088200121852009F
:10112000891A01E0401C0A390A29FBD270470000E5
:1011300000487047080000207546FFF7F9FFAE46EB
:10114000050069465346C008C000854618B020B562
:10115000FFF78EF860BCB64600260027C0C5C0C5A4
:10116000C0C5C0C5C0C5C0C5C0C5C0C5403D490893
:1011700049008D467047000010B500F005F8001DCD
:1011800010BD00BF6D3A00000048704728000020E5
:10119000F8B51F46044601230068DB02032601461A
:1011A0001840072A05DB002801D017A506E017A57F
:1011B00004E0002801D016A500E016A51020814308
:1011C0002160A069C01E002FA06101D0401EA06157
:1011D0002046FFF794F8002F09D038466268A168CE
:1011E0009047206A401C2062C01C206206E0206AF2
:1011F000FAE762682878A1686D1C9047761EF8D2DD
:101200002046FFF792F8F8BD4E414E006E616E0029
:10121000494E4600696E6600F7B516468AB03348F7
:1012200078446C4603467C33C06F5A689B680DC493
:101230002E487844763003AC0DC80DC43720C00169
:10124000081837211B3000F025FB05460C46803D71
:101250001B3C02D56442012000E0002000270990D9
:1012600010E0E0070CD00C20204978437944324646
:101270004C3941186846012300F054FA6B4607C305
:1012800064107F1C002CECD1184F7F442E3F16E0D9
:10129000E80712D02001C0190EC8069108930792E2
:1012A0000068F04201D1981908903246012306A93E
:1012B00003A800F037FA03AB07C36D10641C002DC0
:1012C000E6D10998002806D032466946012303A8D2
:1012D00000F07EFA05E001233246694603A800F0DB
:1012E00021FA0A9B07C30DB0F0BD0000803A000050
:1012F000034640000A4610B5400D0BD00121C90736
:101300000F24A40200191C0364082143540D214337
:10131000D20207E000210120F2E7D40F4900214367
:101320005200401E0029F8DADB0FDB07184310BD1E
:10133000FFB50D46144685B04868516803F00CFCB3
:1013400000910190A868A16803F006FC0291039047
:10135000A868616803F000FC029A121882420292A7
:1013600001D2012000E00020019A0B18D2180028B9
:10137000019202D08A4202D903E08A4201D20120BE
:1013800000E000200099081800906868A16803F048
:10139000E3FB029A12188242029201D2012000E07D
:1013A0000020019A0B18D2180028019202D08A421C
:1013B00002D903E08A4201D2012000E00020009916
:1013C0000818009028682168400049004008490832
:1013D0004018FA49471814E001994000C90F084322
:1013E0000090019802994000C90F084301900298AB
:1013F00003994000C90F08430290039840007F1EE4
:10140000039000980028E7DA0898002801D0EC4EF5
:1014100000E00026B74201DA012000E000200028A9
:1014200004902AD0F71BF806C00E15D0029B20218D
:10143000091A039A8B401A430392029A019BC240F5
:101440008B401A430292019A009BC2408B40009944
:101450001A430192C14000917B110DD06F460320C9
:10146000C11A03D500218200B95003E08A0081002F
:10147000BA587A50401EF3D537460398029900288F
:1014800000D00120014308980291002808460CD0A2
:10149000002800D001200199019A49050843012143
:1014A000D20AC902D202019200E001210E9B012260
:1014B000D207012B02D0002B03D013E0002807D164
:1014C00020E0904204D890420CD1019B0B4209D0FD
:1014D000019B5918019105D10099491C009101D136
:1014E0007F1C009200280DD0102108460020C04625
:1014F0000498002806D00F98002803D00821084639
:101500000020C04628682168019B009A4840C10F0E
:101510000598C90739430EC009B0F0BDFFB587B0C3
:10152000099A0898089953689268406889689646AD
:101530000022039317469446089A12685300099AAA
:101540005B081268520052089A1A9E4BD4180A9AE5
:10155000002A01D0352200E0402206920022012319
:1015600015460492DB07059324E0002D05D175464E
:101570000346039E4D1BB34109D375466646039B44
:10158000491B049D9841059B7519AC465F41634614
:101590003B4308D0059B049EDD0776082E435B087D
:1015A0000496059301E0521E641EC50FED0749180D
:1015B0004041521C069B9A42D7DB002D04D1754650
:1015C000039A6B1A824101D203200CE0039A0B4666
:1015D0006B404240134303D0014303D0012002E09B
:1015E000022000E000206146019100210097029155
:1015F0000A99002905D0614640020143704B0191D0
:1016000002E08007002302909C4201DA012000E002
:10161000002007003AD01A1BD006C00E15D0029D3C
:101620002021019C091AC5408C402543029C8C4016
:1016300000D001242543019C0295009DC4408D40AB
:1016400000992C430194C140009154111DD06D4666
:101650000221002202290CD10320001B07E00028F0
:1016600004DB8600AE59002E00D00122401C032866
:10167000F5DB081B02D588002A5004E080002858BA
:1016800010438A00A850491EE3D51C460A9800283A
:1016900002980CD0002800D001200199019A490538
:1016A00008430121D20AC902D202019200E00121BD
:1016B000109B0122D207012B02D0002B03D013E094
:1016C000002807D11FE0904204D890420CD1019B22
:1016D0000B4209D0019B5918019105D10099491C71
:1016E000009101D1641C009200280CD01021084602
:1016F0000020C046002F06D01198002803D00821F2
:1017000008460020C04608980999019A009B006885
:1017100009684840C10F0798C907214382600AC081
:101720000BB0F0BD00B585B0019300920A460146AA
:10173000002302A8FFF7FCFD02A807C805B000BD02
:10174000FFB50A461F4685B0079901930123009112
:10175000014602A8FFF7ECFD02990398049ECA0F08
:101760004900D20700920F22490892028C1A0021E8
:10177000002800DB0C46450013486D08844214D352
:10178000079A002A04DA441E0026104DF64302E0B0
:1017900004460D460E46102108460020C046002F84
:1017A00003D0042108460020C0462005E90A08436A
:1017B000009908436905F20A1143ADE602C0FFFF34
:1017C000013C0000FF3F0000FF070000FFFFFF7F1C
:1017D00000B585B0019300920A460146002302A895
:1017E000FFF79CFE02A807C8A8E7FFB50A461F46F8
:1017F00085B00799019301230091014602A8FFF7E4
:101800008DFE02990398049ECA0F4900D2070092E8
:101810000F22490892028C1A0021002800DB0C4696
:10182000450011486D08844214D3079A002A04DA4F
:10183000441E00260D4DF64302E004460D460E46BA
:10184000102108460020C046002F03D0042108467E
:101850000020C0462005E90A0843009908436905AD
:10186000F20A114358E60000FF070000FFFFFF7F68
:1018700010B50446C046C0462046FEF7EBFC10BD3E
:10188000002203098B422CD3030A8B4211D300237D
:101890009C464EE003460B433CD4002243088B4257
:1018A00031D303098B421CD3030A8B4201D39446E4
:1018B0003FE0C3098B4201D3CB01C01A52418309D7
:1018C0008B4201D38B01C01A524143098B4201D391
:1018D0004B01C01A524103098B4201D30B01C01ABC
:1018E0005241C3088B4201D3CB00C01A5241830836
:1018F0008B4201D38B00C01A524143088B4201D363
:101900004B00C01A5241411A00D2014652411046C2
:1019100070475DE0CA0F00D04942031000D3404237
:1019200053409C46002203098B422DD3030A8B426D
:1019300012D38901FC2212BA030A8B420CD389010B
:1019400092118B4208D3890192118B4204D38901F1
:101950003AD0921100E08909C3098B4201D3CB012F
:10196000C01A524183098B4201D38B01C01A5241E4
:1019700043098B4201D34B01C01A524103098B42E8
:1019800001D30B01C01A5241C3088B4201D3CB00D3
:10199000C01A524183088B4201D38B00C01A5241B6
:1019A000D9D243088B4201D34B00C01A5241411A8D
:1019B00000D201465241104663465B1001D34042BB
:1019C000002B00D54942704763465B1000D340426C
:1019D00001B50549002802DC491C084000E0084622
:1019E000C046C04602BD00BFFFFFFF7F024670B584
:1019F0000A4392072AD11E4DEE0104C808C9541BA0
:101A00009443344017D0D0B2D9B2401A21060143D2
:101A100010D190B299B2401A210401430AD11002A8
:101A20001902000A090A401A2102014302D1100ECC
:101A3000190E401A70BD9A42DFD010BA19BA884206
:101A400001D9012070BD0020C04370BD02780B7821
:101A5000401C491C002A09D09A4207D102780B7811
:101A6000401C491C002A01D09A42EFD0D01A70BD08
:101A70000101010101491820ABBEFEE7260002006A
:101A800070474343514330B55C18010C130C0D46AD
:101A900092B25D4380B251432C19054655430A0C5E
:101AA00009044D1962415843010C00044019514189
:101AB00030BD70B5054610460C4618430ED00021C7
:101AC0000846891A984127DA00210846491BA04197
:101AD00018DA2846214600F03FF870BD002C03DAE2
:101AE00001230022DB0707E000210846491BA04133
:101AF00002DA0022D243530810461946C046C046B7
:101B00002A4627E000216842A14100F025F8002480
:101B100040428C4121461AE000210846491BA04161
:101B20000CDA21460020524298410346284600F034
:101B300013F8002440428C41214670BD00205242DF
:101B40009841002103466842A14100F005F80024B5
:101B500052429C41234670BDFEB5044610460D46D8
:101B6000184373D0A6468C460020A41A01469D4116
:101B700067D36646002701243D46B61A9D4102D32D
:101B800013463A462124654676462F04360C3E43DA
:101B90002D0CB61A9D4104D3150C1B042B431204C3
:101BA0001034654676462F06360A3E432D0AB61A8D
:101BB0009D4104D3150E1B022B43120208346546C7
:101BC00076462F0736093E432D09B61A9D4104D3A8
:101BD000150F1B012B431201241D65467646AF07E6
:101BE000B6083E43AD08B61A9D4104D3950F9B003D
:101BF0002B439200A41C65467646EF0776083E43C9
:101C00006D08B61A9D411AD392185B41641C16E008
:101C10000018764665464941B71A9D4101910090EA
:101C200009D36046B11A98418E46844600980199BE
:101C30000025401C6941DD0752082A435B08641EE9
:101C4000E6D57246634603B0F0BDFFE72046284361
:101C500007D00020C0430146C046C04622462B465E
:101C6000F1E700200146F7E7F0B5F94D0C091E0930
:101C70002C402E402F468BB0A7437DD0B543FCD0DF
:101C8000002E7AD0002CFCD00D465D40ED0F254390
:101C9000AC1BFF25AD0464190894C502440DC902AC
:101CA0002143500DDC0204430120C00701430443DB
:101CB000D2020191200C110C00958C4601042346A0
:101CC0008B430A9161460904E24D8A430991010A56
:101CD0007D4449198039097805464D4301266D1820
:101CE000F605751B6943C90C640B891C4C436418C9
:101CF000B5012C1B250C2E04B4434C434D43210C41
:101D0000691889090591009DE90701D00121C907DA
:101D100004912C4601996708CD072F434C08059D77
:101D2000E10B4D432D0C29466646754302950D4641
:101D300045432E46029D7D1BB44100950D465D43F3
:101D400001942C0C2F040D465543AE462D0C3D43FB
:101D5000029503947546049C2D04641B049406D2DA
:101D6000029C039D641C002675410395029401ACFE
:101D700070CC009F7D1B01E03EE162E1B4410904AB
:101D80000095079101940599A4086143090C0C463C
:101D90004443650BE7040C4666467443A646640B51
:101DA0003C43039502947446049DE4042C1B049464
:101DB00006D2029C039D641C002675410395029483
:101DC00001AC70CC009F7D1BB44101940C465C4378
:101DD0000095650FE7000C465443A646640F3C434C
:101DE000039502947446049DE4002C1B049406D2CF
:101DF000029C039D641C002675410395029401AC6E
:101E000070CC009F7D1BB441AE09AF06049DC90094
:101E1000AD092F43049DA406AD060495079D3443E8
:101E200069180791059DE10B4D432D0C2946664627
:101E3000754302950D4645432E46029D7D1BB441D8
:101E400000950D465D4301942C0C2F040D4655431F
:101E5000AE462D0C3D43029503947546049C2D041B
:101E6000641B049406D2029C039D641C00267541E9
:101E70000395029401AC70CC009F7D1BB44101948A
:101E80008C050694079C890A611800950791019CAE
:101E90000599A4086143090C0D464543680BEF04FE
:101EA0000D46644665436C0B3C43049FED047D1B6B
:101EB000AC4602D20025641C6841009E019D371B80
:101EC00085410846584301950C46460FC5005443CA
:101ED000600F28436546E4002C1B02D20025401CFD
:101EE0006E41019D3F1AB5412846BD098006284331
:101EF0008446A009BF064E020699A4067618074339
:101F0000079D002068410A99079019430020099B0A
:101F100000906046FF1913434041E20F64003A43CA
:101F2000A4460446D71A8C41A04203D90120009050
:101F300020463A46C70F941840416246D20F2243CA
:101F4000644664000494009CBE466400D71AA4460C
:101F5000044602978C417746002F01D1A04204D954
:101F60006046401C8446029A2046C40FA646941838
:101F70004041049A0546D20F224364466400D31AB6
:101F80008D417146002901D1A84202D928461A463E
:101F9000641C10430122002800D016436102002077
:101FA000079B891904465C410223002C02DB491877
:101FB00013466441089DCE0A2D145D194B05670533
:101FC000E10A2C050D1908993E43C9076940002B09
:101FD00008D0934006D30022761C5141002B01D13A
:101FE000760876001C4A002D43DB154241D0AA43F7
:101FF0003FD030460BB0F0BD06180D464D41174C92
:102000007642AC411AD395181C465C41134A6D4286
:10201000A24113D3012252054C00D4420AD15C00E4
:10202000D4420BD04B4002D592021143E2E7490063
:102030004908DFE75940C90FC90718E000200849DF
:10204000D8E7054801420DD10342F7D0F2E700007E
:102050000000FF07643000000000F07F0000E0FF98
:102060000000F87F114859400143C0124140002050
:10207000C0E70123089A9B069A4205DC0322520717
:102080008918C90FC907B5E7052252078918074AF9
:102090001143D2125140ADE770B515461C460246B9
:1020A0000B4628462146FFF7DFFD70BDFFFFFF7F8F
:1020B0001F22030C02D10F22000402D0030E03D012
:1020C00004E00020014670470002083A030F01D1E6
:1020D0000001121F830F01D18000921E002801DB36
:1020E0004000521E120551184205C01241181046F8
:1020F0007047C10FC90700D0404201229207114327
:10210000D6E701218907D3E710B50B1E01D02023A4
:1021100001E0011E2BD00C0C01D10904103B0C0E68
:1021200001D10902083B0C0F01D109011B1F8C0FC3
:1021300001D189009B1E002901DB49005B1E04467A
:10214000DC4021431C05A4182022D21A90404B05E4
:10215000C20AC90A1A430919830501D14308184064
:102160001623984002D30020521C4141104610BD56
:10217000CA0FD20703D00B46002140429941024BBF
:102180001A43C1E7004ABFE70000D041F0B58B4CCD
:102190000F09254689B0BD437BD01D092646AE43B5
:1021A000FAD00E465E402740F60F3E43254071D0E0
:1021B00024012142FBD0FF24AD19A4042D1B03955B
:1021C00001252D05DB02DB0AC9022B43C90A29437D
:1021D0001E010901040F130F050121431701880B8C
:1021E000820391432D098C46A90B1E438A03954314
:1021F000B30B9A0396433F09BA0B9403A743029685
:102200002E467E430497B6464E19D7190C460196C2
:10221000544305977E43371B7646BF1B3601B646AF
:10222000BE0B361900967646BC043719009C01D3C4
:10223000641C00946400002F01D001263443029EE8
:10224000049F754366467E430496760034196E00FB
:1022500034190094029C019E1C196643751BAE46FE
:10226000069465464519059C05956C43594375468A
:102270000891691A0191049E01465143A41B0491DF
:10228000611A009C0791E10605D061090122114302
:1022900002E072E06EE06109089D00272C0A2D061D
:1022A0006918049D7C412A0A2D066918019D624126
:1022B000AC0DAD026D185441079A910D920255195B
:1022C0006141029A644658435443069B059A5A4317
:1022D000121A131B9A0E9B015B187A41010B000521
:1022E000C3185141220A200644195A419A4200D289
:1022F000491C01204002814203D315230226F643E4
:1023000002E014230326F6432020C51AA9401746ED
:10231000AF40DA400A4320460399D84009147318A5
:1023200019055118039A3843D2075140AC4009D0DF
:102330000122944006D30022401C5141002C01D1BF
:10234000400840001E4A934212D30122039892068D
:10235000904207DB0520400709181A480143C012C4
:10236000414004E0032040070818C10FC9070020BE
:1023700009B0F0BD0020F107FAE705180C464C4102
:1023800011486D42A04115D394181A465A410E487F
:10239000644290410ED301204A004005824209D395
:1023A0005A00824206D35940C90F084AC907002083
:1023B0001143DDE700200649DAE700000000FF07CF
:1023C000FE070000FFFFFF7F0000E0FF0000F07F3E
:1023D0000000F87FF0B589B00A68002A00D1B2E0A9
:1023E0000F465A49884201D0062100E0052100919C
:1023F0000124002508950394059701900DE03243D0
:1024000053490A603A681146E140AD1C089B1B1D08
:102410000893641C002900D195E0611E039E07917A
:102420008E403240EED0029203221046A840C043B4
:1024300079680B46049213405F1E012F069011D855
:102440000246019887681740059AD268AA403A4325
:102450008260CA06D20F079FBA404768B743174346
:10246000476004E0032B019801D1059F1CE0C2687E
:10247000069E3240059FBE68AE401643C660022BE2
:1024800012D11C21089A11400F238B40079AD208C1
:1024900092008218166A9E433B698B403343136255
:1024A00079680B46049A1340AB400268069E32409E
:1024B0001A4302608903890FA4D0264B1A680121B0
:1024C0000A431A600C27089A17400F22BA40079E49
:1024D000049B9E43204BF35893431F4AB618052292
:1024E0001207904208D01D4A904206D01C498842EB
:1024F000009902D1022100E00021B9401943316066
:1025000013488368059F7968CA0202D5029E334347
:1025100001E0029EB3430E4A9360D3688A0201D55C
:10252000334300E0B3430A4AD36053688A0301D5BA
:10253000334300E0B343064A53601268C90300D531
:102540005DE7B2435CE709B0F0BDC046001C005037
:102550000004014034100240080001400004005013
:1025600000080050F0B582B04023794AD55C412480
:10257000165D202E47D1012D45D022251555422428
:102580001025155500245464518501214E06D6624C
:10259000506246485063508D000A04D0FF201085D9
:1025A0000806434D05E0558D1585D06AEDB22D0422
:1025B000EC35176B122F01D1264613E0D76AAA2FEC
:1025C00001D1002608E055277F020197D76A0091C4
:1025D00001998F42009900D1D662578D0B4EFF2F83
:1025E00000D8D06AD454730D334C5C4012685368E1
:1025F000234028433043C90788431843506010687C
:10260000F4210143116002B0F0BDC04600240080F7
:10261000F0B540224E498C5C4123CD5C202D43D146
:10262000012C41D02124CC5442231024CC5400242A
:102630004C6401234B85CC6248621C484863488D3A
:10264000000A04D0FF2008851806194D05E04D8DBD
:102650000D85C86AEDB22D04EC350E6B112E01D13B
:10266000264610E0CE6AAA2E01D1002605E0CE6AE9
:1026700055277F02BE4201D15E06CE624F8D0D4EC0
:10268000FF2F00D8C86A8C54720D0B4C5440096857
:102690004A68224028433043DB0798431043486090
:1026A0000868F22202430A60F0BDC0468129000892
:1026B000EC00FF0000200080009C00FCFEE7000012
:1026C000F0B581B0224803689C6999691A6864056D
:1026D000640F36D080242240564256410124250200
:1026E0000F462F4078427841194F304304D1786C1F
:1026F000012606437E64DD61554255414805264664
:1027000000D52E46002E05D1A0027D6C08262E4352
:102710007E64D861554255418805214600D5294639
:10272000002905D16002796C02220A437A64D861DB
:10273000796C0B20014209D0054800F021F801B066
:10274000F0BD436B002B01D00148984701B0F0BDAC
:10275000EC010020806A816B002901D000228A638D
:1027600001464031C26B002A01D0002393634A78AE
:10277000602A01D120224A7000220A700263704749
:1027800070B502464032557800249470484BC362BD
:102790004485436C0B4343645378283D022D05D890
:1027A00028210B40282B25D0F22324E05178036800
:1027B0001968FE25A94319609969890700D59C62AB
:1027C0009969C90703D1996901250D439D61517824
:1027D00060291ED0202151709D69AD0619D59D69D3
:1027E000ED0605D51025DD61456C04262E434664B3
:1027F000D9610EE0422354780C40282C01D0B42437
:1028000000E004241C4303681D68A5431D6051704B
:10281000284C4463046B816B00290BD0212C01D020
:10282000112C07D10C4624341D686D0413D50125E5
:10283000AD030DE0C16B002910D0222C01D0122C69
:102840000CD10C4624341D682D0404D50125ED035C
:102850001E68AE431E606378012B08D15178602951
:1028600001D12021517000211170016370BD002041
:102870001070114A8A636278022A12D10A681368BA
:102880000E25AB43136013680125AB4313600A6C3C
:102890004B6C1C261E402B46B34053602070657065
:1028A00001E00420C8630846FFF754FF70BDC0462E
:1028B0000000FFFFB92B000855270008B0B50146FE
:1028C000403100228A704C7820234B70F423DB4384
:1028D000212C09D11124046342634C78282525401A
:1028E000282D0BD09B1C0AE01224046342634C7811
:1028F00028252540282D02D1B03300E0B2330068EE
:1029000004681C4004600A70B0BD0000B0B50168E6
:102910000C680246403200239370650403D42404FB
:1029200005D5164C00E0144C0D6825400D60547818
:10293000292C0BD128245470212505635578254076
:10294000F420C043282D10D0801C0FE054782A2C8E
:1029500010D1282454702225056355782540F42091
:10296000C043282D02D1B03000E0B23013700A68A5
:1029700002400A60B0BDC046FFBFFFFFFF7FFFFF00
:10298000F0B583B00D4604464020215C012902D1F8
:10299000022003B0F0BD16462746403701233B70A6
:1029A00011462940CA0617D44A0728D48A0736D4C4
:1029B0002A0641D530403FD0608D0028019303D0D6
:1029C000208D002800D1A8E02068406880013CD418
:1029D0002046FFF773FF3CE020681021C161616C65
:1029E00004220A4362648169890701D5002181625A
:1029F0008169C9072ED18169194381612AE0606A22
:102A00002168496A0170606A401C6062208D401E26
:102A10002085608D401E6085042085431AE0206873
:102A2000616A0A788262481C6062208D401E20859F
:102A3000608D401E60850DE048060BD5608D002836
:102A40007BD040212046019301E040212046FFF742
:102A500097FE019B2E40B0065BD501932168202094
:102A6000C8617A787B78212A07D128221340F42282
:102A7000D243282B0DD0921C0CE0222B0FD17A7858
:102A800028231340F422D243282B00D1B032122342
:102A900001E0B23211230E6816400E6023634A68CB
:102AA000444B13404B60002262633F4BE362EB06F2
:102AB00005D51023CB61636C04261E4366647B78C6
:102AC0006D0705D5602B03D14B6ADBB20293029BE5
:102AD0008B699B0700D58A628B69DB0703D18B6901
:102AE000019D2B438B61616C7B78602B0DD000299D
:102AF0000BD17978212902D07978222909D17870EF
:102B000022633A70B878BA7003E0616C2046FFF730
:102B100037FE0020387003B0F0BD206842682149BC
:102B20001140628D120A15D0FF22228542681F4B88
:102B300013405918019B1E4A1DE020684168890115
:102B400088D4E16A184A914227D1990342680A431E
:102B500042607FE7628D00922285E36A124A9342C7
:102B60000CD14268114B1340009AD2B21204511892
:102B7000C918019B5A06891841606BE7019AD20770
:102B8000E36A9343009AD2B212045118194342687F
:102B9000064B13400B4343605BE720460193FFF76E
:102BA0008DFE56E7FF0300000000FFFF009C00FCC5
:102BB0000000FF0100E800FEF0B587B004464020A9
:102BC000205CE36A012802D1022007B0F0BD16465E
:102BD0002746403701200690387005910E40B00618
:102BE00000D4D6E0039322681568787820210291FA
:102BF000D161F7210140F420C0430490212905D080
:102C000022290AD1049B083B222101E00498831F5A
:102C1000787810681840106021630698C1035068E6
:102C2000084350605068D34B03405360906980075D
:102C300001D5002090629069C00703D19069069B7E
:102C40001843906106988303680408D40D420FD09E
:102C5000106888431060E56B002D06D108E010680D
:102C600098431060A56B002D02D0286840686085ED
:102C7000059D68070ED5606A526A0270606A401C42
:102C80006062228D0025002A04D0501E2085608DB0
:102C9000401E60850195608D002803D0606C042281
:102CA000024362640025BD706563606C00282ED00D
:102CB000616C2046FFF764FD78782828039B68D173
:102CC000AD48E0622563029878706563BD70019835
:102CD000400712D5606A2168496A0170606A401C29
:102CE0006062208D002808D0618D491E6185401EDC
:102CF0002085606C042101436164787878782068CD
:102D00000168FE22914301601021C16140E0E06A48
:102D1000994A904205D17878029878702563039B90
:102D200036E022681068BD70184204D10842039B47
:102D300006D0934901E09149039B10680840106058
:102D4000787829280AD12820787021212163797880
:102D50000140282910D00498801C0FE078782A2898
:102D600011D1282078702221216379780140282907
:102D700005D10498B03001E00498B2300490106896
:102D80000499084010607C48E062029878702563DE
:102D90003D70F00617D4700728D4300778D4B007F8
:102DA00000D4D2E0608D002800D1D2E02068616AB2
:102DB0000A788262481C6062208D401E2085608DEA
:102DC000401E6085C1E0608D002831D02068102150
:102DD000C161606C0421014361646A48034200D010
:102DE000B3E0616C2046FFF7CBFCAEE0608D0028BD
:102DF0000CD0606A2168496A0170606A401C606298
:102E0000208D401E2085608D401E6085608D0028CD
:102E100000D09AE05848834200D196E020680268CA
:102E20000021B970530463D4120465D5544A60E09C
:102E30007878282846D106984006834242D14E48E9
:102E4000E06200202063202179706063B8700599EA
:102E5000490712D5616A2268526A0A70616A491C80
:102E60006162218D002908D0628D521E6285491E43
:102E70002185616C04220A4362647978797821683B
:102E80000A68FE239A430A6038701020C8615CE02B
:102E9000787828210140206828294DD181698169ED
:102EA0008268C368E368022B05D1090CD2094A4045
:102EB0005107890F54D0002139700168B82291431D
:102EC000016042E0797820681022C26129293CD152
:102ED00029498B4239D08169890701D50021816256
:102EE0008169C9079BD18169069A1143816196E77F
:102EF000224A0368134003607A78292A0CD12822D9
:102F00007A702123236339707B781340F421C943FD
:102F1000282B16D0891C15E07A782A2A15D1282268
:102F20007A702223236339707B781340F421C943DC
:102F3000282B07D1B03105E0002139700821C1618B
:102F400003E0B23102680A4002600020387007B026
:102F5000F0BD0C480342F8D12046FFF7D7FCF4E758
:102F6000A16C491CA164A16C0229EED10021A164CD
:102F7000E3E7C04600E800FE0000FFFFFFBFFFFFE1
:102F8000FF7FFFFFFFFFFFFEF0B587B0D648066862
:102F9000F369376820200697049007407942794109
:102FA0000120C20214462F341C40203C651EAC4157
:102FB0000C43B5685BD002970396059011460F311C
:102FC0000B42069F08D01046C849394001222C46C2
:102FD0001440611800D098E010223E463946114056
:102FE0004C424C411946104611404F424F41BE4998
:102FF000096E0129059A114600D13946002911466A
:1030000000D1214600293AD037460124A1050D40C0
:103010006E426E41D902114600D53146002900D1D9
:10302000E9E080213940484248411906114600D55F
:1030300001460029AC4800D1B4E1402007407D4260
:103040007D41590600D52A46002AEB4D0DD1EFF3FC
:10305000108184F310882A6813688343136081F316
:1030600010880020E8660498E86707B0F0BDE248E1
:10307000816E0029F9D0E048884707B0F0BD0646C8
:10308000039806628168490600D5B9E05A22DA48F9
:10309000835A5821415A825A002AE6D09942E4D0F4
:1030A0000693EFF31083012282F310880924640150
:1030B00005682F68A7432F6083F31088EFF3108310
:1030C00082F310880468A5689543A56083F310888F
:1030D0008023049CC450002383660366EFF31083AF
:1030E00082F3108802681468B443146083F3108874
:1030F000022242660268C44B9A420698B5D1C14A80
:103100001268002AB1D0081A6DE10190110239400D
:103110004D424D411E46D907059B1946039800D0E4
:103120002946002906D102628421B34B5D5815431C
:103130005D50059B65426541B107194600D529469A
:1031400000290BD1022101628421AB4B5B58009313
:103150000425009B1D43A84B5D50059B65426541BE
:103160007107194600D5294600290BD104210162B7
:103170008421A14B5B5800930225009B1D439E4B6D
:103180005D50059B02990C436542654131071C4621
:1031900000D52C46002C07D1082101628424964BCF
:1031A0001D590D431D51059B91060F407C427C41EA
:1031B00001990E4200D02346002B0692029D07D1B2
:1031C0000199016284218C4C6358049A1343635023
:1031D000842489490959002900D146E7049F3E40CB
:1031E0006B426B41002E00D0059305980028824D5C
:1031F00066D003986BE021050398016207B0F0BD2B
:103200007D4F796F0C686568A9B2002900D12CE761
:103210005822BB5A994200D327E75A203D522468CE
:10322000A40600D5D1E00690EFF31083012080F3CF
:103230001088734C20343D6839462F6827402F6032
:1032400083F31088EFF3108380F310880C68A5686F
:103250008543A56083F31088EFF3108380F3108813
:103260000C68A5684027BD43A56083F310888023C0
:10327000049CCC5000230B66EFF3108480F310887D
:103280000D682F68B7432F6084F310884D6F2C466C
:1032900024346678022E00D08FE02E6837681946F5
:1032A0000E239F4337603368834333602B6C6D6C10
:1032B0001C262E400546B5405D600B4660707EE0E2
:1032C000A96E0029039802D0284688472868295902
:1032D00028220A40816840200140891808D1002036
:1032E000285107B0F0BDC046400200202001000474
:1032F0003E46EFF31081069F87F3108809225201A2
:103300002B681C6894431C6081F31088EFF31081D4
:1033100087F310882A689368BB43936081F3108811
:10332000296E01290BD1EFF31081069A82F31088E0
:103330002A6813681024A343136081F31088802146
:103340006E5000212966A9662A689268520600D448
:103350008BE6EFF31082069B83F310882B689C6842
:1033600084439C6082F31088686F002800D17CE65B
:1033700002462432214B83635378022B17D1036812
:103380001C680E25AC431C601C68069EB4431C6080
:10339000036C446C1C2525403446AC405C601170C5
:1033A000567006E0C16E002900D064E65DE6042197
:1033B000C16300F03BF807B0F0BD0420E863237060
:1033C0000D4FBB5A38680390069802227A66395A24
:1033D000894A0398904200D047E688480068002850
:1033E00000D142E6581A81B2854801F005FB01F090
:1033F00079FA07B0F0BDC046400200202D34000825
:10340000DFFEFFFFCC02002000480040FEE77047CF
:1034100080B501F0F1FA01F065FA80BD7047000057
:10342000BB480168491C01607047C046806A01467C
:10343000523100220A81522142527047F0B581B0C8
:103440000268014658318B888C6A222C0DD1526A51
:103450001340426D13804B885B1E4B80921C42656B
:103460004A88002A07D001B0F0BD906908210143C5
:10347000916101B0F0BDEFF31083012282F3108857
:103480000924640105682E68A6432E6083F3108822
:10349000EFF3108382F310880468A5689543A56054
:1034A00083F3108820238B620024846644660568B9
:1034B000514EB5420ED06D682D020BD5EFF310853D
:1034C00082F31088960607683B68B3434A4E3B6018
:1034D00085F31088036E012BC5D10466EFF31083CA
:1034E00082F310880468256810229543256083F3D1
:1034F00010880068C369DB0600D50262B042B2D111
:103500003E4800680028AED009883D4801F074FAB2
:1035100001F0E8F901B0F0BDF0B581B002680146F4
:1035200058318B888C6A222C0ED1526A1A40436D16
:103530001A704A88521E4A80426D521C42654A885F
:10354000002A07D001B0F0BD9069082101439161C4
:1035500001B0F0BDEFF31083012282F3108809243B
:10356000640105682E68A6432E6083F31088EFF38C
:10357000108382F310880468A5689543A56083F3DF
:10358000108820238B6200248466446605681A4EE6
:10359000B5420ED06D682D020BD5EFF3108582F386
:1035A0001088960607683B68B343134E3B6085F36B
:1035B0001088036E012BC5D10466EFF3108382F3EC
:1035C00010880468256810229543256083F31088CD
:1035D0000068C369DB0600D50262B042B2D1074879
:1035E00000680028AED00988054801F005FA01F00E
:1035F00079F901B0F0BDC04600480040CC0200207F
:1036000068000020F0B583B00668F4690C4000251E
:103610008C4202D1284603B0F0BD0295019078306B
:1036200000900120C5023A4C03E0F7690F408F4239
:1036300039D02768BF1A9F4232D837687F07F4D540
:10364000F7693F0732D4F7692F42EED03562EFF3C6
:103650001080012282F3108809214901019E3368FC
:103660001C688C431C6080F31088EFF3108082F399
:10367000108831688B6893438B6080F31088336EB9
:1036800003202021012B39D1EFF3108382F310881E
:10369000326814681025AC43146083F310882DE061
:1036A000032003B0F0BD029803B0F0BD08213162E1
:1036B000EFF3108280F3108809235B01019E3468C8
:1036C00025689D43256082F31088EFF3108280F314
:1036D000108833689C6884439C6082F31088326E43
:1036E000012A0BD1EFF31082012080F31088336898
:1036F0001C681025AC431C6082F31088009B2022BC
:103700009A6000223266B2661A70D96003B0F0BDCA
:10371000D002002000B59FB0A74A106840210F9149
:10372000084310607D20C100A44800681491FEF792
:10373000A7F8401E010EA24C1CD1A2494860A24825
:103740000268A24C224003239B07D2180260002289
:103750008A6007220A6001682140994CC9180160FB
:103760009B4801210170A06A0843A0620807E16A32
:103770000143E162974B1868974908400127FA0214
:103780001192801818603A02186815921043186058
:10379000606C0840606421680C2013900140206830
:1037A0000429129704D00C2924D13904084021D1CE
:1037B00022460C3A10681F200002214608390B6887
:1037C000834301252803181808601068284308233C
:1037D0009843106024682007830F80487B441B793E
:1037E0005B009F4401183D1D280409680904490F26
:1037F000884035E020460C3801683943082291435F
:10380000016077490A6803685B0719D40B689B1A43
:10381000022BF8D986E01068C0061BD571481FE05E
:10382000A102090F704B5B5C2102890F491C644C9B
:103830002468E40311D41068C0060DD46B480CE072
:103840001F200002214608390A68824338031018F5
:1038500008602FE0654803E062485843FEF710F81F
:10386000574909680906090F614A515CC840534924
:1038700008601499FEF704F8411E5448814251D85B
:10388000534803784F4C61604F490F684F4A1740C7
:1038900003229207BF180F600027A7600727276041
:1038A000129F002B3ED00B68484C2340444C1343DE
:1038B0000B600570606C38436064494B1868616C3C
:1038C000890704D41968091A0229F8D92AE03A07A5
:1038D000E06A104002D1E16A1143E16210923D4971
:1038E0000968159A11420FD13A4D2968159A11436A
:1038F00029601968159D374A12682A4204D11A684E
:10390000521A642AF7D90DE0616C159A114361646B
:103910007D021968F24E626C2A4205D11A68521A69
:10392000B242F8D900BFFDE7002804D1012000070A
:10393000E16A8143E162204800682068F021884301
:1039400020600C3C2068400700D4D4E01C49086883
:10395000384302220E92904308601868184909689B
:10396000139A1140042905D01968091AE74A9142AF
:10397000F4D9C0E010480068C00744D10B94072276
:1039800010020F4C2168814321600D92D002216802
:103990008143216021680807800F104F800002A238
:1039A000125838469746C046F5390008253A0008AF
:1039B000613A0008313A000800200240000000206F
:1039C0000C10024010E000E020ED00E0FFFFFF00DF
:1039D000D402002000700040FFE7FFFF00127A00D1
:1039E000D002002000093D00B84D00080024F4007A
:1039F000C14D000801200004214608390968090466
:103A0000490F88402CE0F1490868B84308601868FD
:103A1000BE4AEE490968C907B0D01968091A91422F
:103A2000F7D968E00B980068C00611D5F34817E095
:103A30008802000FF24A105C0902890F491C2268B3
:103A4000D20307D40B9A1268D20605D4F24A04E0D6
:103A5000F14805E0784301E0EE4A5043FDF710FFDE
:103A60000A9721680906090FF34A515CC840F349D7
:103A700008601499FDF704FF411EF14881423AD8CD
:103A8000F0480378F04F7960F0490C68EC4A144034
:103A9000032214929207A4180C600026BE600D9CAD
:103AA0003C60002B27D00B68F24F3B4013430B6068
:103AB00012990170F048C06A109A104005D1EE4981
:103AC00013460A46C96A1943D162EC490968159A36
:103AD0001142EB4B11D1E94C2168159A1143216039
:103AE0001968159FE54A12683A4206D11A68521AB7
:103AF000642AF7D950E100BFFDE70B990968012757
:103B0000DD49496CC90315D5DB4934460E46496C7D
:103B1000FA04736C13437364736C93437364149A61
:103B200012040B46934373642646D54B159A1142F3
:103B300000D026E17A04D04D696C06921143696485
:103B4000002804D101200007E96A8143E962149842
:103B50008002296C81432964286CCA4908403903D2
:103B6000401828640E981D901B901C961E96159860
:103B70001A90286A38432862286A384016901698A6
:103B800005200C90109707071AA93846FEF722FC6B
:103B90007F200006296881430D98000608182860D8
:103BA000B94CE1204002B94D11992162666225604D
:103BB0006060A660E6602661139A6261A661E661B4
:103BC000E06F00283146089630463346099607963E
:103BD0002E46109D31D17820002121542E46A64A30
:103BE000106A012528431062106A28401A901A981A
:103BF00006201E9014981D901C910C201A900220F3
:103C00001B901AA93846FEF7E5FBA8049A4AD16A28
:103C10000143D162FF2000029D498A6882438A6085
:103C2000680735469B4908602668A0680790E068E9
:103C3000089023696269A169E069049724270597C0
:103C4000E7673768AF433760079C23431343356802
:103C5000914F2F401F431390074337607368894A81
:103C60001340089803437360884DAE4202D0864AE1
:103C7000106A0990099801430B221202B36893431A
:103C80000B43B36085498E427D4B7B4C109F03D024
:103C9000AE4209D10A200E90216C0E98C1408907CE
:103CA000090F7FA2515800E010213A040E92FF0341
:103CB000AE42139822D0B84245D1082900D9A1E1DB
:103CC000384649007944898849008F440B009B019C
:103CD000A7009B0187009B019B019B01FE00C04642
:103CE000881300005E48006821684905490F704A42
:103CF000515CC840002800D0E7E06BE1082900D9FA
:103D000080E1880002A1095838468F4688130000D8
:103D1000353D000805400008D13D00080540000879
:103D20009D3D0008054000080540000805400008CA
:103D3000A33F00084A48006821684905490F5C4ACA
:103D4000515CC8402BE1082900D95BE138464900A5
:103D50007944898849008F4408005501AF00550116
:103D60006700550155015501CD003D4800682168A7
:103D70004905490F4E4A515CC840002800D0B9E0BF
:103D800028E119684B4C3C4A526C2A4200D0D1E6DB
:103D90001A68521AA242F6D900BFFDE72168080747
:103DA000800F800001A21258F4489746BD3D0008DC
:103DB000D13D0008A33F0008133F00082046083803
:103DC00000680004410F0E988840EAE0002002409D
:103DD0000B980068C00675D50E48E2E02168080718
:103DE000800F800001A21258E6489746053E000861
:103DF0001D3E0008CB3E0008353F000800093D008D
:103E0000B84D00082046083800680004410F0E989D
:103E100088405AE000093D000024F4000B98006837
:103E2000C00651D5D84850E021680807800F8000AF
:103E300007A21258D3489746C14D00080000002041
:103E4000FFFFFF00D402002010E000E020ED00E0C2
:103E5000653E0008B93E0008F53E00085D3F0008D9
:103E6000000000202046083800680004410F0E982A
:103E700088403FE0FFFFFF000C1002400070004050
:103E8000D0020020FFCFFFFF40020020004800408A
:103E900014E400E000E100E0F369FFEF00440040BB
:103EA0000000000004000000020000000800000004
:103EB000D14D0008881300000B980068C00618D583
:103EC000B14817E0B1486CE0B0484000B0494968DB
:103ED0004A081018FDF7D4FCAE4B0246103A0E9972
:103EE00010398A4200D38DE001400007400F08439B
:103EF0006FE0A648A64949684A081018FDF7C0FCBB
:103F0000A44B014610390E9A103A91427AD280B2EF
:103F10005FE08802000FA04A105C0902890F491C6B
:103F200022680E9B1A422DD10B9A1268D20631D408
:103F3000964A30E08802000F974A105C0902890F08
:103F4000491C22680E9B1A421ED10B9A1268D20697
:103F500001D500F080FC8D4A00F07EFC8802000F45
:103F60008D4A105C0902890F491C22680E9B1A4277
:103F70000DD10B9A1268D20601D500F077FC834A66
:103F800000F075FC7F4A06E07E4A00F065FC7D4A41
:103F900000F06DFC7C4A5043FDF772FC7D4B00281D
:103FA00018D07B494A681499514388422AD3110397
:103FB000884227D8010E54080002002300195941F5
:103FC000FDF7CAFD734B75494118491C744A91426B
:103FD00018D2F060039700256D4CA566E566606A0F
:103FE0000028109F5DD0C10711D1810717D4410768
:103FF0001ED4010724D4C1062AD4810631D4410637
:1040000037D446E0002062498866C8669DE0716842
:10401000069A9143A26A0A4372608107E7D5614913
:10402000491E72680A40E16A114371604107E0D598
:10403000B90472688A43216B114371600107DAD5B4
:10404000F90372688A43616B11437160C106D4D56C
:104050005549491EB2680A40A16B1143B1608106FF
:10406000CDD57903B2688A43E16B1143B160410653
:104070000FD5390572688A43236C1A4372608B42EC
:10408000444B06D11499490572688A43616C114307
:104090007160000605D5F80471688143A06C08437F
:1040A00070600920C002716881437160B0682A2184
:1040B0008843B060306838433060842025501A68E7
:1040C000306800071AD513957905314C374B2046D7
:1040D0001546FFF797FA00280DD0EFF3108087F30D
:1040E000108821680A6880239A430A6080F3108848
:1040F0007C34139D24E026682A46139D30684007CF
:1041000025D5B905224C294B2046FFF77BFA00281C
:104110001DD0EFF3108087F310882549E031226825
:1041200013680B40136080F31088EFF3108087F35F
:10413000108821688A68BA438A6080F310888034C6
:10414000782013490D542020206000BFFDE7202275
:104150000F49CA67802402920A5178200D540D66D7
:104160004D6614A000F0DCFC00F0BCFB174B196896
:104170000807800F02A2105C4000874400127A00FA
:104180002932573800127A0000093D000024F4005B
:1041900040020020D0020020B84D0008FFFCFFFFC5
:1041A00000FD0F000000FFFF00F0FFFFFFFFFF0119
:1041B000FFFDFFFF48656C6C6F2C46726F6D2053DE
:1041C000544D33324C303331210A00000C10024080
:1041D0001846083800680004400F0E9981400A9183
:1041E00024E00B980068C00613D5FC4812E0264670
:1041F0008802000FFA4A145C0902890F491C1A68E8
:104200000E98024209D10B9A1268D20607D4F548DB
:1042100006E0F4480A90109F08E0F34800E0EF48F9
:104220006043FDF72DFB0A90109F3446EFA00A99DA
:1042300000F076FCF14EF2480F21BB0733600B9182
:104240007160B560F0603922B05C002818461392A6
:1042500022D1382000213154EA4F386A022210431B
:104260003862386A10401A901A980C981E90149868
:104270001D901C911B9201271A97E3481AA90E94CE
:104280001C46FEF7A7F8139A23460E9CDD49C86A20
:104290003843109FC862306802210E91B154026801
:1042A000984205D0D949884202D0D949884204D1E0
:1042B00070218A43B168114300E01146BA07904269
:1042C00005D0D24A904202D0D14A904205D1149AE8
:1042D0001202914332690A4300E00A46A24371691F
:1042E00011430160F168C1627168816247613E21DA
:1042F000079177543A210691775431463A314F70FD
:104300008F70CF701399775438210991715CC14C2B
:10431000012920D009997554016A21400162016A7E
:1043200042681C46C369426060221A4313239A43C1
:104330002346B84CC261159AF332C2637A029143A4
:104340000162C16908220A43C261C1690422914322
:10435000C161C169C161016A21400162016A0162F2
:10436000016AAD4A114203D1016801229143016003
:104370003C2177540891715C01291DD108990E9A4E
:104380007254016A21400162016A159A1143016267
:1043900001218A07904205D09C4A904202D09C4A53
:1043A000904206D182681C460D9B1A402346062A7D
:1043B00002D002680A430260984E994A9948A5C6FD
:1043C00035607560B560F56035614124103E315D42
:1043D000002939462FD100200F997054894F386A2F
:1043E000012528433862386A28401A901A981E9589
:1043F0000E981D901C95149840021A9012201B9044
:104400001AA9049814941C46FDF7E4FF6805F96A9C
:104410000143F962109F84480168844A1140214396
:10442000149C0160E805824908600B98030625CEBC
:1044300031689A430C3E059B33550368BB430360C8
:10444000026183687B4A1340836021270129039B13
:1044500000D0BB0215971D438560022901D1119937
:1044600041604168744B0B434360C1681140C160B7
:10447000316972690A43B16909021143C160F16986
:10448000326A0A430260016801220A430260002581
:1044900075640298305535634227F55519A80570A3
:1044A00018A8D0210170FEF7B3F8F74A1068116818
:1044B000091A0329FBD30A9519A801210B91FEF7CC
:1044C00051F8F14A10681168091A0329FBD319A899
:1044D0000078582800D0D2E017A888210170FEF794
:1044E00097F8E94A10681168091A0B29FBD3EC4DBB
:1044F000284610301A21FEF735F8E34A1068116893
:10450000091A6529FBD3305D20283AD130688269C9
:104510000F99715C4B1E59425941039B1A42129AE2
:1045200000D10A46002AD84A2BD114941599315546
:104530001021F155002171640E9A7285D44AF262FD
:1045400016AA7262D74A7263728DFF2A03D9CD4AC6
:10455000541CFF2202E0D04A541C728D0F9BF15470
:104560004168D14B0B40D1B2090421431943CF4BD1
:104570000B43436032850168F2220A430260C24A5B
:10458000149C10681168091A0B29FBD3305D202890
:1045900069D1306882690F99715C4B1E594259414B
:1045A000039B1A4200D1129112990029B64A5AD19E
:1045B000159931551021F15500217164042272853D
:1045C000B34AF2621AAA7262B64A7263728DFF2A05
:1045D00034D9AC4A531CFF2233E0C04600093D00E9
:1045E000B84D00080024F40000127A00467265718C
:1045F0003A20256420487A0A00000000AC0100201F
:10460000E70300000C1002400004005000140140B9
:1046100000080140FFFEFFFF11110000EC01002027
:104620004E38B0000054004014E400E0FFFFFF00EB
:1046300000E100E0FF7FFFFF00800002964A531C6C
:10464000728D0F9C31554168974C0C40D1B20904D2
:1046500019432143954B0B43436032850168F22295
:104660000A430260884A10681168091A0629FBD3B8
:10467000102029182A5A4A83801C2828F9D100F0D2
:104680001DFA00F01BFA0B9800050590844F834C2F
:1046900000F014FA2146FF31788D4143FA78120375
:1046A0003B791B019A18BB781B091393D318DB08BD
:1046B00059182C23FB5E4B43D9122E23FB5E1209A3
:1046C000101A4043000B5843801345187848056082
:1046D00078482C18E61732203A5ED3172046314628
:1046E000FDF7CFF91490020D0903881815902046A4
:1046F00031461194224612963346FDF7C2F906461A
:1047000034203A5ED31730461091FDF7BAF90A0605
:10471000000A80180912149A12031018159A5141B0
:104720000B9AD20389183A8E0A9F3B46FDF7A9F9E6
:10473000C8174C101494159004430C9845438035C9
:104740002812FDF7D6FC3A465B4BFDF78DFA024680
:104750000B46002C6FD0099851490E920A5E0F4605
:104760000D93D31711981299FDF78BF90446C00BDE
:1047700049040D1806983A5ED31730461099FDF794
:1047800080F96204101869413622BA5ED2008A1894
:104790004249F1317B784B4339783E4C6143C9182B
:1047A000059B139C1B1B5B185908DB07181A9141CA
:1047B00000231393414AFDF764F9149A159BFDF702
:1047C00078F904460D46C804610B081869130246BF
:1047D0000B46FDF756F90F9ABA5ED317FDF751F95C
:1047E000CA01400E80184F1606196F4107982C49D0
:1047F0000A5ED31720462946FDF743F94A03C00C49
:104800008018C914301879410A120906000A4018A4
:104810000899234F7B5E190FDC17240161181B01D7
:10482000C0185141FDF7A4FC139A254BFDF7AEFCCF
:104830000D9B0E9A02E038463946194F00900191BF
:1048400020A000F06DF9104A1068144C1168091A84
:104850006529FBD31CE70D4A5043FDF711F80A4BBD
:10486000002801D0FFF731FBFFF7B4FB074A5043A4
:10487000FDF706F8044B002801D0FFF73BFBFFF7DC
:10488000A9FBC046FFFFFF00D002002000093D0049
:104890000000FFFF00F0FFFFFFFFFF01FFFEFFFF33
:1048A000E800002081290008009800FCEC200000AE
:1048B000C8020020000CFEFF00005940350C00002B
:1048C0000000703F54454D503A20252E326620E2BC
:1048D00084832C50524553533A20252E3366205062
:1048E00061200A0070B53F483F490160802371484C
:1048F000C158202974D1856801210A03954214D139
:104900000469002C02D1394CE40769D158240353BF
:104910000166002444665A254353344D4565846638
:104920000469002C13D1644C19E058240353016628
:10493000002444665A2683532C4E466584660E072F
:10494000B54206D0002D0AD10469002C06D1FF24FF
:1049500005E00469002C01D03F2400E07F24842579
:10496000002646515C2544532224C450EFF31083A3
:1049700081F310880468A5680D43A56083F310884F
:104980008468544003691C4301D01A4A00E0184A65
:104990008266EFF3108281F3108805682E68002C80
:1049A00008D0002B06D009235B011E432E6082F342
:1049B000108804E020231E432E6082F31088026ECC
:1049C000012A0DD1026810231362EFF3108281F3E4
:1049D0001088006801681943016082F3108870BD77
:1049E00070BDC046CC0200201134000868000020D1
:1049F0003D34000819350008F0B581B02D4CE26F48
:104A0000202A0DD100280BD0002909D00122120341
:104A1000A368934206D12269C30710D0002A0ED1A1
:104A200001B0F0BD84220023A3505022A1522122C4
:104A3000E267394A126800925222A1520DE08423A3
:104A40000026E6505023E1522123E367324B1B68D6
:104A500000935223E152002A29D00027064652250E
:104A600009E038881449084021688862BF1C002684
:104A7000605B401E6053605B00280ED080213223B3
:104A80002046009AFEF7BEFD00280CD1002EE8D08B
:104A9000307821688862761CEAE706484021322394
:104AA000009AFEF7AFFD2020E06701B0F0BD074699
:104AB000D5E7C04640020020FF01000010B584B0D9
:104AC00003A8FF21017002A8F3210170FDF7A0FDEA
:104AD000114C20682168091A0329FBD303A801217E
:104AE000FDF740FD20682168091A0329FBD301A8BE
:104AF000F7210170FDF78CFD20682168091A032950
:104B0000FBD306480621FDF72DFD20682168091A10
:104B10000B29FBD304B010BDD0020020E800002018
:104B200083B0B0B581B0044605A80EC005AA0092B6
:104B3000084D28462146FBF7ABFB2846FBF7BAFB9E
:104B400081B22846FFF758FF01B0B0BC01BC03B0EA
:104B50000047C0462C010020F8B5040C8BB2264655
:104B600082B25E43104658430D0C370C36040021C8
:104B70008019164679416E43370C36048019264653
:104B800079416E438919F8BD4900CA0202431000F9
:104B900000D004204A0D01D001221043044A490DDF
:104BA000914201D102210843012800D1052070471C
:104BB000FF07000030380A2801D20120704700208A
:104BC0007047000010B500290AD00878002807D0E7
:104BD00005487844FCF70AFF002801D0002010BDEA
:104BE0000248784410BD00002A02000022020000A2
:104BF00010B500290AD00878002807D00548784465
:104C0000FCF7F4FE002801D0002010BD02487844D3
:104C100010BD00001A0200001202000003B4024896
:104C20007844844603BC6047F5BEFFFF03B40248E6
:104C30007844844603BC60475DC1FFFF000000006C
:104C400000000000303132333435363738394142D4
:104C500043444546403058003031323334353637DE
:104C6000383961626364656640307800040000088A
:104C7000000000000000000200010000103031328E
:104C8000333435363738396162636465667870006D
:104C90003031323334353637383941424344454672
:104CA0005850000002400000000000A0000000007A
:104CB00005400000000000C8000000000C4000009B
:104CC0000000409C00000000194000000020BCBE15
:104CD0000000000034400000BFC91B8E000000042B
:104CE000B5400000504BCFD06607E2CF0100000076
:104CF0006C4100003E8251AADFEEA73401000000A3
:104D0000D9420000DCB5A0E23A301F97FFFFFFFF59
:104D1000B4450000FD25A0C8E9A3C14FFFFFFFFF78
:104D2000FF3F00000000008000000000FF3F000087
:104D3000000000800000000080807F7E7D7C7B7A08
:104D40007978777676757473727171706F6E6E6D37
:104D50006C6C6B6A6A6968686766666564646363DD
:104D600062616160605F5F5E5E5D5D5C5C5B5B5A63
:104D70005A595958585757565655555554545353D0
:104D800052525251515050504F4F4F4E4E4D4D4D2B
:104D90004C4C4C4B4B4B4A4A4A4949494848484776
:104DA00047474746464645454544444444434343B4
:104DB0004342424242414141030406080C1018207C
:104DC0003000000000000000000102030406070894
:104DD000090000000001020304000000284F000841
:104DE000000000200800000004010008304F000807
:104DF00008000020D0080000200100081C0000006E
:104E000043000000F8FFFFFF0C0000000E00000050
:104E10000F0000002E000000100100004300000001
:104E2000F8FFFFFF004040404040404040404141CB
:104E3000414141404040404040404040404040406F
:104E40004040404040050202020202020202020209
:104E50000202020202202020202020202020200206
:104E60000202020202029090909090901010101096
:104E70001010101010101010101010101010101032
:104E800002020202020288888888888808080808C6
:104E90000808080808080808080808080808080892
:104EA00002020202400000000000000000000000BA
:104EB00000000000000000000000000000000000F2
:104EC00000000000000000000000000000000000E2
:104ED00000000000000000000000000000000000D2
:104EE00000000000000000000000000000000000C2
:104EF00000000000000000000000000000000000B2
:104F000000000000000000000000000000000000A1
:104F10000000000000000000000000000000000091
:104F20000000000000000000000020000000000061
:04000005080000C12E
:00000001FF
