:020000040800F2
:10000000C8060020D50000082D21000809150008A9
:1000100000000000000000000000000000000000E0
:100020000000000000000000000000008521000822
:1000300000000000000000002F21000889210008B6
:10004000E3000008E300000831210008E300000895
:10005000E3000008E3000008E3000008F5090008D9
:1000600000000000E3000008E3000008E3000008CF
:10007000E3000008E300000800000000E3000008BF
:100080000000000000000000000000000000000070
:10009000E300000800000000E30000080D15000860
:1000A00000000000E3000008000000000000000065
:1000B000E3000008091D0008000000000000000027
:1000C0000348854600F00EFA00480047B5220008B4
:1000D000C806002003480047FEE7FEE7FEE7FEE70C
:1000E000FEE7FEE7C1000008421C0178401C002921
:1000F000FBD1801A7047F0B51FB40646002082B0CD
:1001000005464024019100901BE0019922460F46CC
:10011000304600F028FA049A059B801A994110D3C2
:1001200010461946224600F00EFA361A8F41019702
:10013000224601200021009F00F005FA38184D41A9
:1001400000902046641E0028DFDC019B00982946B1
:10015000324607B0F0BD0000F0B5074608465840EB
:1001600087B0C00F049048000E4659004008490867
:10017000BC1A884105D2384631461E4617460B4602
:1001800002465800400810434CD0300D0390400503
:100190005900400D490D0590401A0290402872DA2E
:1001A00018030121000B09050843019004980092EF
:1001B000002805D001995242002088410092019008
:1001C000029840210A1A0199009800F0BCF90546EE
:1001D0000C466B4607CB00F0D7F9C0197141039A62
:1001E0000E0D0023D71756401A467A40164344D0C6
:1001F000049A002A2DD0029A012A039A15DC1205CE
:10020000C01A914101263605001C7141D20F059E8E
:10021000D2070093019202962A46234600F0D4F9B1
:1002200007B0F0BD38463146FAE71605224A0F46B8
:10023000B218C01AB74101210905001C4F4100182E
:100240007F41114618187941E20F10436D1964413E
:1002500013E0E2076D0815436408C2071443039ACC
:1002600001261205C01A91413605001C7141CE07C6
:10027000400830434908C01851412A46234600F03F
:1002800096F9CDE7FFE7049801224000C117121A42
:1002900000238B4104983146C417381AA141EEE778
:1002A00030B40124E407634030BC55E730B4012486
:1002B000E407614030BC4FE70000E0FFF0B51FB439
:1002C00088B00B990998002448400999C00F49004B
:1002D00049080991C0070B990090490049080B9102
:1002E00009990898A64608431CD00B990A98084318
:1002F00018D0099801244000420D4800410D09988A
:1003000024050003000B204309900B980003000B09
:1003100020430B9050181C494018002201901446AD
:10032000104605E0002001460DB0F0BD032801DABB
:10033000034600E003239C46C11A0AAE0AE05F00B0
:1003400008ADED5B4F00F75B7D430027AA187C41A9
:10035000491C5B1E6145F2DD410004AB5A52210489
:10036000120C0A43240C401C0828DFDB0198029081
:100370000099704601910090059B049A0799069890
:1003800000F022F9D0E700000DFCFFFFF0B50C46AD
:100390005C4085B0E40FE40703944C000026640839
:1003A00059009446490802460296224321D06246EB
:1003B0000A431ED06200570D4A000E032303550D59
:1003C000012402462C492405781B1B0B360B4018D0
:1003D00023432643614600901C46501AB44103D380
:1003E0000098401C009002E0921800985B410028A1
:1003F00003DA0020014605B0F0BD00200121090507
:100400000746864611E064461D46141BB54106D3D7
:100410006546521BB341744607430C43A646CD07BD
:1004200040084908284392185B4105460D43EAD12C
:100430001046184313D06046194650407140084397
:1004400006D06046101AB34106D20122002306E00E
:1004500000220123DB0702E00122D243531000985F
:1004600074460105381C6141029C039D00196941D5
:1004700000F09DF8BFE70000FD0300004A000903FB
:100480000123090B1B0519430A4B10B5520D9A4263
:1004900002DA0020014610BD064B34339A4203DCD9
:1004A0009A1A00F060F810BD034BD21800F04BF818
:1004B00010BD0000FF030000CDFBFFFF10B50029B9
:1004C00004DB0124E40740428C412146002B04DB7D
:1004D0001C460123DB075242A341994200D19042BE
:1004E00010BD0000064C0125064E05E0E36807CC70
:1004F0002B430C3C98471034B442F7D3FFF7E4FD8C
:10050000687300088873000870B50446002903D09A
:1005100000202022012310E0002801D00020C04349
:10052000C046C0460DE02546D5408D4205D30D4658
:100530009540641B1D46954040191546521E002DDE
:10054000F1DC214670BD10B5202A04DB0146203ABB
:100550009140002010BD914020239C1A0346E340A7
:100560001943904010BD10B5202A04DB0846203AFC
:10057000D040002110BD0B46D340D0402024A21A09
:1005800091400843194610BD10B5202A06DBCB1751
:100590000846203A1041C1170B4306E00B461341B1
:1005A000D0402024A21A91400843194610BD10B52E
:1005B000002B08DA0024401C614192185B411A4369
:1005C00001D14008400010BDF0B51FB482B005460F
:1005D0000C0003D0084606F0D1F902E006F0CEF98F
:1005E00020300246009021462846FFF7ACFF049BCE
:1005F000059A04460F4618431143084314D0184681
:1006000010431BD0009840210A1A18460599FFF79D
:10061000AAFF05460E46009A05990498FFF793FF36
:10062000084305D0012004E02046394607B0F0BD5C
:100630000020C11705430E432C43374300990E9801
:100640006305401A7905E40A00220C43FD0A0A30CA
:1006500002D500200146E9E70105101969410C9C0B
:100660000D9D00196941FFF7A2FFDFE7F8B50024EF
:100670002546002904DA0E46012400214042B141FA
:10068000002B04DA1E46002352420125B341FFF736
:1006900032FD8C4617461E46AC4203D00025404230
:1006A0008D41AC46002C02D0002657429E41614647
:1006B0003A46334601B0F0BD30B5434351435C1870
:1006C000010C130C0D465D432C1980B292B2054605
:1006D000554351430A0C09044D1962415843010C1A
:1006E00000044019514130BDF8B502464A40D40FCC
:1006F00042004B0052085B089A4202D2024608466A
:1007000011464A0023D0C30D4A00DDB2120EAD1AC5
:10071000202D35DA49020126490AF6058A19002CEE
:1007200000D0524220214F1B1146B9402A411018D7
:10073000C20D9A4221D0002C17D0012D08DCDA0519
:10074000801AD20F8019D207DBB200F019F9F8BD78
:10075000DA05801A012340001B06C01880185A428F
:100760008018CA0F1043490007E04908C207114327
:10077000DA05801A80194008801800F0F9F8F8BDF1
:1007800061000122511A001BF7E70122D2075140F4
:10079000AAE70122D2075040A6E7024670B54A40B8
:1007A000D30FDB0740002DD04A002AD0010E140ED3
:1007B000000212020919400A520A8418E50104468F
:1007C0005443000A120A2E045043A4194219200C63
:1007D000C543AA18120C0125AD03521C521912046C
:1007E0007F39240400D0521C104301D44000491E1C
:1007F000C2B20C06C0092018401C4008802A02D052
:1008000003E0002070BD40084000002900DA00200D
:10081000184370BD70B502464A40D50F40004A00EB
:10082000ED0740085208002814D0002A12D0C40D49
:10083000D30D41020120C0055202490A520AE41AAE
:10084000091812187D34914201D3641C00E049005C
:10085000002C01DA002070BD0023914201D3891AD7
:100860000343400849000028F7D100290AD09142EB
:1008700002D10121C90705E0914201D2012101E025
:100880000121C943E005C018401900F071F870BD9E
:1008900010B500229623114600F072F810BD00003A
:1008A0000EB5C217C10F5040CA0740180021054BB2
:1008B0000293019200910A460B46FFF785FE03B0B2
:1008C00000BD0000330400000EB50549029100216F
:1008D00000910A460B460191FFF776FE03B000BD7A
:1008E000330400003EB5CA17CB0F002450405140DE
:1008F000C0186141DA07054B029301920094224629
:100900002346FFF761FE03B030BD00003304000052
:10091000C20FD207400040080BD0C10D0723DB01F6
:10092000C91840020905400A1143C2084007114393
:100930007047002001467047CB0FDB07490010B518
:10094000490802460A4307D00A0D07240903E401B7
:10095000090B121B002A01DC002010BDC900440F46
:100960000C43C100E018D205801800F001F810BD5A
:10097000002904DA401C490001D1400840007047BA
:1009800070B40024050C05D11024000402D1002904
:1009900021D01124050E01D100020834050F01D128
:1009A0000001241D850F01D18000A41C002801DB5B
:1009B0004000641C002908D020252E1B0D46F54060
:1009C000A14000D001212943084301061B1B000A56
:1009D000DB1D02D5002070BC7047DB05181880189D
:1009E0000029F8DA401C4900F5D170BC40084000ED
:1009F0007047000080B504480168090603D58021CE
:100A0000016005F0E1FB80BD14040140F0B581B048
:100A10005024264D285D012831D028688168490777
:100A20001AD423490F6823493940234A1268234EB8
:100A3000234B9A4215D1826A8A438262780304D595
:100A40000120C005316881433160B80315D501200C
:100A50008105306888430FE0686D20210143696596
:100A60000BE0826A0A43826278030AD4B80304D591
:100A7000012081053068084330600020285501B00E
:100A8000F0BD0120C0053168014331600D480068A8
:100A90000D49FFF739FD0A214143009100980028D4
:100AA000E4D00098401E0090F8E7C04618010020EE
:100AB00080020020FFFF0700840200200827014079
:100AC000011000000000002040420F00F0B589B086
:100AD0000A68002A00D1B2E00F465A49884201D084
:100AE000062100E0052100910124002508950394CA
:100AF000059701900DE0324353490A603A68114668
:100B0000E140AD1C089B1B1D0893641C002900D10B
:100B100095E0611E039E07918E403240EED0029216
:100B200003221046A840C04379680B460492134044
:100B30005F1E012F069011D8024601988768174062
:100B4000059AD268AA403A438260CA06D20F079F2C
:100B5000BA404768B7431743476004E0032B019846
:100B600001D1059F1CE0C268069E3240059FBE6809
:100B7000AE401643C660022B12D11C21089A1140C8
:100B80000F238B40079AD20892008218166A9E4360
:100B90003B698B403343136279680B46049A1340D8
:100BA000AB400268069E32401A4302608903890FF7
:100BB000A4D0264B1A6801210A431A600C27089A10
:100BC00017400F22BA40079E049B9E43204BF358C8
:100BD00093431F4AB61805221207904208D01D4AB7
:100BE000904206D01C498842009902D1022100E0BF
:100BF0000021B9401943316013488368059F796823
:100C0000CA0202D5029E334301E0029EB3430E4A5C
:100C10009360D3688A0201D5334300E0B3430A4AA4
:100C2000D36053688A0301D5334300E0B343064AD7
:100C300053601268C90300D55DE7B2435CE709B0B1
:100C4000F0BDC046001C00500004014034100240BA
:100C5000080001400004005000080050F0B587B0C3
:100C6000064641257B4F7B5D0220202B05D10029C4
:100C700005D040243B5D012B06D107B0F0BD01201B
:100C80004102796407B0F0BD0396059501200490F8
:100C900006943855CF4C2568386883691B043DD4C9
:100CA0002223059EBB5542230293069EFE54002636
:100CB0007E647A854268684B1A40684BD21842605D
:100CC000796201967E63069E816989070DD4284664
:100CD00000F086FD00281ED12068411B3868652978
:100CE000F2D381698907EFD40CE00399C9B281621C
:100CF000816949062AD42168491B6529F8D381698D
:100D00004906F5D4786C2021084378640598395455
:100D10000020029978540020B85581E0049BDB0341
:100D200002E086691E42BBD02668761B1A2EF8D3D5
:100D300086691E42F5D0786C2021084378640598B6
:100D40003954002006997854422168E0798D090AC7
:100D500007D0FF21398541683F4A1140021D4148B3
:100D600009E0798D398542683B4B1A40C9B20904C4
:100D70001143021D3A480143EC200143116011E088
:100D80007A8D3A855968384E3140D2B216040E43F6
:100D900001214A061B1D164306431E60069E798DDF
:100DA000002940D03B689A69520707D42268521B39
:100DB000652AF8D39A695207F5D427E07A6A5B6A04
:100DC00013707A8D521E7A857A6A521C7A623A8D35
:100DD000521E3A857B8D002BE1D01204DFD13B6897
:100DE0009A69120607D42268521B652AF8D39A69B9
:100DF0001206F5D40AE07A8D120AC1D0FF223A8594
:100E00005E6819490E401B1D184AC4E7786C202102
:100E100008437864059839540020B85502997854ED
:100E2000049807B0F0BD284600F03AFF0028049867
:100E3000059C00D021E738682021C16142680C4B35
:100E40001340436039550199B95502983954084601
:100E500007B0F0BD74010020009800FCEC200100F8
:100E6000002400020024FF01009C00FC0000FF01A0
:100E700000E800FEF0B587B0044603689806534DBD
:100E80001AD4980738D458073FD4180707D5032039
:100E90000003291F0A68824320691043086000216B
:100EA000180600D48EE0032080042A1F13688343B1
:100EB00060691843106085E0069401210C072846FC
:100EC000183802682240059202D10268224302606B
:100ED00004940E023E4A1468E40521D41468344395
:100EE00014603C4C27681568354219D12568ED1B04
:100EF000642DF8D9032165E0281F01680C22914375
:100F0000A2680A4302605807BFD503208002291F48
:100F10000A688243E068104308601807B7D4BEE748
:100F20000190032003900404069A57683846204035
:100F3000264A503A156802977D40AD02AD0F04D0A5
:100F4000A04202D11568AD033CD4204D2D68254048
:100F500011D085420FD01D4F3D680095C9043D68F2
:100F60000D433D603D688D433D60009D2946A14392
:100F7000396035421AD1A04209D103990905029D71
:100F80000D400321090514688C432C4314600F4D58
:100F900029680143296005990029069C00D070E763
:100FA00001980168049A914301606AE709490E6853
:100FB000094F064D2D68AD05DDD40D68AD1BBD4252
:100FC000F7D90399084607B0F0BDC046501002405B
:100FD00000700040BC02002088130000F0B587B00C
:100FE00000284FD0464DE9680C220A4004920121A6
:100FF00003910904EA6802910A4005900168C80754
:1010000011D00498082806D004980C2800D0C7E016
:10101000002A00D1C4E02868800304D50598406800
:10102000002800D155E288072FD4C8066CD40807E1
:1010300000D582E0480700D595E00598406A002871
:101040001DD004990C2900D042E1012800D140E2D2
:10105000E868029A0240059B996A8A4200D038E209
:101060000F2189040140DA6A914200D031E2032164
:1010700089050840196B8842039800D0CBE1002015
:1010800007B0F0BD012007B0F0BD0598C068830629
:1010900004D52B68202423432B60A043049B042BFE
:1010A00006D0049B0C2B00D088E0002A00D085E0FD
:1010B0002968490702D5002800D10AE21F21090248
:1010C0006A688A43059909690902114369602968B8
:1010D0000922914301432960E9680807820F094802
:1010E0005200C0467A44928852009744030051014E
:1010F000C801560168680004410F02988840BEE1AB
:101100000010024000127A00049800287DD0286860
:1011100001235A02059CA4691B02002C00D1C9E0DE
:1011200018432860EC4803682C68144200D0EDE0B6
:101130000468E41A022CF7D912E0286D059A526966
:10114000002A00D1A7E0012210432865E248026886
:101150002B6D9B0700D56DE703689B1A022BF7D90F
:10116000032007B0F0BD01231907A86B08400190C8
:1011700002D1A86B0843A86300911902E04A1068E5
:10118000C0052FD4106808431060D34E376810682C
:10119000084227D13068C41B0320642CF7D93AE1F8
:1011A0000598406805231B04984200D1BFE0029CCB
:1011B000A04200D0C4E02B682343CCE02A6800287A
:1011C00000D1FAE009239A4302432A60C24A136815
:1011D0002868400700D5FFE01068C41A0320022CDD
:1011E000F6D918E105988068002807D00522120278
:1011F000904200D1FAE0884200D1FBE02A6D8A4398
:101200002A6599022A6D8A43F6E02868800504D58C
:1012100005988069002800D15BE107277803696899
:101220008143059A106A014369606968B04C2140A6
:10123000D269120651186960410B02988840E9682A
:101240000906090FA84A515CC840A84908607D21D9
:10125000C900FFF759F9411E080E00D039E1A54831
:1012600003782246A44C6160A4490E68164003220C
:101270009207B6180E600026A6602760012B00D0EA
:1012800027E10B689A4C234013430B600121017046
:1012900005980168CBE60122904328658E4A1368C1
:1012A000286D800700D4C5E61068C41A0320022CFC
:1012B000F6D9B0E098432860874B1E682868104232
:1012C00000D1B4E61868841B0320022CF6D9A2E0F2
:1012D00001210A062B6893432B6049067E4A136856
:1012E000022809D12868084200D1A9E01068C41A70
:1012F0000320022CF6D98EE02868084200D1BEE611
:101300001068C41A0320022CF6D984E00720400399
:101310006A688243059B186A10436860FF200006D4
:101320006A688243D8690006801868607FE6039B7C
:101330009B042E681E432E602B68029C23430AE008
:101340002B68A3432B602B6823400693069B039BCB
:101350009E042B68B3432B605F4B1E6800280BD0A4
:10136000039847042868384200D05CE61868841B5C
:101370000320642CF6D94EE00398470428683842CD
:1013800000D150E61868841B0320642CF6D942E093
:101390002868C00652D5524871E08A02120F4F4B9E
:1013A0009A5C0902890F491CEB68029C234263D1B5
:1013B0002868C0065FD44B485EE0012082432A6063
:1013C000454A13682868400700D42EE61068C41AFE
:1013D0000320022CF6D91EE01F2000026A68824317
:1013E000059800690002104368601EE69A022C6DA1
:1013F00014432C652A6D0A432A6537490A685B0243
:10140000404E00280ED0286D18420ED10868841A6C
:101410000320B442F7D907B0F0BD0868841A03204E
:10142000B442F8D8286D1842F7D10198002800D0AE
:1014300003E6A86B00998843A863FEE529481EE0EF
:10144000FD200004EB688343059E283651CE1843E7
:1014500020433043E8602648401C2B6803432B6040
:1014600013682868084200D009E61068C41A0320EF
:10147000022CF6D9CFE71A485043FFF745F8E96840
:101480000906090F184A515CC840184908607D21B7
:10149000C900FFF739F8421E100E1AD11449154839
:1014A0000478154E7260154A17680F4003239B0796
:1014B000FF1817600027B76007273760012C08D195
:1014C00014680C401C4314600121017005980168E8
:1014D000ABE5039807B0F0BDBC0200207E720008A7
:1014E00000093D000024F40087720008000000207D
:1014F000FFFFFF00C002002010E000E020ED00E050
:101500000070004088130000FEE70000F0B581B0D5
:10151000ED4803689C6999691A686405640F36D0C0
:101520008024224056425641012425020F462F4076
:1015300078427841E44F304304D1786C0126064369
:101540007E64DD61554255414805264600D52E464C
:10155000002E05D1A0027D6C08262E437E64D86142
:10156000554255418805214600D52946002905D117
:101570006002796C02220A437A64D861796C0B208C
:10158000014209D0D04800F02DF801B0F0BD436B06
:10159000002B01D0CC48984701B0F0BD80B5806ADF
:1015A000816B002901D000228A6301464031C26B61
:1015B000002A01D0002393634A78602A05D12022B3
:1015C0004A7000220A70026380BD00220A70026322
:1015D00000686449884200D080BD634805F04AF93C
:1015E00080BDC04670B502464032557800249470E4
:1015F000594BC3624485436C0B4343645378283D85
:10160000022D05D828210B40282B25D0F22324E0D9
:10161000517803681968FE25A943196099698907FB
:1016200000D59C629969C90703D1996901250D43C9
:101630009D61517860291ED0202151709D69AD06B1
:1016400019D59D69ED0605D51025DD61456C04268B
:101650002E434664D9610EE0422354780C40282C76
:1016600001D0B42400E004241C4303681D68A54392
:101670001D605170394C4463046B816B00291DD08F
:10168000212C01D0112C19D10C4624341D686D0475
:1016900004D50125AD031E68AE431E606578012D9B
:1016A00033D1517860292AD00021117001632D486F
:1016B00083424AD12C4805F0DDF870BDC16B00298A
:1016C0001AD0222C01D0122C16D10C4624341D68BD
:1016D0002D0404D50125ED031E68AE431E60657818
:1016E000012D12D15178602909D0002111700163B8
:1016F0001C48834229D1DDE7517860291FD1202180
:10170000517000211170016370BD00201070144AE7
:101710008A636278022A19D10A6813680E25AB43DE
:10172000136013680125AB4313600A6C4B6C1C26D5
:101730001E402B46B34053602070657008E00021C6
:101740001170016307488342B4D070BD0420C863A0
:101750000846FFF723FF70BD0000FFFFD118000807
:101760009D1500080054004012730008B0B50168D0
:101770000C680246403200239370650403D42404AD
:1017800005D5164C00E0144C0D6825400D605478CA
:10179000292C0BD128245470212505635578254028
:1017A000F420C043282D10D0801C0FE054782A2C40
:1017B00010D1282454702225056355782540F42043
:1017C000C043282D02D1B03000E0B23013700A6857
:1017D00002400A60B0BDC046FFBFFFFFFF7FFFFFB2
:1017E000F0B581B00146384A13689869C00602D442
:1017F000002108462EE01020D8619869800625D483
:10180000012084030094314D02E09C69A4061DD49C
:101810002E68761A652EF8D35F684226965D9C691D
:10182000240409D5009C274006D1202E04D05968F5
:10183000009C2143596029689C69A406E5D42C6862
:10184000641A192CF8D99969242103E02020D86161
:101850000120042101269C69E50503D53002D861E9
:10186000314330467502670506D42C420AD1002860
:101870000DD1002001B0F0BDB002D86108200143B5
:101880002C4203D00846DD610221014301209C69FE
:10189000A40701D500249C629C69E40703D19C69DC
:1018A000012525439D615C68F84D25405D60536CC2
:1018B0000B435364412120235354402100235354AC
:1018C0004221535401B0F0BD74010020BC0200203D
:1018D000F0B587B004464020205CE36A012802D1BD
:1018E000022007B0F0BD164627464037012006907B
:1018F000387005910E40B00600D4D6E003932268FC
:101900001568787820210291D161F7210140F420F7
:10191000C0430490212905D022290AD1049B083B09
:10192000222101E00498831F787810681840106025
:1019300021630698C1035068084350605068D34B38
:10194000034053609069800701D500209062906940
:10195000C00703D19069069B1843906106988303E2
:10196000680408D40D420FD0106888431060E56BFE
:10197000002D06D108E0106898431060A56B002D7B
:1019800002D0286840686085059D68070ED5606AAA
:10199000526A0270606A401C6062228D0025002A33
:1019A00004D0501E2085608D401E60850195608D9D
:1019B000002803D0606C0422024362640025BD70DD
:1019C0006563606C00282ED0616C2046FFF70AFE2C
:1019D00078782828039B68D1AD48E0622563029897
:1019E00078706563BD700198400712D5606A216800
:1019F000496A0170606A401C6062208D002808D02E
:101A0000618D491E6185401E2085606C0421014363
:101A100061647878787820680168FE2291430160DB
:101A20001021C16140E0E06A994A904205D178787E
:101A3000029878702563039B36E022681068BD70B9
:101A4000184204D10842039B06D0934901E0914912
:101A5000039B106808401060787829280AD1282054
:101A600078702121216379780140282910D00498C9
:101A7000801C0FE078782A2811D128207870222144
:101A8000216379780140282905D10498B03001E01C
:101A90000498B230049010680499084010607C48A3
:101AA000E0620298787025633D70F00617D47007E5
:101AB00028D4300778D4B00700D4D2E0608D002855
:101AC00000D1D2E02068616A0A788262481C6062B4
:101AD000208D401E2085608D401E6085C1E0608D98
:101AE000002831D020681021C161606C04210143BD
:101AF00061646A48034200D0B3E0616C2046FFF79E
:101B000071FDAEE0608D00280CD0606A2168496AE2
:101B10000170606A401C6062208D401E2085608DCF
:101B2000401E6085608D002800D09AE058488342AE
:101B300000D196E0206802680021B970530463D494
:101B4000120465D5544A60E07878282846D1069872
:101B50004006834242D14E48E062002020632021AB
:101B600079706063B8700599490712D5616A226877
:101B7000526A0A70616A491C6162218D002908D08D
:101B8000628D521E6285491E2185616C04220A43C2
:101B900062647978797821680A68FE239A430A603A
:101BA00038701020C8615CE07878282101402068F6
:101BB00028294DD1816981698268C368E368022B55
:101BC00005D1090CD2094A405107890F54D0002190
:101BD00039700168B8229143016042E07978206849
:101BE0001022C26129293CD129498B4239D081690F
:101BF000890701D5002181628169C9079BD181696B
:101C0000069A1143816196E7224A036813400360F4
:101C10007A78292A0CD128227A70212323633970FB
:101C20007B781340F421C943282B16D0891C15E07A
:101C30007A782A2A15D128227A70222323633970D0
:101C40007B781340F421C943282B07D1B03105E03C
:101C5000002139700821C16103E0B23102680A40F5
:101C600002600020387007B0F0BD0C480342F8D184
:101C70002046FFF77BFDF4E7A16C491CA164A16C31
:101C80000229EED10021A164E3E7C04600E800FE8E
:101C90000000FFFFFFBFFFFFFF7FFFFFFFFFFFFE13
:101CA000F0B581B00446164D28688069002680068C
:101CB00020D4144F02E0886980061ED42046FFF726
:101CC0008FFD01460120002918D139680A1B2968B7
:101CD000652AF0D38A699206EDD4696C20221143FB
:101CE000696441216A54402100226A5442216A54A5
:101CF00001B0F0BD304601B0F0BD304601B0F0BDDE
:101D000074010020BC020020F0B587B0CB4B1868EE
:101D1000C26907682021059704910F4079427941F3
:101D200001240694E60234462F341440203C651EFC
:101D3000AC410C43856855D031460F3103920A42BD
:101D4000059B07D0BE49194001222C46144061185A
:101D500000D08BE01026194631404C424C41039A8A
:101D6000114631404F424F41B449096E012906994D
:101D700000D139460029069900D12146002939D0E1
:101D80000124A1050D406E426E41D102069900D595
:101D90003146002900D1DDE0802119404842484108
:101DA0001106069900D50146002900D1A2E1402084
:101DB00003405D425D41510600D506950699002914
:101DC000D74D00D09BE1EFF3108184F310882A688F
:101DD00013688343136081F310880020E866049839
:101DE000E8678CE1996E002900D188E1CC488847EA
:101DF00007B0F0BD06628068400600D5AEE05A220A
:101E0000C74DA85A5821695AAA5A002A00D176E12A
:101E1000814200D173E1EFF31081012080F310883B
:101E2000092252012B681C6894431C6081F31088BE
:101E3000EFF3108180F310882A68936883439360DE
:101E400081F310888021049A6A500021A9662966CE
:101E5000EFF3108180F3108828680268B2430260B3
:101E600081F310880220686607B0F0BD11021940A6
:101E70004D424D410399C907069900D029460029D2
:101E80000292134607D103628421A54A5558029B4A
:101E90001D435550029B65426541039A910706997F
:101EA00000D5294600290BD10221016284219C4BD7
:101EB0005B5801930425019B1D43994B5D50029B88
:101EC000654265415107069900D5294600290BD185
:101ED000042101628421924B5B5801930225019BEE
:101EE0001D438F4B5D50029B3C436542654111078A
:101EF000069C00D52C46002C894D09D10821016291
:101F00008424874B1D59029B0D4385490D51844DF7
:101F10009906059B0B405C425C413242069B00D017
:101F20002346002B05D1066284216B58049C234371
:101F30006B5084242959002900D1E0E004990A401B
:101F40007B427B41002A00D006930699002961D08C
:101F5000029B67E02105016207B0F0BD704F786F0A
:101F600001684A6890B2002800D1C8E05823FB5AA3
:101F7000984200D3C3E05A203A520968890600D536
:101F8000C3E0EFF31082012181F31088664B203308
:101F90003C6825681D40256082F31088EFF31082AD
:101FA00081F310883B689C688C439C6082F31088A6
:101FB000EFF3108281F310883B689C684025AC43A6
:101FC0009C6082F310888022049BBB5000223A66FA
:101FD000EFF3108381F310883C682568B5432560D2
:101FE00083F310887C6F234624335D78022D00D064
:101FF00087E025682E680E27BE432E602E688E432C
:102000002E60256C646C1C2626400C46B4406C6027
:10201000597078E0A96E0029029B03D028468847B2
:10202000029B2868295928220A40816840200140E3
:10203000891807D10020285107B0F0BDEC0100201D
:1020400020010004EFF3108183F31088092252016C
:102050001E462B681C6894431C6081F31088EFF3C4
:10206000108186F310882A689368B343936081F3E4
:102070001088296E01290BD1EFF31081029A82F3A7
:1020800010882A6813681024A343136081F3108812
:102090008021049A6A5000212966A9662A689268FC
:1020A00052062CD5EFF31082029B83F310882B6825
:1020B0009C6884439C6082F31088686F00281ED05F
:1020C00002462432174B83635378022B22D10368D4
:1020D0001C680E25AC431C601C68029EB4431C6047
:1020E000036C446C1C2525403446AC405C60117088
:1020F000567011E00A48C16E002900D076E607B09C
:10210000F0BD0421E1631A70054F02217966385A47
:1021100007B0F0BD0421C16300F03CF807B0F0BD8A
:10212000EC01002095210008DFFEFFFFFEE770476D
:1021300010B5012041040F4A11600F490A689368E5
:10214000DB0408D5D368DB0505D5D3680B4C1C43ED
:1021500003029C43D46093689B0408D5D3689B0515
:1021600005D5D368064C1C4343029C43D46021220E
:10217000885410BD14040140C80100207FFEFFFFF9
:102180007FFDFFFF7047000049480168491C01605E
:102190007047C046806A0146523100220A815221AE
:1021A00042527047F0B583B00668F4690C400025D0
:1021B0008C4202D1284603B0F0BD029501907830E0
:1021C00000900120C5023A4C03E0F7690F408F42AE
:1021D00039D02768BF1A9F4232D837687F07F4D5B5
:1021E000F7693F0732D4F7692F42EED03562EFF33B
:1021F0001080012282F3108809214901019E336871
:102200001C688C431C6080F31088EFF3108082F30D
:10221000108831688B6893438B6080F31088336E2D
:1022200003202021012B39D1EFF3108382F3108892
:10223000326814681025AC43146083F310882DE0D5
:10224000032003B0F0BD029803B0F0BD0821316255
:10225000EFF3108280F3108809235B01019E34683C
:1022600025689D43256082F31088EFF3108280F388
:10227000108833689C6884439C6082F31088326EB7
:10228000012A0BD1EFF31082012080F3108833680C
:102290001C681025AC431C6082F31088009B202230
:1022A0009A6000223266B2661A70D96003B0F0BD3F
:1022B000BC02002000B5C1B0EF4A106840210C916B
:1022C000084310607D20C100EC4800680B91FEF7C8
:1022D0001BF9401E010E01263707F24DF24C002972
:1022E00018D1F2494860F24802682A4003239B074C
:1022F000D218026000228A6007220A600168294021
:10230000C9180160EB480670A0683043A060E0681F
:102310003843E060209700273697359734973397F6
:102320003297319730972F9703202390C002F24BBA
:1023300019688143F2021F928918196032021968E4
:1023400011431960616A014361622D972C972B97A5
:102350002A9729972897B00509903A90B0041D90C4
:1023600039903897022021903790339610201E9094
:10237000329031962492309206201C902E902EA8F6
:10238000FEF72CFE279630042290BB4C2068C00735
:102390000ED12068012101432160F1480168F14A12
:1023A0002368DB0704D103685B1A9342F8D980E005
:1023B000BD4A1546203D2868F02188432860EA4838
:1023C000401C2C3A26921168014272D02868239949
:1023D00008432860E2480168E24B22462E680C243C
:1023E00034400C2C05D00468641A9C421446F4D97D
:1023F0005FE0106807242002296881432960E00219
:1024000029688143296029680807830FE948C04685
:102410007B441B795B009F440109260FA2482838A2
:1024200000680004410F229888401CE0269800684C
:10243000C00612D5E04816E08B021B0FDF4EF25C9F
:102440000902890F491C2E68229B1E4208D126983A
:102450000068C00603D4DA4802E0D94803E0D64851
:102460005043FEF751F829680906090FD54A515C17
:10247000C840824908600B99FEF746F8411E89481A
:10248000814216D88B480378884D696088490E6868
:10249000844A1640239A9207B6180E60AF602C60EB
:1024A000012B06D10B687F4C234013430B60279907
:1024B00001702B972C201190289022982990279812
:1024C00000031B902C9028A8FEF7D4FC7649C8681E
:1024D000209A1043C860BC4AE1204002BB4D0C2347
:1024E0001F9911625762156050609760D76017613D
:1024F00053619761D761D06F0028394625973846D8
:102500003E4626973C462F4630D178200021115474
:10251000654C2068012528432060206828402E90C3
:102520002E981C9832902398319030910C202E9048
:1025300002202F90A64828382EA91646FEF7C6FA84
:10254000E0681D990843E060FF200002A149CA69C4
:102550008243CA61324668079F4908603768B46899
:10256000F0682590366953699169D06924250A95E8
:10257000D5673D6802462798854310463D6026434F
:102580001E433B68954C1C40344314433C60239BE2
:102590001B037C689C43259A14437C608B4DAF429F
:1025A00002D0894A126A2692269A11430B263202D9
:1025B000BB6893430B43BB6089498F423A4B279CCE
:1025C00004D0AF421E9908D10A212191196A219A9B
:1025D000D1408907090F83A251582A46E503974243
:1025E00021D0A8423FD1082900D9A9E128464900B5
:1025F0007944898849008F440800A3019100A30110
:102600009800A301A301A30104011C480068194616
:10261000203909684905490F764A515CC8400028AD
:1026200000D0EEE073E1082900D989E1284649008D
:102630007944898849008F44080083014D00830153
:10264000540083018301830152010C48006819463C
:10265000203909684905490F664A515CC84000287D
:1026600000D03CE153E1082900D969E1880004A1C8
:10267000095828468F46C04600200240000000202E
:10268000B9260008412900086D27000841290008E3
:102690007B2700084129000841290008412900083A
:1026A0002B280008FFFFFF002C10024010E000E084
:1026B00020ED00E0C00200204F4800681946203994
:1026C00009684905490F4B4A515CC840002800D0B1
:1026D000ABE01CE118462C380068C00668D53648C7
:1026E000FDE0203B19680807820F3248920003A4DE
:1026F000A258424C9746C046007000400D27000883
:1027000047280008DF2800084B2800082046283802
:1027100000680004410F22988840E0E018462C38F9
:102720000068C0066CD524486BE0203B1968080798
:10273000820F2048920002A4A258304C9746C0460F
:10274000512700086F280008032800087328000894
:102750002046283800680004410F2298884050E045
:10276000BC02002088130000FFFFFF0118462C3830
:102770000068C00658D5104857E0203B1968080784
:10278000820F0C48920002A4A2581C4C9746C046E7
:10279000A1270008A12800082B280008A528000868
:1027A0002046283800680004410F229888403CE009
:1027B000034894E000127A0000093D007E72000890
:1027C0000024F40087720008EC010020004800405B
:1027D0002800005000E400E000E100E0F369FFEFB2
:1027E000004400400000000004000000020000005F
:1027F0000800000097720008000000202C10024022
:10280000E5484000E54949684A081018FDF77CFE94
:102810000246103A229910398A4200D390E00140D2
:102820000007400F084371E0DB48DC4949684A086B
:102830001018FDF769FE01461039229A103A9142AC
:102840007ED280B262E0204645E78A02120FD44C65
:10285000A25C0902890F491C1B68229C234239D1C2
:10286000D0482C380068C00633D4CB4832E020462C
:1028700055E78A02120FCA4CA25C0902890F491C53
:102880001B68229C234201D000F0B1FDC5482C38C2
:102890000068C00601D500F0A9FDBF4800F0A7FD03
:1028A000204664E78A02120FBD4CA25C0902890F20
:1028B000491C1B68229C234201D000F0A2FDB948AC
:1028C0002C380068C00601D500F09AFDB24800F02F
:1028D00098FDB5485043FDF717FE002817D0AF49C3
:1028E0004A682399514388422AD31103884227D842
:1028F000010E54080002002300195941FDF7FBFBAB
:10290000AA494118FD31AA4A914219D2F8601E9590
:102910000020A24B98661C90D866586A0028279D14
:1029200066D0C10711D1810718D441071FD4010710
:1029300026D4C1062DD4810635D441063CD44EE0C0
:10294000002096498866C866ACE069043C467A680F
:102950008A43996A114379608107E6D529043C4688
:102960007A688A43D96A114379604107DFD53C46CA
:1029700079681D9A91431A6B0A437A600107D8D58A
:10298000E9033C467A688A43596B11437960C10672
:10299000D1D58849491E3C46BA680A40996B114313
:1029A000B9608106C9D569033C46BA688A43D96BC8
:1029B0001143B960410612D529053C467A688A431D
:1029C000764B1B6C1A437A608B42744B07D1239968
:1029D00049053C467A688A43596C11437960000680
:1029E00006D5E8043A4679688143986C08437860D4
:1029F00006960920C002796881437960B8682A2167
:102A000019918843B86038682843386084201C993D
:102A10001950FA4806683868000718D569052C4629
:102A20005E4D28463246FA4BFFF7BCFB00280CD01F
:102A3000EFF3108084F3108829680A6880239A4392
:102A40000A6080F310887C3526E02F68534B386885
:102A5000400729D5514D284609993246EC4BFFF7DE
:102A6000A1FB4E4B00281FD0EFF31080279C84F36E
:102A70001088E8491E392A6813680B40136080F3F8
:102A80001088EFF3108084F3108829688A68A243C5
:102A90008A6080F310888035782040491C9A0A5457
:102AA0002020286000BFFDE72026DE6780255E51DC
:102AB000782018901C9F1F541F665F66D64B9F613D
:102AC000DF617F2024992031D44C22460C3A84C304
:102AD000083B1A46083283C22121585C002807911E
:102AE0004BD00220269058542068C006259570D4FB
:102AF000CA20A0615320A0612068400612D420683B
:102B000028432060BD480168206840060AD4186840
:102B10000B9CBA4A1268521AA24200D9FAE1C26862
:102B20005206F6D518688168BD4A0A408260596825
:102B30001A690A439969114382680A438260D96815
:102B400001619968090402690A430261C168A943E5
:102B5000C16081688906079D2ED4B249C160A7492A
:102B600009680B9CC268920626D4A44A1268521ABD
:102B7000A242F7D904215955D0E100209855379049
:102B800008202E90012033902EA8FEF727FA002867
:102B900000D1F3E0FEE7C0460024F400EC01002081
:102BA0007E7200082C10024000093D0003FCFFFF6C
:102BB00000FD0F0000F0FFFFC16C239A9143C16438
:102BC000D9695A690A43C16C1143C164FF2141624A
:102BD0002946279D5D54269A934BD868209908432F
:102BE000D8606902914C20681791084320600B98C7
:102BF0001830216801432160186810431860186874
:102C000010402E902E983297319730972E952F9511
:102C1000874C204618382EA91A90FDF757FF2B46EF
:102C2000844D11982F54236183482F840721834AB0
:102C3000541C249AC13216926A62AF6208222F6332
:102C40006F630591A963EF6328601D946C60AF60AA
:102C5000EF602B6104926A61AF61EF61686D0028DB
:102C6000219625D1502000212954A9656E4E306847
:102C7000012210433060306810402E902E98309121
:102C800023982F90319132912E926D4C283C2EAE8C
:102C900020463146FDF71AFF26982E9020463146F1
:102CA000FDF714FF604A9068179908439060219ED1
:102CB0002868696DC906239B26D48168490723D4F7
:102CC000812149006A6D8A43911C696581681940B8
:102CD0005C4A012903D10168C90700D008E369688B
:102CE0000123DC07A14207D09B07994204D0239B14
:102CF0009B07994200D0E7E20369504C23400361EF
:102D000003690B430361EBE250216F54696D10229C
:102D10000A436A65444C81681940012902D101685F
:102D2000C90728D1812149006A6D8A43911C6965D0
:102D3000C168C2689A43C260279EF2071C46836836
:102D4000134383602D4A12688368002B23D52868BB
:102D5000354C02E08368002B1BD5284B1B689B1A5F
:102D60000B2BF7D38368002BF4D5696D1020084333
:102D70002699884318E0686D304315E02896294865
:102D8000A130299028A8FEF775F8002800D1B0E0FE
:102D9000FEE7239C279E2140C2680A43C260686DFB
:102DA000304326998843204C50216F54686526484B
:102DB000264901601B98401C25490860FDF726FE46
:102DC00024A003F057FD2EA033A135A237A303F0B2
:102DD00051FD2346203B1A681007800F36498000BA
:102DE00002A42058164C279D8746C046012E000895
:102DF000BD2E0008392F0008CB2E0008BC02002091
:102E00000948283800680004400F2299814093E067
:102E1000FFFFFF01FDFEFFFFC80100200C2800405E
:102E2000BFFF8FFF5FFF01002C10024000700040C9
:102E3000180400501801002000240140FFFFFF3F4C
:102E40002800005008270140800200200300064CA3
:102E500084020020576972656C6573732057656141
:102E6000746865722053746174696F6E2054726166
:102E70006E2062795369676874736565722E0A0003
:102E8000257320436F6D70696C652074696D653AB8
:102E90002025732025730A00766572312E330000D9
:102EA00041707220323120323032340032313A33C4
:102EB000383A33370000000000127A00E5482C3819
:102EC0000068C00613D5E44936E09002000FE34CD9
:102ED000205C1202920F521C1B68229C234224D1B8
:102EE000DC492C390968C9061ED4DD491DE0DC49DE
:102EF00022E0D849486A1D9A10434862FF20000426
:102F0000D8490A6882430A60D74804210160D74B38
:102F10000799E6E50421079A9954C168FF214162A7
:102F2000269ACC4B279D58E6CB494143D04C0846C6
:102F30001146FDF7E9FA0146CEA003F09BFCC54916
:102F4000086828430860086828402E902E98086872
:102F5000269D28430860086828402E902E9811204E
:102F600022902F90309732973195249E2E962046AE
:102F700028382EAC1B902146FDF7A8FD2E951A98F7
:102F80002146FDF7A3FDBA48103817900660BD48EA
:102F90000560BD4A10681168091A0B29FBD3BB48AC
:102FA00003F056F8BA4DBB49BB4883C5279E2E6037
:102FB0006F60AF60EF602F616F6141240C3D2A5D4F
:102FC000002A32462BD100200C996854A14F386852
:102FD0001C94012420433860386820402E902E989D
:102FE0003294269831903094239840022E901220EB
:102FF0002F902EA91B98FDF769FD6005F968014324
:10300000F960984A5069A54908401D9908435061E4
:10301000E0051C9C9449086083CD2A680C3D0A9BFE
:103020002B550368B34303600F231D931B0699437D
:10303000016183689A490B408360012A1E9B01D07D
:10304000079B9B021F438760022A219E01D11F9A82
:1030500042604268934B13434360C2680A40C260B7
:103060008B4D29696A690A43A96909021143C16044
:10307000E9692A6A0A43026001680122114301607A
:1030800000276F642E552F6342201F902F54264631
:103090002EAC2770D02021462092FDF7DFFD20784E
:1030A000582800D0D6E18049103188201A22FDF737
:1030B000D5FD2EA8B62101700C98285C401E414217
:1030C00041411C96A85D2038421E904108436E4A3B
:1030D000079B219E00D0A8E10C98209929541068E4
:1030E00027902C68A1691E9A114217D11C996B5424
:1030F00010211F9AA95400216964209A6A852EAA7A
:103100006A626963698D090A1BD0FF21298562689B
:10311000664E1640201D664BEC221CE0279803E00B
:10312000A1691E9A1142E1D057490968091A1A2962
:10313000F6D3A1691E9A1142F2D0686C334630432F
:103140006AE1698D29856368584A1A40201DCBB20F
:103150001E04EC36574B32431A4302606A8D002A34
:1031600055D02EAAA3699B0716D4279E02E0A16919
:1031700089070FD43046FEF733FB0028424A00D0BF
:1031800053E11068811B2C686529F0D3A169890778
:10319000EDD45AE0298D6A6A1378A3626B8D5B1EA9
:1031A0006B85521C6A62491E29856B8D002B2BD0C2
:1031B0000B0429D1A16909062798219B0DD5698D9A
:1031C000090A13D0FF21298566683B480640EC2395
:1031D0003A4816E0A1690906F1D42B490968091A91
:1031E0006529F7D3A1690906F4D413E1698D29850E
:1031F000636831480340324D681C254DCEB2360419
:10320000EC363343034363606B8D002BAAD1A16975
:103210008906279809D5219BE3616168294A0A40FC
:103220006260FAE0A1698906F5D40646FEF7D8FA8D
:103230000028154A00D0F8E01068811B2C68652929
:103240003046EFD3A1698906ECD4686C219B184302
:103250006864E3E02C10024000093D007E72000823
:103260000024F40000E400E000E100E0C8010020D8
:1032700028000050467265713A20256420487A0A79
:103280000000000018040050BC02002004000020D0
:10329000740100204E38B00000540040FFFFFF00D2
:1032A000FF7FFFFF0080000210000020009800FC5C
:1032B0000020FF0100200002009C00FC0000FF0134
:1032C000FFFFFF0100E800FE0369FD4C234003619E
:1032D0000F239B0414689C43146013680B43136012
:1032E000C16818239943C160A968C3680B43C360D0
:1032F000012117914B0614689C4314606B6B5B06AD
:1033000014681C431460826820990A4202D18268C2
:103310000A438260C268EB4B1340C3602A69921E65
:10332000534253419A00EB681343AA5D54031C4374
:103330002B6B234311996C5C64001C43AB69EE69F1
:103340009B032343F4031C43C3682343C3606C6A99
:1033500003460C3316998C4204D01E68A96A314387
:10336000214319600799695C0129219ED64C0BD134
:10337000002A229A05D0696D314369652B4658337E
:10338000179A1968114319600269E96B012910D174
:10339000FF2189008A4302612B4640330ECB0A434A
:1033A0001A43016911430161026917990A43269B77
:1033B00005E0D107269B03D0026917998A43026171
:1033C0004169059A91434161A96B42690A4342618F
:1033D0000021A965696D179A1143994369655021C8
:1033E000695C0129239B00D095E4E0E4B748504391
:1033F000FDF78AF8002801D0FFF703FAFFF787FAF4
:10340000B2485043FDF780F8002801D0FFF70DFACD
:10341000FFF77DFA686C18436864AD4A1C982B541A
:1034200000200C9968541F99685410681168091A93
:103430000629FBD3F420252102F01AFDF5202021D6
:1034400002F016FD1020A34B19181A5A4A83801C4B
:103450002828F9D19C490868209C20430860086806
:103460000D4620402E902E982F943097329731970A
:103470001E982E902EA91B98FDF728FB2868269EE3
:1034800030432860286830402E902E982F94309733
:1034900032973196259D2E952EA91A98FDF716FB89
:1034A0008949086830430860086830402E902E989B
:1034B000319630960C982E902F942EA927911A9819
:1034C000FDF704FB80490868304308600868304015
:1034D0002890079800042F9030942E9428981A98DA
:1034E0002799FDF7F3FA7C4A50687C490840506000
:1034F0007B480560744908682043086008682040DC
:103500002E902E98329730972F943196B0201090AD
:103510002E902EAC1B982146FDF7D8FA0C982E90D1
:10352000219E2F971B982146FDF7D0FA6D4A166011
:1035300017990D60102008601F90106005E005606D
:103540000E6016607F1C082F06D02846F8408007C2
:103550001046F4D00846F2E71560166000200146D8
:10356000604C2746183F3B682246103A166026609A
:10357000259DC5405B06DB172B40259C1943401C4D
:103580000828EDD127971F981060564F3860002308
:1035900005E02C6016603E605B1C082B07D02546BA
:1035A000DD40232005423D46F3D01546F1E73C605F
:1035B0003E60FC2211400022259C05E02C601E602C
:1035C0003E60521C082A09D00B4693401D063B461C
:1035D000103B002D3D46F1D51D46EFE73C603E60B7
:1035E000394610391F9A0A603A60002205E01C60D3
:1035F0000E603E60521C082A06D02346D3409B072B
:103600003B46F4D00B46F2E71C903C603E60002342
:1036100019463846279F3D680246103A16600660F4
:103620002646DE406D06ED173540219E29435B1C82
:10363000082BF0D11F9B13600360002307461C98E2
:1036400005E02C6016603E605B1C082B06D025460A
:10365000DD4005423D46F4D01546F2E73C603E6051
:1036600023980143002005E01C6016603E60401C6A
:10367000082809D00A46824013063A46103A002B21
:103680003B46F1D51346EFE73C603E6038461038C4
:103690001F9A02602EA912231C934B71342314939A
:1036A0000B7156232393CB70189B8B709A231B931B
:1036B0004B7030230B703A6000231D463C4618E0E7
:1036C000FFFFFF3F1902FEFF2C10024000093D00E2
:1036D000BC0200201000002000E400E0FFFFFF001B
:1036E00000E100E02800005014606D1C062D144617
:1036F00013D02EA94E5D1F462246259C06E00C6085
:103700002199016011607F1C082FEDD02146F940FE
:103710000E421146F3D00146F1E721982060214680
:1037200010391F9A0A6028A81C9B4371149B0371CF
:10373000239BC370189B83701B9B4370199B037062
:1037400022600020024604E03C60521C062A3C46EF
:1037500013D028AB9B5C05462746259C06E03460C9
:10376000219E0E603E606D1C082DEDD02646EE4079
:1037700033423E46F3D00E46F1E72660204610382D
:103780001F9B03603FA9229D4D702B220A708D70F4
:10379000CD700D714D71236000210A46259CFC4FB0
:1037A00003E03C60521C062A11D03FAB9B5C0D46E7
:1037B00006E03460219E06603E606D1C082DF0D04E
:1037C0002646EE4033423E46F3D00646F1E7F04847
:1037D0000660014610391F9D0D603EAA22232393E7
:1037E0005370119B1370056000221346E84803E0F4
:1037F00004605B1C022B11D03EADED5C164606E06A
:103800003C60219F0F600760761C082EF0D0274691
:10381000F7403D420746F3D00F46F1E72199DC48D7
:103820000160014610391F9D0D603DAA33231B9393
:1038300053702D231370056000221346D44803E013
:1038400004605B1C022B11D03DADED5C164606E01A
:103850003C60219F0F600760761C082EF0D0274641
:10386000F7403D420746F3D00F46F1E72199C8489B
:103870000160014610391F9D0D603CAA442353701E
:103880002E230F931370056000221346C04803E0F7
:1038900004605B1C022B11D03CADED5C164606E0CB
:1038A0003C60219F0F600760761C082EF0D02746F1
:1038B000F7403D420746F3D00F46F1E72199B4485F
:1038C0000160014610391F9D0D603BAA55235370BE
:1038D0002F231370056000221346AD4803E00460F7
:1038E0005B1C022B11D03BADED5C164606E03C6044
:1038F000219F0F600760761C082EF0D02746F74006
:103900003D420746F3D00F46F1E7219EA0480660EE
:10391000014610391F9A0A6002602098C5432A1F89
:103920009B4805E01C600E600660521C022A04D011
:10393000002A0B46F6D0964BF4E71995944F3C605D
:103940003E6000231946279805683A46103A1660EB
:103950003E602646DE406D06ED173540219E294328
:103960005B1C082BF0D11F9810603860002323984F
:1039700005E02C6016603E605B1C082B06D02546D7
:10398000DD4005423D46F4D01546F2E73C603E601E
:10399000C020089001400022259C05E02C601E609C
:1039A0003E60521C082A09D00B4693401D063B4638
:1039B000103B002D3D46F1D51D46EFE73C603E60D3
:1039C000394610391F98086038601998021F7048EE
:1039D00005E01C600E600660521C022A04D0002A1A
:1039E0000B46F6D06A4BF4E7694F3C603E6000231B
:1039F0001946279805683A46103A16603E602646F2
:103A0000DE406D06ED173540219E29435B1C082BD7
:103A1000F0D11F98106038600023239805E02C60D7
:103A200016603E605B1C082B06D02546DD40054233
:103A30003D46F4D01546F2E73C603E603D202390C1
:103A40000143002005E01C6016603E60401C082811
:103A500009D00A46824013063A46103A002B3B46EC
:103A6000F1D51346EFE73C603E60384610381F99A9
:103A700001603960002105E0146006603E60491C69
:103A8000082908D02246CA40052313931A423A4611
:103A9000F2D00246F0E73C603E6000200146259CE3
:103AA000279A13683A46103A16603E60259DC54035
:103AB0005B06DB172B401943401C0828F0D11F98E8
:103AC00010603860002305E02C6016603E605B1CCF
:103AD000082B07D02546DD40252005423D46F3D082
:103AE0001546F1E73C603E6021400022259C05E040
:103AF0002C601E603E60521C082A09D00B46934081
:103B00001D063B46103B002D3D46F1D51D46EFE717
:103B10001A903C603E60394610391F9A0A603A603C
:103B20000022139D05E01C600E603E60521C082AB6
:103B300006D02346D3402B423B46F4D00B46F2E757
:103B40003C603E6000231946279805683A46103AC3
:103B500016603E602646DE406D06ED173540219E1C
:103B600029435B1C082BF0D11F9B13603B60002393
:103B70001A9805E02C6016603E605B1C082B09D08B
:103B80002546DD4005423D46F4D01546F2E7C046E5
:103B9000280000503C603E6064200143002005E0A6
:103BA0001C6016603E60401C082809D00A4682400E
:103BB00013063A46103A002B3B46F1D51346EFE781
:103BC0003C603E60384610381F9901603960002122
:103BD000229B05E0146006603E60491C082906D05F
:103BE0002246CA401A423A46F4D00246F2E73C6006
:103BF0003E6000221046259C27990B6839461039F3
:103C00000E603E60259DD5405B06DB172B401843B8
:103C1000521C082AF0D11F9A0A603A60002205E07F
:103C20001C600E603E60521C082A08D02346D34018
:103C300031251A952B423B46F2D00B46F0E73C600B
:103C40003E6008990840002105E01C6016603E6057
:103C5000491C082909D002468A4013063A46103A00
:103C6000002B3B46F1D51346EFE73C603E603846FB
:103C700010381F990160396000211C9B05E0146019
:103C800006603E60491C082906D02246CA401A42F6
:103C90003A46F4D00246F2E73C603E60002210460D
:103CA000259C27990B68394610390E603E60259D8A
:103CB000D5405B06DB172B401843521C082AF0D175
:103CC0001F9A0A603A60002205E01C600E603E60A8
:103CD000521C082A08D02346D340322512952B4285
:103CE0003B46F2D00B46F0E73C603E600899084046
:103CF000002105E01C6016603E60491C082909D0BF
:103D000002468A4013063A46103A002B3B46F1D54C
:103D10001346EFE73C603E60384610381F9901605B
:103D20003960002105E0146006603E60491C0829E6
:103D300008D02246CA40132317931A423A46F2D0BB
:103D40000246F0E73C603E6000221046259C279921
:103D50000B68394610390E603E60259DD5405B06E4
:103D6000DB172B401843521C082AF0D11F9A0A6017
:103D70003A6000221B9D05E01C600E603E60521CF4
:103D8000082A06D02346D3402B423B46F4D00B46AC
:103D9000F2E73C603E6008990840002105E01C60A5
:103DA00016603E60491C082909D002468A40130665
:103DB0003A46103A002B3B46F1D51346EFE73C60FC
:103DC0003E60384610381F9901603960002205E0D6
:103DD0001C6006603E60521C082A08D02346D3406F
:103DE000142116910B423B46F2D00346F0E73C60AB
:103DF0003E60002318462146279C25683A46103A23
:103E000016603E600E46DE406D06ED173540219E81
:103E100028435B1C082BF0D11F9B13603B600023E1
:103E2000149C05E0296016603E605B1C082B06D0E0
:103E30000D46DD4025423D46F4D01546F2E7396097
:103E40003E60089908400022259905E029601E601F
:103E50003E60521C082A09D0034693401D063B468B
:103E6000103B002D3D46F1D51D46EFE739603E6021
:103E7000384610381F9A02603A600022279C05E0FD
:103E8000196006603E60521C082A08D00B46D340D9
:103E9000152518952B423B46F2D00346F0E73960D2
:103EA0003E600020024625683B46103B1E603E6097
:103EB0000E46C6406D06ED173540219E2A43401C34
:103EC0000828F0D11F9818603860002506E031609E
:103ED0002198186038606D1C082D08D00E46EE4001
:103EE0003520159006423E46F1D01E46EFE7396078
:103EF000386008980240002307E025983060219838
:103F0000286038605B1C082B09D015469D402E06A2
:103F10003D46103D002E3E46EFD52E46EDE7259A54
:103F20003A6038603B46103B1F98186038600025A7
:103F300006E032602198186038606D1C082D08D0AA
:103F40001646EE4016200E9006423E46F1D01E4622
:103F5000EFE73A60386000263346279C2768F74928
:103F60000D46103D286008601146F1407F06FF179E
:103F70000F403B43761C082EF0D11F982860EF4C71
:103F80002060002606E03A60219828602060761CB8
:103F9000082E08D01146F14036200D9001422746E8
:103FA000F1D02F46EFE72260219820600898034067
:103FB000002507E0259838602198306020606D1C4E
:103FC000082D09D01946A94009062646103E0029A9
:103FD0002746EFD53746EDE7259A22602060234635
:103FE000103B1F9818602060002506E03260219881
:103FF000186020606D1C082D07D01146E9402298FA
:1040000001422646F2D01E46F0E7226020600026DC
:104010003346279C2168C94F3D46103D28603860D3
:104020001746F7404906C91739400B43761C082E3E
:10403000F0D11F982860C14C2060002606E03A604D
:10404000219828602060761C082E07D01146F14088
:104050001A9801422746F2D02F46F0E722602198B5
:1040600020600343002507E02598386021983060E0
:1040700020606D1C082D09D01946A9400906264666
:10408000103E00292746EFD53746EDE7259A2260F6
:1040900020602346103B1F9818602060002506E032
:1040A00032602198186020606D1C082D07D01146E1
:1040B000E9401C9801422646F2D01E46F0E72260F5
:1040C000206000263346279C21689C4F3D46103DCA
:1040D000286038601746F7404906C91739400B4336
:1040E000761C082EF0D11F982860944C2060002682
:1040F00006E03A60219828602060761C082E07D0E0
:104100001146F140129801422746F2D02F46F0E7BF
:104110002260219820600343002507E0259838603D
:104120002198306020606D1C082D09D01946A940E7
:1041300009062646103E00292746EFD53746EDE70B
:10414000259A226020602346103B1F98186020604B
:104150000025179F219805E03260186020606D1CD3
:10416000082D06D01146E94039422646F4D01E46B5
:10417000F2E72260206000263346279C21686F4FBB
:104180003D46103D286038601746F7404906C9177C
:1041900039400B43761C082EF0D11F982860674CDD
:1041A0002060002606E03A60219828602060761C96
:1041B000082E07D01146F1401B9801422746F2D045
:1041C0002F46F0E72260219820600343002507E096
:1041D000259838602198306020606D1C082D09D02A
:1041E0001946A94009062646103E00292746EFD564
:1041F0003746EDE7259A226020602346103B1F9842
:10420000186020600025169F219805E03260186034
:1042100020606D1C082D06D01146E9403942264623
:10422000F4D01E46F2E72260206000252946279C34
:104230002668424F3B46103B186038601746EF40F7
:104240007606F6173E4031436D1C082DF0D11F98BD
:1042500018603A4C2060002506E032602198186012
:1042600020606D1C082D07D01646EE4014980642BB
:104270002646F2D01E46F0E72260219820600143D6
:104280000023259806E03060219E2E6026605B1C8E
:10429000082B09D00D469D402E062546103D002EC8
:1042A0002646F0D52E46EEE7259A22602660214666
:1042B00010391F98086020600023189805E02A60D4
:1042C0000E6026605B1C082B06D01546DD400542BB
:1042D0002546F4D00D46F2E72260266000252946E7
:1042E0003046279C2668154F3B46103B18603860C7
:1042F0001746EF407606F6173E4031436D1C082DF9
:10430000F0D11F9818600D4C20600025159F219852
:1043100005E03260186020606D1C082D06D016463E
:10432000EE403E422646F4D01E46F2E72260219E31
:10433000266031430020259A08E0C046280000503E
:104340002A601E602660401C082809D00B46834066
:104350001D062346103B002D2546F1D51D46EFE7EF
:1043600022602660204610381F99016021600021DC
:104370000E9D05E01A6006602660491C082906D0DB
:104380001346CB402B422346F4D00346F2E722608B
:104390002660002210462746259C27990B6839463F
:1043A00010390E603E60259DD5405B06DB172B4023
:1043B0001843521C082AF0D11F9A0A603A60002262
:1043C0000D9D05E01C600E603E60521C082A06D060
:1043D0002346D3402B423B46F4D00B46F2E73C60E9
:1043E0003E603043002105E01C6016603E60491CC1
:1043F000082909D002468A4013063A46103A002B93
:104400003B46F1D51346EFE73C603E603846103836
:104410001F99016039601999491F06E01460066010
:10442000F94A1660491C012904D000290246F5D03A
:10443000F54AF3E7F44F3C603E6000221046259CAD
:1044400027990B68394610390E603E60259DD5408E
:104450005B06DB172B401843521C082AF0D11F9A29
:104460000A603A600022079D05E01C600E603E6015
:10447000521C082A06D02346D3402B423B46F4D098
:104480000B46F2E73C603E6008990840002105E0D9
:104490001C6016603E60491C082909D002468A400B
:1044A00013063A46103A002B3B46F1D51346EFE788
:1044B0003C603E60384610381F9901603960199998
:1044C000491F06E014600660CF4A1660491C0129A6
:1044D00004D000290246F5D0CB4AF3E7CA4F3C602E
:1044E0003E6000221046259C27990B6839461039FA
:1044F0000E603E60259DD5405B06DB172B401843C0
:10450000521C082AF0D11F9A0A603A600022079DC7
:1045100005E01C600E603E60521C082A06D023464F
:10452000D3402B423B46F4D00B46F2E73C603E6062
:104530003F211691084300223C46259905E0296059
:104540001E602660521C082A09D0034693401D06AF
:104550002346103B002D2546F1D51D46EFE721608F
:104560002660204610381F9A02602260002205E073
:10457000196006602660521C082A07D00B46D340FB
:104580005B079B0F2346F3D00346F1E721602660CB
:1045900000231846279F3D682246103A1660266081
:1045A0000E46DE406D06ED173540219E28435B1C0C
:1045B000082BF0D11F9B13602360002305E02960C6
:1045C000166026605B1C082B07D00D46DD402627B1
:1045D0003D422546F3D01546F1E721602660D721FC
:1045E000179108400022259905E029601E60266089
:1045F000521C082A09D0034693401D062346103B4F
:10460000002D2546F1D51D46EFE722972160266053
:10461000204610381F9A02602260002205E01960CF
:1046200006602660521C082A07D00B46D3405B0761
:104630009B0F2346F3D00346F1E721602660002359
:104640001846279F3D682246103A166026600E469F
:10465000DE406D06ED173540219E28435B1C082B7C
:10466000F0D11F9B136023600023229F05E0296087
:10467000166026605B1C082B06D00D46DD403D42CF
:104680002546F4D01546F2E721602660304300222B
:10469000259905E029601E602660521C082A09D071
:1046A000034693401D062346103B002D2546F1D5B9
:1046B0001D46EFE721602660204610381F9A0260F1
:1046C0002260002205E0196006602660521C082A5C
:1046D00007D00B46D3405B079B0F2346F3D003461E
:1046E000F1E72160266000231846279F3D68224697
:1046F000103A166026600E46DE406D06ED17354016
:10470000219E28435B1C082BF0D11F9B1360236064
:104710000023229F05E02960166026605B1C082BA1
:1047200006D00D46DD403D422546F4D01546F2E761
:1047300021602660F82210400022259905E02960BA
:104740001E602660521C082A09D0034693401D06AD
:104750002346103B002D2546F1D51D46EFE721608D
:104760002660204610381F9A02602260002205E071
:10477000196006602660521C082A07D00B46D340F9
:104780005B079B0F2346F3D00346F1E721602660C9
:1047900000231846279F3D682246103A166026607F
:1047A0000E46DE406D06ED173540219E28435B1C0A
:1047B000082BF0D11F9B136023600023229F05E08C
:1047C0002960166026605B1C082B06D00D46DD4074
:1047D0003D422546F4D01546F2E721602660059952
:1047E00008430022259905E029601E602660521CBE
:1047F000082A0BD0034693401D062346103B002D8C
:104800002546F1D51D46EFE72800005021602660BF
:104810002246103A1F9810602060049821601660AC
:104820002660401EFAD12160266000231846279F8B
:104830003D68166026600E46DE406D06ED17354079
:10484000219E28435B1C082BF2D11F991160216027
:10485000199B259905E02960166026605B1C062BD4
:1048600004D0002B1546F6D02546F4E725992160A3
:104870002660F72210400022259905E029601E607D
:104880002660521C082A09D0034693401D06234681
:10489000103B002D2546F1D51D46EFE7216026602F
:1048A0002246103A1F981060206008202160166090
:1048B0002660401EFAD12160266000231846279FFB
:1048C0003D68166026600E46DE406D06ED173540E9
:1048D000219E28435B1C082BF2D11F991160216097
:1048E000199B259905E02960166026605B1C062B44
:1048F00004D0002B1546F6D02546F4E72599216013
:10490000266004211A9108430022259905E02960B8
:104910001E602660521C082A09D0034693401D06DB
:104920002346103B002D2546F1D51D46EFE72160BB
:1049300026602246103A1F981060206008202160EF
:1049400016602660401EFAD12160266000231846BA
:10495000279F3D68166026600E46DE406D06ED1707
:104960003540219E28435B1C082BF2D11F99116012
:104970002160199B259905E02960166026605B1C63
:10498000062B04D0002B1546F6D02546F4E72599D2
:1049900021602660FE21159108400022259905E03E
:1049A00029601E602660521C082A09D003469340E5
:1049B0001D062346103B002D2546F1D51D46EFE789
:1049C00021602660204610381F9A02602260002372
:1049D00005E02960066026605B1C082B08D00D46A8
:1049E000DD401D221C9215422546F2D00546F0E717
:1049F000216026600A46002528463146279B1E680E
:104A00002346103B196021601746EF407606F617E3
:104A10003E4030436D1C082DF0D11F991960216074
:104A20000025209F06E032602199196021606D1CED
:104A3000082D07D01646EE4023990E422646F2D0A6
:104A40001E46F0E722602199216038430023199A1D
:104A5000259906E03160219E2E6026605B1C082BA4
:104A600009D005469D402E062546103D002E2646BF
:104A7000F0D52E46EEE725982060266020461038B7
:104A80001F9901602160D31E259AF84905E02A602C
:104A900006600E605B1C032B04D0002B0546F6D08D
:104AA000F24DF4E7F14C226026600025284631469D
:104AB000279B1E682346103B196021601746EF4074
:104AC0007606F6173E4030436D1C082DF0D11F9935
:104AD0001960216000250A9F219905E03260196064
:104AE00021606D1C082D06D01646EE403E4226463B
:104AF000F4D01E46F2E72260219921601D990840FA
:104B00000023199A259906E03160219E2E602660C7
:104B10005B1C082B09D005469D402E062546103DFE
:104B2000002E2646F0D52E46EEE72598206026601A
:104B3000204610381F9901602160D31E259ACB4969
:104B400005E02A6006600E605B1C032B04D0002B7E
:104B50000546F6D0C54DF4E7C44C2260266000251A
:104B600028463146279B1E682346103B196021606A
:104B70001746EF407606F6173E4030436D1C082D71
:104B8000F0D11F991960216000250A9F219905E045
:104B90003260196021606D1C082D06D01646EE406B
:104BA0003E422646F4D01E46F2E72260219921605B
:104BB0000C9B18430023199A259906E03160219E29
:104BC0002E6026605B1C082B09D005469D402E06F2
:104BD0002546103D002E2646F0D52E46EEE72598B8
:104BE00020602660204610381F9901602160D31E86
:104BF000259A9E4905E02A6006600E605B1C032B27
:104C000004D0002B0546F6D0984DF4E7974C22606F
:104C10002660002528463146279B1E682346103B08
:104C2000196021601746EF407606F6173E40304384
:104C30006D1C082DF0D11F991960216000250A9F75
:104C4000219905E03260196021606D1C082D06D0A5
:104C50001646EE403E422646F4D01E46F2E722605B
:104C600021992160F02318400023199A259906E024
:104C70003160219E2E6026605B1C082B09D0054602
:104C80009D402E062546103D002E2646F0D52E4688
:104C9000EEE7259820602660204610381F990160B5
:104CA0002160D31E279C259A704905E02A60066082
:104CB0000E605B1C032B04D0002B0546F6D06B4D19
:104CC000F4E76A4F3A603E60002528463146266880
:104CD0003B46103B196039601746EF407606F617E1
:104CE0003E40624F30436D1C082DF0D11F99196072
:104CF000396000250A9C219905E03260196039600D
:104D00006D1C082D06D01646EE4026423E46F4D0D5
:104D10001E46F2E73A60219939600A211B91084347
:104D20000023259906E03160219E2E603E605B1CC9
:104D3000082B09D005469D402E063D46103D002E0D
:104D40003E46F0D52E46EEE7259939603E6038465E
:104D500010381F9A02603A60002305E0296006605F
:104D60003E605B1C082B07D00D46DD40ED066D0F45
:104D70003D46F3D00546F1E739603E600A4600251E
:104D800028463146279C26683B46103B196039600F
:104D90001746EF407606F6173E40344F30436D1C01
:104DA000082DF0D11F99196039600025219905E07F
:104DB0003260196039606D1C082D07D01646EE4030
:104DC000B606360F3E46F3D01E46F1E73A6021990B
:104DD0003960E02318400023259906E03160219EC8
:104DE0002E603E605B1C082B09D005469D402E06B8
:104DF0003D46103D002E3E46F0D52E46EEE7259965
:104E000039603E60384610381F9A02603A600023CD
:104E100005E0296006603E605B1C082B07D00D464C
:104E2000DD40ED066D0F3D46F3D00546F1E73960F4
:104E30003E600A46002528463146279C26683B46A8
:104E4000103B196039601746EF407606F6173E4072
:104E5000064F30436D1C082DF0D11F991960396041
:104E600000253C46249F219908E0C04628000050B8
:104E70003260196021606D1C082D07D01646EE4087
:104E8000B606360F2646F3D01E46F1E72260219E75
:104E90002660169908430021259A05E02A601E60C5
:104EA0002660491C082909D003468B401D0623466D
:104EB000103B002D2546F1D51D46EFE72260266008
:104EC000204610381F990160216000211C9D05E0DB
:104ED0001A6006602660491C082906D01346CB409C
:104EE0002B422346F4D00346F2E7226026600023DB
:104EF0001846279A1568214610390E602660259EAF
:104F0000DE406D06ED173540219E28435B1C082BC3
:104F1000F0D11F9B0B6023600023259A254607E0F4
:104F20002A60219C0C6034605B1C082B354608D03D
:104F30002E461546DD40239C25423546F0D00D46D1
:104F4000EEE72A6021992960FB21084000211C9C82
:104F500007E0259A3260219E1E602E60491C0829B8
:104F600009D003468B401A062B46103B002A2E46DA
:104F7000EFD51E46EDE72A602E60284610381F99AF
:104F800001602960002105E01A6006602E60491C5E
:104F9000082906D01346CB4023422B46F4D00346C3
:104FA000F2E72A602E6000221046259C27990B68A4
:104FB000294610390E602E60259DD5405B06DB1713
:104FC0002B40FD4D1843521C082AEFD11F9A0A604E
:104FD0002A60002205E01C600E602E60521C082A28
:104FE00008D02346D340239D2B42F34D2B46F2D0CD
:104FF0000B46F0E72C602E60FD210840002105E003
:105000001C6016602E60491C082909D002468A409F
:1050100013062A46103A002B2B46F1D51346EFE72C
:105020002C602E60294610391F98086028600820DF
:105030002C600E602E60401EFAD12C602E60002283
:105040001046259C279B1B680E602E60259DD54031
:105050005B06DB172B40D84D1843521C082AF1D1B0
:105060001F9A0A602A60199A06E01C600E60D24BF3
:105070001E60521C062A04D0002A0B46F5D0CE4BE7
:10508000F3E7CD4D2C602E60BF210840002105E0E4
:105090001C6016602E60491C082909D002468A400F
:1050A00013062A46103A002B2B46F1D51346EFE79C
:1050B0002C602E60294610391F980860286008204F
:1050C0002C600E602E60401EFAD12C602E600022F3
:1050D0001046279B1B680E602E602C46259DD540F0
:1050E0005B06DB172B402546259C1843521C082ADB
:1050F000EFD11F9A0A602A60199A06E01C600E60C0
:10510000AD4B1E60521C062A04D0002A0B46F5D077
:10511000A94BF3E7A84D2C602E60DF210840002149
:1051200005E01C6016602E60491C082909D0024663
:105130008A4013062A46103A002B2B46F1D5134617
:10514000EFE72C602E60294610391F980860286010
:1051500008202C600E602E60401EFAD12C602E605C
:1051600000221046279B1B680E602E602C46259D52
:10517000D5405B06DB172B402546259C1843521C67
:10518000082AEFD11F9A0A602A60199A06E01C606B
:105190000E60894B1E60521C062A04D0002A0B4662
:1051A000F5D0854BF3E7844D2C602E60EF2108404D
:1051B000002105E01C6016602E60491C082909D0FA
:1051C00002468A4013062A46103A002B2B46F1D598
:1051D0001346EFE72C602E602C46103D1F98286088
:1051E00000F0F2FF754A10681168091A0229FBD312
:1051F0001F9820600820259921602E602660401E9F
:10520000FAD12160266000210846279A12682E6094
:105210002660259BCB405206D2171A401043491CEA
:105220000829F2D11F99296021601999259B05E071
:1052300013602E602660491C062904D000292A46E6
:10524000F6D02246F4E7259D256026601599084092
:10525000002105E01D6016602660491C082909D060
:1052600002468A4013062246103A002B2346F1D507
:105270001346EFE725602660204610381F9901602D
:105280002160002105E0156006602660491C0829A0
:1052900007D02A46CA405207920F2246F3D0024650
:1052A000F1E72560266000221046254627990B6805
:1052B00029461039219C0C602C602E46259DD54036
:1052C0005B06DB172B403546259C1843521C082AE9
:1052D000ECD11F9A0A602A60002206E01C60219B24
:1052E0000B602B60521C082A08D02346D340229D15
:1052F0002B4235463346F1D00B46EFE72C60219E1A
:105300002E6017990840002105E01C6016602E6091
:10531000491C082909D002468A4013062A46103A39
:10532000002B2B46F1D51346EFE72C602E60284664
:1053300010381F9901602960002105E014600660A3
:105340002E60491C082907D02246CA405207920FF6
:105350002A46F3D00246F1E72C602E600022104668
:105360002C4627990B68214610390E602660259D32
:10537000D5405B06DB172B40259D1843521C082A9D
:10538000EFD11F9A0A602260002206E01D60219E74
:105390000E602660521C082A09D02B46D3402646B0
:1053A000229C234234463346F0D00B46EEE725607C
:1053B00026603043002109E028000050BC02002094
:1053C0001D6016602660491C082909D002468A40E3
:1053D00013062246103A002B2346F1D51346EFE779
:1053E00025602660204610381F9C2790046001F03D
:1053F000E9F9F9A001F03EFAFD4800210170FD48ED
:105400000470FD481C910170FC49885D01280CD195
:10541000FB481A990170FB4818210170FA48189945
:105420000170FA4805990170A1E02698079A8854FE
:105430002098885508688168490602D4F4491C9A66
:105440000A70CA224262532122914162F04B1B78BA
:10545000C4686406239212D4C468259D2C43C4609A
:10546000EC4C2468C5686D0609D40B99E94D2D688C
:105470002D1B8D4200D9ECE3C5686D06F6D59B0562
:1054800009990B4006994C041C43046020998B0435
:1054900084689C43846083688360C368259DAB43B4
:1054A000C36083689B0612D4DB4BC360D94B1B6877
:1054B0000B99C468A4060AD4D64C2468E41A8C421A
:1054C000F7D9CE4C079A1A99A154209B03E0CB4CF4
:1054D000209B079AA354FF21179141622699A1545A
:1054E000A3552399416222994162C64918220A7044
:1054F000C3491A9B0B70C449189A0A70C349059A8C
:105500000A70C168490611D4C1682943C160C14904
:105510000968C268520609D40B9CBE4A1268521A26
:10552000A24200D9A4E3C2685206F6D5BB49416045
:10553000C168A943C1608168890610D4B649C160B9
:10554000B44909680B9CC268920608D4B14A126833
:10555000521AA242F7D9A94A0799535403E0A74A1D
:105560002099079BD154179B1C999155436201F0D8
:1055700029F901F0D1F801F025F901F077F8A848F0
:1055800001F078F9A7480561209800050B90A6481E
:10559000441C9A4B0E941868816A01690268510292
:1055A000C90F9B4B197041680804430F9748239318
:1055B00003709002800F1B9E704313031B0FC318D0
:1055C0008C48229303705004400F704313051B0F47
:1055D000C31887481A93037053061D9802405B0F47
:1055E00073439C18844A14700A02120F72430B030F
:1055F0001B0FD618834A16700B0A1A460240DB06A8
:1056000000D50A327E4802708B061D9801409B0F20
:105610001B9843435B187C480370229800901A98AB
:105620000190029423980390F1B2804801F022F98E
:105630007F4800F00DFD2EAC1C982070F4202390C4
:105640002146209E3246FBF709FB217831432398FF
:1056500000F00EFC1E98279908606E4A10681168C9
:10566000091A4C29FBD3269B6E4C236027980760B0
:105670001C9800BF411C63280846FAD32361002010
:1056800000BF411C63280846FAD36A48076000201F
:1056900000BF411C63280846FAD300202946C140B8
:1056A0007122114201D0214601E0214610310B60E8
:1056B000002100BF4A1C63291146FAD327990F60C5
:1056C000002100BF4A1C63291146FAD359490F60D3
:1056D000002100BF4A1C63291146FAD3401C082848
:1056E000DCD12360002000BF411C63280846FAD3A8
:1056F00027980760204608380168002100BF4A1C2F
:1057000063291146FAD34B490F60002100BF4A1CA0
:1057100063291146FAD3002122910D4603E06D1C46
:10572000062D00D18AE023952360229900BF4B1CEF
:1057300063291946FAD300231C46194604E0314375
:10574000641C082C249F19D00E4627990F60194617
:1057500000BF4D1C63292946FAD3056835490F60FF
:105760002599E140269A1540002700BF7A1C632F37
:105770001746FAD3002DE2D12946E0E7269B294CB3
:1057800023602D4A239D5155042D12D823612949A8
:1057900010390F60002100BF4A1C63291146FAD35B
:1057A00024490F60002100BF4A1C63291146FAD327
:1057B000B5E7236027990F60002100BF4A1C6329C9
:1057C0001146FAD31B490F60002100BF4A1C632910
:1057D0001146FAD3A3E7C046616C6C2066756E6310
:1057E00020696E697420646F6E652E0A0A000000DD
:1057F000940200209002002096020020C8010020A0
:1058000095000020970000209600002094000020C2
:1058100098020020BC0200205FFF010021E4240068
:105820009F72000818040050881300003E7300089F
:10583000070000202800005078020020236100208B
:1058400000BF411C63280846FAD327980760002050
:1058500000BF411C63280846FAD32360002000BF24
:10586000411C63280846FAD3FE4D68780003A978E6
:1058700009010818E978239109094018FBF724F871
:1058800000242246F84BFAF719FD2246F74E33461C
:10589000FAF714FDFBF750F8FD490860287900027B
:1058A00023990907090B401869794018FBF70CF890
:1058B0002246F84BFAF702FD22463346FAF7FEFC81
:1058C0002246F54BFAF748FCFBF736F8F34E30600A
:1058D0002EA90C70F320209AFBF7C0F9F7200622BE
:1058E000E94D2946FBF7BAF9E94800683168EC4A06
:1058F00003C2688D19994143EA7812032B791B0181
:105900009A18AB781B091A93D318DB085918119B06
:10591000EB5E4B43D9120F9BEB5E1209101A40430A
:10592000000B584380134618DE48066013987043F6
:1059300080300012FAF7B4FF2246D44BFAF726FD66
:10594000FAF7FAFFD649C860D7483518EE1712980B
:10595000CD490A5ED31728463146FAF7ADFE2290AC
:10596000020D0903881823902846314618952A46C7
:1059700017963346FAF7A0FE06461498C24D2A5EE3
:10598000D31730461691FAF797FE0A06000A8018D8
:105990000912229A12031018239A5141209AD20315
:1059A00089182A8E2346FAF787FECB174910084636
:1059B000184375D0382015912A5E2293D317189872
:1059C0001799FAF779FE1890C20B490488182390AA
:1059D0003A202A5ED31730461699FAF76DFE189AC8
:1059E00052041018239A51410D9AAA5ED2008A18C7
:1059F00019990E396B784B4329782E46A04D69438F
:105A0000C9180B9B1A9D5B1B5B185908DB07181AFA
:105A1000914100232393A54AFAF74EFE159A229B43
:105A2000FAF724FE22900A46CB04410BC818511302
:105A30001546189202460B46FAF73EFE0C9AB25EE5
:105A4000D317FAF739FECA01400E80184E16229B72
:105A5000C0181A906E413E208B490A5ED517184631
:105A600018992B46FAF728FE4A03C00C8018C9146F
:105A70001A9A101871410A120906000A40183C21AE
:105A8000814B5B5E190FDD172D0169181B01C018D2
:105A90005141FAF727FF239A854BFAF70FFC01E0F3
:105AA00020462146844EFAF747FF8249FAF7B2FEB4
:105AB0007B4988602546304600F00CF90419681CC3
:105AC000072D0546F7D3A0B2FAF7E2FE1F214C06D8
:105AD0002146FAF762FE7949FAF79CFE784D29468D
