:020000040800F2
:10000000C8060020D50000088520000895130008C8
:1000100000000000000000000000000000000000E0
:10002000000000000000000000000000DD200008CB
:10003000000000000000000087200008E120000808
:10004000E3000008E300000889200008E30000083E
:10005000E3000008E3000008E30000083D09000891
:1000600000000000E3000008E3000008E3000008CF
:10007000E3000008E300000800000000E3000008BF
:100080000000000000000000000000000000000070
:10009000E300000800000000E300000899130008D6
:1000A00000000000E3000008000000000000000065
:1000B000E3000008611C00080000000000000000D0
:1000C0000348854600F088FA004800470D220008E2
:1000D000C806002003480047FEE7FEE7FEE7FEE70C
:1000E000FEE7FEE7C1000008421C0178401C002921
:1000F000FBD1801A7047F0B51FB40646002082B0CD
:1001000005464024019100901BE0019922460F46CC
:10011000304600F0A2FA049A059B801A994110D348
:1001200010461946224600F088FA361A8F41019788
:10013000224601200021009F00F07FFA38184D412F
:1001400000902046641E0028DFDC019B00982946B1
:10015000324607B0F0BD024670B54A40D30FDB0708
:1001600040002DD04A002AD0010E140E00021202C7
:100170000919400A520A8418E50104465443000A4A
:10018000120A2E045043A4194219200CC543AA1880
:10019000120C0125AD03521C521912047F3924049C
:1001A00000D0521C104301D44000491EC2B20C06BC
:1001B000C0092018401C4008802A02D003E000201B
:1001C00070BD40084000002900DA0020184370BDCF
:1001D00070B502464A40D50F40004A00ED0740087E
:1001E0005208002814D0002A12D0C40DD30D4102A9
:1001F0000120C0055202490A520AE41A09181218CD
:100200007D34914201D3641C00E04900002C01DAE6
:10021000002070BD0023914201D3891A0343400896
:1002200049000028F7D100290AD0914202D10121CA
:10023000C90705E0914201D2012101E00121C94332
:10024000E005C018401900F02CFA70BDF0B5074663
:100250000846584087B0C00F049048000E46590029
:1002600040084908BC1A884105D2384631461E4626
:1002700017460B4602465800400810434CD0300D3C
:10028000039040055900400D490D0590401A029019
:10029000402872DA18030121000B09050843019078
:1002A00004980092002805D001995242002088410C
:1002B00000920190029840210A1A0199009800F0DA
:1002C000BCF905460C466B4607CB00F0D7F9C019C0
:1002D0007141039A0E0D0023D71756401A467A40F3
:1002E000164344D0049A002A2DD0029A012A039A78
:1002F00015DC1205C01A914101263605001C71411A
:10030000D20F059ED2070093019202962A462346F9
:1003100000F015FA07B0F0BD38463146FAE7160589
:10032000224A0F46B218C01AB74101210905001C24
:100330004F4100187F41114618187941E20F1043D0
:100340006D19644113E0E2076D0815436408C207A4
:100350001443039A01261205C01A91413605001C68
:100360007141CE07400830434908C01851412A4620
:10037000234600F0D7F9CDE7FFE7049801224000BB
:10038000C117121A00238B4104983146C417381A3A
:10039000A141EEE730B40124E407634030BC55E7E7
:1003A00030B40124E407614030BC4FE70000E0FFB7
:1003B000F0B51FB488B00B990998002448400999FA
:1003C000C00F490049080991C0070B9900904900E6
:1003D00049080B9109990898A64608431CD00B9927
:1003E0000A98084318D0099801244000420D48009B
:1003F000410D099824050003000B204309900B9838
:100400000003000B20430B9050181C494018002299
:1004100001901446104605E0002001460DB0F0BDE5
:10042000032801DA034600E003239C46C11A0AAE02
:100430000AE05F0008ADED5B4F00F75B7D430027EE
:10044000AA187C41491C5B1E6145F2DD410004ABEA
:100450005A522104120C0A43240C401C0828DFDBEA
:10046000019802900099704601910090059B049AB2
:100470000799069800F063F9D0E700000DFCFFFF34
:10048000F0B50C465C4085B0E40FE40703944C00E3
:100490000026640859009446490802460296224301
:1004A00021D062460A431ED06200570D4A000E0357
:1004B0002303550D012402462C492405781B1B0BF0
:1004C000360B401823432643614600901C46501AC1
:1004D000B44103D30098401C009002E092180098A9
:1004E0005B41002803DA0020014605B0F0BD002082
:1004F000012109050746864611E064461D46141B86
:10050000B54106D36546521BB341744607430C43BD
:10051000A646CD0740084908284392185B41054686
:100520000D43EAD11046184313D060461946504097
:100530007140084306D06046101AB34106D201222A
:10054000002306E000220123DB0702E00122D24360
:100550005310009874460105381C6141029C039DAC
:100560000019694100F0DEF8BFE70000FD0300005C
:100570004A0009030123090B1B0519430A4B10B557
:10058000520D9A4202DA0020014610BD064B343368
:100590009A4203DC9A1A00F060F810BD034BD2189F
:1005A00000F04BF810BD0000FF030000CDFBFFFF83
:1005B00010B5002904DB0124E40740428C412146A8
:1005C000002B04DB1C460123DB075242A341994266
:1005D00000D1904210BD0000064C0125064E05E0FA
:1005E000E36807CC2B430C3C98471034B442F7D354
:1005F000FFF76AFDE47200080473000870B5044652
:10060000002903D000202022012310E0002801D07F
:100610000020C043C046C0460DE02546D5408D426F
:1006200005D30D469540641B1D469540401915465F
:10063000521E002DF1DC214670BD10B5202A04DBCE
:100640000146203A9140002010BD914020239C1A81
:100650000346E3401943904010BD10B5202A04DB47
:100660000846203AD040002110BD0B46D340D04070
:100670002024A21A91400843194610BD10B5202A23
:1006800006DBCB170846203A1041C1170B4306E0A2
:100690000B461341D0402024A21A9140084319462A
:1006A00010BD002904DA401C490001D14008400077
:1006B000704770B40024050C05D11024000402D149
:1006C000002921D01124050E01D100020834050FA4
:1006D00001D10001241D850F01D18000A41C002838
:1006E00001DB4000641C002908D020252E1B0D468C
:1006F000F540A14000D001212943084301061B1BFE
:10070000000ADB1D02D5002070BC7047DB051818FD
:1007100080180029F8DA401C4900F5D170BC400867
:100720004000704710B5002B08DA0024401C6141DE
:1007300092185B411A4301D14008400010BDF0B54A
:100740001FB482B005460C0003D0084606F0C8F876
:1007500002E006F0C5F82030024600902146284607
:10076000FFF76BFF049B059A04460F46184311439D
:10077000084314D0184610431BD0009840210A1A91
:1007800018460599FFF769FF05460E46009A059938
:100790000498FFF752FF084305D0012004E02046EB
:1007A000394607B0F0BD0020C11705430E432C4366
:1007B000374300990E986305401A7905E40A002230
:1007C0000C43FD0A0A3002D500200146E9E7010585
:1007D000101969410C9C0D9D00196941FFF7A2FF9A
:1007E000DFE7F8B500242546002904DA0E46012487
:1007F00000214042B141002B04DA1E460023524240
:100800000125B341FFF777FC8C4617461E46AC42E4
:1008100003D0002540428D41AC46002C02D000267A
:1008200057429E4161463A46334601B0F0BD30B56D
:10083000434351435C18010C130C0D465D432C19C6
:1008400080B292B20546554351430A0C09044D1932
:1008500062415843010C00044019514130BD10B5AC
:10086000002296231146FFF724FF10BD0EB5C217D4
:10087000C10F5040CA0740180021054B0293019256
:1008800000910A460B46FFF75AFF03B000BD000077
:10089000330400000EB505490291002100910A467B
:1008A0000B460191FFF74BFF03B000BD330400007E
:1008B0003EB5CA17CB0F002450405140C0186141CB
:1008C000DA07054B02930192009422462346FFF774
:1008D00036FF03B030BD000033040000C20FD20762
:1008E000400040080BD0C10D0723DB01C9184002AE
:1008F0000905400A1143C208400711437047002010
:1009000001467047CB0FDB07490010B54908024686
:100910000A4307D00A0D07240903E401090B121B3F
:10092000002A01DC002010BDC900440F0C43C100A7
:10093000E018D2058018FFF7B4FE10BD80B504485A
:100940000168090603D58021016003F05BFA80BDD0
:1009500014040140F0B581B05024264D285D0128D3
:1009600031D02868816849071AD423490F68234980
:100970003940234A1268234E234B9A4215D1826A8A
:100980008A438262780304D50120C005316881431F
:100990003160B80315D501208105306888430FE028
:1009A000686D2021014369650BE0826A0A43826217
:1009B00078030AD4B80304D50120810530680843C0
:1009C00030600020285501B0F0BD0120C00531681D
:1009D000014331600D4800680D49FFF70FFE0A2101
:1009E0004143009100980028E4D00098401E0090F8
:1009F000F8E7C046FC00002080020020FFFF07004F
:100A0000840200200827014001100000000000209F
:100A100040420F00F0B589B00A68002A00D1B2E068
:100A20000F465A49884201D0062100E00521009175
:100A30000124002508950394059701900DE03243A9
:100A400053490A603A681146E140AD1C089B1B1DE2
:100A50000893641C002900D195E0611E039E079154
:100A60008E403240EED0029203221046A840C0438E
:100A700079680B46049213405F1E012F069011D82F
:100A80000246019887681740059AD268AA403A43FF
:100A90008260CA06D20F079FBA404768B743174320
:100AA000476004E0032B019801D1059F1CE0C26858
:100AB000069E3240059FBE68AE401643C660022BBC
:100AC00012D11C21089A11400F238B40079AD2089B
:100AD00092008218166A9E433B698B40334313622F
:100AE00079680B46049A1340AB400268069E324078
:100AF0001A4302608903890FA4D0264B1A6801218A
:100B00000A431A600C27089A17400F22BA40079E22
:100B1000049B9E43204BF35893431F4AB61805226B
:100B20001207904208D01D4A904206D01C498842C4
:100B3000009902D1022100E00021B940194331603F
:100B400013488368059F7968CA0202D5029E334321
:100B500001E0029EB3430E4A9360D3688A0201D536
:100B6000334300E0B3430A4AD36053688A0301D594
:100B7000334300E0B343064A53601268C90300D50B
:100B80005DE7B2435CE709B0F0BDC046001C005011
:100B900000040140341002400800014000040050ED
:100BA00000080050F0B582B04023504AD55C412483
:100BB000165D202E47D1012D45D022251555422402
:100BC0001025155500245464518501214E06D66226
:100BD000506247485063508D000A04D0FF201085B2
:100BE0000806444D05E0558D1585D06AEDB22D04FB
:100BF000EC35176B122F01D1264613E0D76AAA2FC6
:100C000001D1002608E055277F020197D76A00919D
:100C100001998F42009900D1D662578D0B4EFF2F5C
:100C200000D8D06AD454730D344C5C4012685368B9
:100C3000234028433043C907884318435060106855
:100C4000F4210143116002B0F0BDC04600240080D1
:100C5000F0B5402225498C5C4123CD5C202D43D149
:100C6000012C41D02124CC5442231024CC54002404
:100C70004C6401234B85CC6248621D484863488D13
:100C8000000A04D0FF20088518061A4D05E04D8D96
:100C90000D85C86AEDB22D04EC350E6B112E01D115
:100CA000264610E0CE6AAA2E01D1002605E0CE6AC3
:100CB00055277F02BE4201D15E06CE624F8D0E4E99
:100CC000FF2F00D8C86A8C54720D0C4C5440096830
:100CD0004A68224028433043DB079843104348606A
:100CE0000868F22202430A60F0BDC04658010020A5
:100CF00059160008EC00FF0000200080009C00FC5A
:100D0000F0B587B0044603689806534D1AD4980787
:100D100038D458073FD4180707D503200003291FEC
:100D20000A6882432069104308600021180600D435
:100D30008EE0032080042A1F1368834360691843F0
:100D4000106085E0069401210C07284618380268D7
:100D50002240059202D102682243026004940E02EE
:100D60003E4A1468E40521D41468344314603C4CB2
:100D700027681568354219D12568ED1B642DF8D90F
:100D8000032165E0281F01680C229143A2680A43F1
:100D900002605807BFD503208002291F0A688243DA
:100DA000E068104308601807B7D4BEE7019003203D
:100DB00003900404069A576838462040264A503A61
:100DC000156802977D40AD02AD0F04D0A04202D15C
:100DD0001568AD033CD4204D2D68254011D08542C7
:100DE0000FD01D4F3D680095C9043D680D433D601F
:100DF0003D688D433D60009D2946A14339603542E1
:100E00001AD1A04209D103990905029D0D40032181
:100E1000090514688C432C4314600F4D2968014365
:100E2000296005990029069C00D070E701980168A7
:100E3000049A914301606AE709490E68094F064D1B
:100E40002D68AD05DDD40D68AD1BBD42F7D9039902
:100E5000084607B0F0BDC046501002400070004088
:100E6000BC02002088130000F0B587B000284FD0E6
:100E7000464DE9680C220A400492012103910904BD
:100E8000EA6802910A4005900168C80711D00498E9
:100E9000082806D004980C2800D0C7E0002A00D10A
:100EA000C4E02868800304D505984068002800D174
:100EB00055E288072FD4C8066CD4080700D582E015
:100EC000480700D595E00598406A00281DD0049990
:100ED0000C2900D042E1012800D140E2E868029AE2
:100EE0000240059B996A8A4200D038E20F218904AA
:100EF0000140DA6A914200D031E2032189050840BD
:100F0000196B8842039800D0CBE1002007B0F0BDF8
:100F1000012007B0F0BD0598C068830604D52B6892
:100F2000202423432B60A043049B042B06D0049B66
:100F30000C2B00D088E0002A00D085E02968490702
:100F400002D5002800D10AE21F2109026A688A43FB
:100F500005990969090211436960296809229143C9
:100F600001432960E9680807820F09485200C0461A
:100F70007A4492885200974403005101C8015601F7
:100F800068680004410F02988840BEE100100240EA
:100F900000127A00049800287DD0286801235A02A4
:100FA000059CA4691B02002C00D1C9E018432860ED
:100FB000EC4803682C68144200D0EDE00468E41AA1
:100FC000022CF7D912E0286D059A5269002A00D147
:100FD000A7E0012210432865E24802682B6D9B07B9
:100FE00000D56DE703689B1A022BF7D9032007B0E1
:100FF000F0BD01231907A86B0840019002D1A86B2E
:101000000843A86300911902E04A1068C0052FD474
:10101000106808431060D34E37681068084227D123
:101020003068C41B0320642CF7D93AE10598406866
:1010300005231B04984200D1BFE0029CA04200D0CF
:10104000C4E02B682343CCE02A68002800D1FAE0F2
:1010500009239A4302432A60C24A1368286840075A
:1010600000D5FFE01068C41A0320022CF6D918E15D
:1010700005988068002807D005221202904200D10E
:10108000FAE0884200D1FBE02A6D8A432A65990282
:101090002A6D8A43F6E02868800504D505988069A2
:1010A000002800D15BE10727780369688143059A2E
:1010B000106A014369606968B04C2140D269120628
:1010C00051186960410B02988840E9680906090FC8
:1010D000A84A515CC840A84908607D21C900FFF7B3
:1010E0008DFA411E080E00D039E1A548037822464A
:1010F000A44C6160A4490E68164003229207B618FA
:101100000E600026A6602760012B00D027E10B6847
:101110009A4C234013430B6001210170059801682C
:10112000CBE60122904328658E4A1368286D80071C
:1011300000D4C5E61068C41A0320022CF6D9B0E02A
:1011400098432860874B1E682868104200D1B4E697
:101150001868841B0320022CF6D9A2E001210A069C
:101160002B6893432B6049067E4A1368022809D1F5
:101170002868084200D1A9E01068C41A0320022C94
:10118000F6D98EE02868084200D1BEE61068C41A7D
:101190000320022CF6D984E0072040036A688243CA
:1011A000059B186A10436860FF2000066A68824346
:1011B000D8690006801868607FE6039B9B042E6850
:1011C0001E432E602B68029C23430AE02B68A34336
:1011D0002B602B6823400693069B039B9E042B6881
:1011E000B3432B605F4B1E6800280BD00398470465
:1011F0002868384200D05CE61868841B0320642C01
:10120000F6D94EE0039847042868384200D150E6EA
:101210001868841B0320642CF6D942E02868C006B5
:1012200052D5524871E08A02120F4F4B9A5C090264
:10123000890F491CEB68029C234263D12868C006D1
:101240005FD44B485EE0012082432A60454A136820
:101250002868400700D42EE61068C41A0320022C28
:10126000F6D91EE01F2000026A68824305980069D3
:101270000002104368601EE69A022C6D14432C6530
:101280002A6D0A432A6537490A685B02404E0028E6
:101290000ED0286D18420ED10868841A0320B4427B
:1012A000F7D907B0F0BD0868841A0320B442F8D813
:1012B000286D1842F7D10198002800D003E6A86BEA
:1012C00000998843A863FEE529481EE0FD2000043C
:1012D000EB688343059E283651CE184320433043A4
:1012E000E8602648401C2B6803432B60136828687D
:1012F000084200D009E61068C41A0320022CF6D96F
:10130000CFE71A485043FFF779F9E9680906090F52
:10131000184A515CC840184908607D21C900FFF790
:101320006DF9421E100E1AD1144915480478154E55
:101330007260154A17680F4003239B07FF18176058
:101340000027B76007273760012C08D114680C40CC
:101350001C4314600121017005980168ABE50398F6
:1013600007B0F0BDBC020020E271000800093D009A
:101370000024F400EB71000800000020FFFFFF00D4
:10138000C002002010E000E020ED00E0007000400E
:1013900088130000FEE70000F0B581B02248036822
:1013A0009C6999691A686405640F36D080242240CC
:1013B00056425641012425020F462F40784278417B
:1013C000194F304304D1786C012606437E64DD61F9
:1013D000554255414805264600D52E46002E05D1DA
:1013E000A0027D6C08262E437E64D861554255418B
:1013F0008805214600D52946002905D16002796C6F
:1014000002220A437A64D861796C0B20014209D028
:10141000054800F021F801B0F0BD436B002B01D06E
:101420000148984701B0F0BD58010020806A816BE7
:10143000002901D000228A6301464031C26B002A94
:1014400001D0002393634A78602A01D120224A7098
:1014500000220A700263704770B502464032557828
:1014600000249470484BC3624485436C0B4343642F
:101470005378283D022D05D828210B40282B25D054
:10148000F22324E0517803681968FE25A943196006
:101490009969890700D59C629969C90703D199693F
:1014A00001250D439D61517860291ED02021517086
:1014B0009D69AD0619D59D69ED0605D51025DD613F
:1014C000456C04262E434664D9610EE042235478CD
:1014D0000C40282C01D0B42400E004241C430368F1
:1014E0001D68A5431D605170284C4463046B816BDB
:1014F00000290BD0212C01D0112C07D10C4624340B
:101500001D686D0413D50125AD030DE0C16B0029E5
:1015100010D0222C01D0122C0CD10C4624341D6882
:101520002D0404D50125ED031E68AE431E606378CB
:10153000012B08D15178602901D12021517000215F
:101540001170016370BD00201070114A8A636278C7
:10155000022A12D10A6813680E25AB431360136880
:101560000125AB4313600A6C4B6C1C261E402B46B6
:10157000B34053602070657001E00420C8630846E2
:10158000FFF754FF70BDC0460000FFFF9118000830
:101590002D140008B0B50146403100228A704C7805
:1015A00020234B70F423DB43212C09D11124046345
:1015B00042634C7828252540282D0BD09B1C0AE03F
:1015C0001224046342634C7828252540282D02D13B
:1015D000B03300E0B233006804681C4004600A7055
:1015E000B0BD0000B0B501680C680246403200236F
:1015F0009370650403D4240405D5164C00E0144C04
:101600000D6825400D605478292C0BD12824547086
:101610002125056355782540F420C043282D10D09E
:10162000801C0FE054782A2C10D1282454702225D5
:10163000056355782540F420C043282D02D1B030F1
:1016400000E0B23013700A6802400A60B0BDC046C4
:10165000FFBFFFFFFF7FFFFFF0B583B00D460446DD
:101660004020215C012902D1022003B0F0BD1646C2
:101670002746403701233B7011462940CA0617D43C
:101680004A0728D48A0736D42A0641D530403FD0AD
:10169000608D0028019303D0208D002800D1A8E0A0
:1016A0002068406880013CD42046FFF773FF3CE08F
:1016B00020681021C161616C04220A43626481695F
:1016C000890701D5002181628169C9072ED181690D
:1016D000194381612AE0606A2168496A0170606A81
:1016E000401C6062208D401E2085608D401E6085FC
:1016F000042085431AE02068616A0A788262481CE7
:101700006062208D401E2085608D401E60850DE04A
:1017100048060BD5608D00287BD0402120460193E0
:1017200001E040212046FFF797FE019B2E40B006C6
:101730005BD5019321682020C8617A787B78212AC3
:1017400007D128221340F422D243282B0DD0921C1B
:101750000CE0222B0FD17A7828231340F422D243B5
:10176000282B00D1B032122301E0B23211230E68CF
:1017700016400E6023634A68444B13404B600022BE
:1017800062633F4BE362EB0605D51023CB61636CCC
:1017900004261E4366647B786D0705D5602B03D154
:1017A0004B6ADBB20293029B8B699B0700D58A626E
:1017B0008B69DB0703D18B69019D2B438B61616CC6
:1017C0007B78602B0DD000290BD17978212902D0AC
:1017D0007978222909D1787022633A70B878BA7082
:1017E00003E0616C2046FFF737FE0020387003B03D
:1017F000F0BD2068426821491140628D120A15D05F
:10180000FF22228542681F4B13405918019B1E4A34
:101810001DE020684168890188D4E16A184A914234
:1018200027D1990342680A4342607FE7628D0092A4
:101830002285E36A124A93420CD14268114B13404D
:10184000009AD2B212045118C918019B5A0689187D
:1018500041606BE7019AD207E36A9343009AD2B2E0
:101860001204511819434268064B13400B4343605E
:101870005BE720460193FFF78DFE56E7FF0300006C
:101880000000FFFF009C00FC0000FF0100E800FEDC
:10189000F0B587B004464020205CE36A012802D1FD
:1018A000022007B0F0BD16462746403701200690BB
:1018B000387005910E40B00600D4D6E0039322683C
:1018C0001568787820210291D161F7210140F42038
:1018D000C0430490212905D022290AD1049B083B4A
:1018E000222101E00498831F787810681840106066
:1018F00021630698C1035068084350605068D34B79
:10190000034053609069800701D500209062906980
:10191000C00703D19069069B184390610698830322
:10192000680408D40D420FD0106888431060E56B3E
:10193000002D06D108E0106898431060A56B002DBB
:1019400002D0286840686085059D68070ED5606AEA
:10195000526A0270606A401C6062228D0025002A73
:1019600004D0501E2085608D401E60850195608DDD
:10197000002803D0606C0422024362640025BD701D
:101980006563606C00282ED0616C2046FFF764FD13
:1019900078782828039B68D1AD48E06225630298D7
:1019A00078706563BD700198400712D5606A216840
:1019B000496A0170606A401C6062208D002808D06E
:1019C000618D491E6185401E2085606C04210143A4
:1019D00061647878787820680168FE22914301601C
:1019E0001021C16140E0E06A994A904205D17878BF
:1019F000029878702563039B36E022681068BD70FA
:101A0000184204D10842039B06D0934901E0914952
:101A1000039B106808401060787829280AD1282094
:101A200078702121216379780140282910D0049809
:101A3000801C0FE078782A2811D128207870222184
:101A4000216379780140282905D10498B03001E05C
:101A50000498B230049010680499084010607C48E3
:101A6000E0620298787025633D70F00617D4700725
:101A700028D4300778D4B00700D4D2E0608D002895
:101A800000D1D2E02068616A0A788262481C6062F4
:101A9000208D401E2085608D401E6085C1E0608DD8
:101AA000002831D020681021C161606C04210143FD
:101AB00061646A48034200D0B3E0616C2046FFF7DE
:101AC000CBFCAEE0608D00280CD0606A2168496ACA
:101AD0000170606A401C6062208D401E2085608D10
:101AE000401E6085608D002800D09AE058488342EF
:101AF00000D196E0206802680021B970530463D4D5
:101B0000120465D5544A60E07878282846D10698B2
:101B10004006834242D14E48E062002020632021EB
:101B200079706063B8700599490712D5616A2268B7
:101B3000526A0A70616A491C6162218D002908D0CD
:101B4000628D521E6285491E2185616C04220A4302
:101B500062647978797821680A68FE239A430A607A
:101B600038701020C8615CE0787828210140206836
:101B700028294DD1816981698268C368E368022B95
:101B800005D1090CD2094A405107890F54D00021D0
:101B900039700168B8229143016042E07978206889
:101BA0001022C26129293CD129498B4239D081694F
:101BB000890701D5002181628169C9079BD18169AB
:101BC000069A1143816196E7224A03681340036035
:101BD0007A78292A0CD128227A702123236339703C
:101BE0007B781340F421C943282B16D0891C15E0BB
:101BF0007A782A2A15D128227A7022232363397011
:101C00007B781340F421C943282B07D1B03105E07C
:101C1000002139700821C16103E0B23102680A4035
:101C200002600020387007B0F0BD0C480342F8D1C4
:101C30002046FFF7D7FCF4E7A16C491CA164A16C16
:101C40000229EED10021A164E3E7C04600E800FECE
:101C50000000FFFFFFBFFFFFFF7FFFFFFFFFFFFE53
:101C6000F0B587B0CB4B1868C2690768202105978B
:101C700004910F407942794101240694E6023446EA
:101C80002F341440203C651EAC410C43856855D070
:101C900031460F3103920A42059B07D0BE491940D5
:101CA00001222C461440611800D08BE01026194602
:101CB00031404C424C41039A114631404F424F4112
:101CC000B449096E0129069900D1394600290699BF
:101CD00000D12146002939D00124A1050D406E42D2
:101CE0006E41D102069900D53146002900D1DDE0D0
:101CF00080211940484248411106069900D5014605
:101D0000002900D1A2E1402003405D425D4151061F
:101D100000D5069506990029D74D00D09BE1EFF339
:101D2000108184F310882A6813688343136081F359
:101D300010880020E8660498E8678CE1996E002915
:101D400000D188E1CC48884707B0F0BD06628068C2
:101D5000400600D5AEE05A22C74DA85A5821695A0C
:101D6000AA5A002A00D176E1814200D173E1EFF353
:101D70001081012080F31088092252012B681C6811
:101D800094431C6081F31088EFF3108180F3108876
:101D90002A6893688343936081F310888021049AB2
:101DA0006A500021A9662966EFF3108180F310883C
:101DB00028680268B243026081F3108802206866D6
:101DC00007B0F0BD110219404D424D410399C907BA
:101DD000069900D0294600290292134607D10362D2
:101DE0008421A54A5558029B1D435550029B6542CC
:101DF0006541039A9107069900D5294600290BD120
:101E00000221016284219C4B5B5801930425019BB4
:101E10001D43994B5D50029B6542654151070699F0
:101E200000D5294600290BD1042101628421924B5F
:101E30005B5801930225019B1D438F4B5D50029B14
:101E40003C43654265411107069C00D52C46002C99
:101E5000894D09D1082101628424874B1D59029BB9
:101E60000D4385490D51844D9906059B0B405C42FD
:101E70005C413242069B00D02346002B05D106620E
:101E800084216B58049C23436B50842429590029D6
:101E900000D1E0E004990A407B427B41002A00D057
:101EA00006930699002961D0029B67E02105016233
:101EB00007B0F0BD704F786F01684A6890B2002893
:101EC00000D1C8E05823FB5A984200D3C3E05A20FF
:101ED0003A520968890600D5C3E0EFF31082012168
:101EE00081F31088664B20333C6825681D402560CF
:101EF00082F31088EFF3108281F310883B689C68AE
:101F00008C439C6082F31088EFF3108281F3108879
:101F10003B689C684025AC439C6082F3108880221B
:101F2000049BBB5000223A66EFF3108381F31088C4
:101F30003C682568B543256083F310887C6F234691
:101F400024335D78022D00D087E025682E680E27A7
:101F5000BE432E602E688E432E60256C646C1C265A
:101F600026400C46B4406C60597078E0A96E002998
:101F7000029B03D028468847029B286829592822BB
:101F80000A40816840200140891807D1002028516B
:101F900007B0F0BDD001002020010004EFF3108154
:101FA00083F31088092252011E462B681C68944353
:101FB0001C6081F31088EFF3108186F310882A6883
:101FC0009368B343936081F31088296E01290BD184
:101FD000EFF31081029A82F310882A6813681024A4
:101FE000A343136081F310888021049A6A50002172
:101FF0002966A9662A68926852062CD5EFF31082EA
:10200000029B83F310882B689C6884439C6082F356
:102010001088686F00281ED002462432174B836355
:102020005378022B22D103681C680E25AC431C6038
:102030001C68029EB4431C60036C446C1C25254044
:102040003446AC405C601170567011E00A48C16EB5
:10205000002900D076E607B0F0BD0421E1631A70D4
:10206000054F02217966385A07B0F0BD0421C163DB
:1020700000F03CF807B0F0BDD0010020ED200008D2
:10208000DFFEFFFFFEE7704710B5012041040F4A55
:1020900011600F490A689368DB0408D5D368DB0533
:1020A00005D5D3680B4C1C4303029C43D460936852
:1020B0009B0408D5D3689B0505D5D368064C1C4303
:1020C00043029C43D4602122885410BD1404014073
:1020D000AC0100207FFEFFFF7FFDFFFF7047000087
:1020E00049480168491C01607047C046806A014642
:1020F000523100220A81522142527047F0B583B01A
:102100000668F4690C4000258C4202D1284603B0D1
:10211000F0BD02950190783000900120C5023A4C44
:1021200003E0F7690F408F4239D02768BF1A9F42FA
:1021300032D837687F07F4D5F7693F0732D4F7699B
:102140002F42EED03562EFF31080012282F3108827
:1021500009214901019E33681C688C431C6080F38F
:102160001088EFF3108082F3108831688B689343F6
:102170008B6080F31088336E03202021012B39D12E
:10218000EFF3108382F31088326814681025AC4393
:10219000146083F310882DE0032003B0F0BD029893
:1021A00003B0F0BD08213162EFF3108280F3108894
:1021B00009235B01019E346825689D43256082F3F5
:1021C0001088EFF3108280F3108833689C68844392
:1021D0009C6082F31088326E012A0BD1EFF31082DB
:1021E000012080F3108833681C681025AC431C6004
:1021F00082F31088009B20229A6000223266B26629
:102200001A70D96003B0F0BDBC02002000B5ABB0BD
:102210003748016840220B92114301607D201390E2
:10222000C400344800682146FEF7E8F9401E010E5C
:10223000012206921707FE4E00291AD1FD49486077
:10224000FD480268FD4D2A4003239B07D218026017
:1022500000228A6007220A6001682940C9180160CB
:10226000FB4806990170B0680843B060F0683843D5
:10227000F06001F07DFA02F005F901F0C9F9F068AB
:102280003843F06001256902FB4A10681B9108433E
:1022900010602146183110681A9108431060FDA0A3
:1022A00002F0A0FBF5A0EBA1ECA2EFA302F09AFBD9
:1022B000109528040590304620380A9002681007CF
:1022C000800FEC4D800002A1085829468746C04681
:1022D000E1220008F92200083D2300080923000834
:1022E000D348283800680004400F0599814025E054
:1022F0000020024000000020CD482C380068C006B5
:10230000F4491BD5F44919E09002000FF349085C29
:102310001102890F491C0A9A1268059B1A4206D1BC
:10232000C34A2C3A1268D20603D4EA4A02E0684350
:1023300001E0E94A5043FEF761F90146E84802F03E
:1023400051FB01F015FA02F09DF8B94BD8683843FB
:10235000D860DF4A10681B990843106010681A990A
:10236000084310601868022121910843186018681A
:102370000840249024981497002727972697109EAA
:10238000259628972496D74D183D24A92846FEF770
:1023900041FBD448066101F09FFB01F0D9FB00F03E
:1023A000CBFFA34A106821990843106010680840C9
:1023B00024902498259626972897279708201C90E4
:1023C000249024A912952846FEF724FB02F07CFBFA
:1023D00002F002F801F0ACFF219BC3491420087001
:1023E000C2480A2111910170C14816970770149DC7
:1023F0002021C04A505C012817910DD1BE4804210C
:102400000170BE4818210170BD480D210170BD4802
:10241000062101701099A0E02120239013541098F8
:10242000505410688268520602D4B74A1699117047
:10243000CA212291416253234362B34D2D78C6686D
:10244000760614D4C66880273743C760AF4E376816
:10245000C16849060BD43168C91BA142F8D90421CF
:10246000A44A239E9155C1681099219F2AE0A9058D
:10247000109EB5050D408121490369180160B10422
:1024800085688D43856081688160C1688025A94326
:10249000C16081688906219F10D49D49C1609B4D10
:1024A0002E68C168890609D42968891BA142F8D918
:1024B0000421904A239E9155109903E010998D4A6A
:1024C000239E9155FF2545629755179E9155229958
:1024D00041624362894918220A70874904220A70BE
:1024E00087490D230B70874906230B70C168490685
:1024F00012D4C16880230B43C360844B1E68C1683B
:10250000490609D41968891BA142F8D9794F239942
:102510007A54C16810991BE07E494160C1688023EC
:102520009943C16081688906724F0ED47849C160B1
:10253000764B1E68C168890607D41968891BA142B9
:10254000F8D923997A54109902E01099239AB95432
:10255000169A179BFA544562149D0B02C8431990B2
:10256000334E209301F004F901F08CFFF06828430A
:10257000F060574F38681B990843386038681A99DB
:10258000084338603068219908433060306808405B
:1025900024902498169F27972697109D2595289775
:1025A000249524A91298FEF735FA4E48056101F0EA
:1025B00093FA01F0CDFA00F0BFFE3068219908438C
:1025C00030603068084024902498259526972897F5
:1025D000279737461C98249024A91298FEF71AFAD8
:1025E00002F072FA01F0F8FE01F0A2FE01F0C0F86C
:1025F00001F048FF01F00CF8F06814990843F0600E
:10260000334908681B9A1043086008681A9A1043F7
:10261000086001F0E1FE01F08BFE0A9802681007E5
:10262000800F800006A10858124D2946314E87467A
:102630002C10024010E000E020ED00E0FFFFFF0062
:10264000C1260008192700085D270008292700086F
:10265000C0020020766572312E3200004170722077
:10266000323020323032340031363A34343A333377
:102670000000000000127A00007000402573204323
:102680006F6D70696C652074696D653A20257320E3
:1026900025730A00576972656C657373205765610D
:1026A000746865722053746174696F6E205472612E
:1026B0006E2062795369676874736565722E0A00CB
:1026C0003846283800680004400F0599814045E0ED
:1026D000007000400024F40000093D00E271000891
:1026E000D5720008180400509402002090020020C7
:1026F00096020020AC010020780000207A00002023
:10270000790000207700002098020020BC02002001
:102710005FFF010013C4240038462C380068C0064F
:10272000FD491BD5FD4919E09002000FFC49085CEA
:102730001102890F491C0A9A1268059B1A4206D198
:102740003A462C3A1268D20603D4F34A02E06843B0
:1027500001E0F24A5043FDF751FF0146F14802F013
:1027600041F93068816A016901684A02D20FEE4B73
:102770001A7040680204530FEC4A229313708A02C5
:10278000920F119D6A430B031B0FD318E84A239342
:1027900013704A04520F6A430B051B0FD318E54A06
:1027A0001E9313700F274A063940520F6A4351187F
:1027B000E14A11700202120F6A4303031B0FD31880
:1027C000DE4A1D931370030A1A461F973A40DB0630
:1027D00000D50A32DA4B1A7083061F9D28409B0FE2
:1027E000119D6B431B18D7480370CEB21E9FF9B2E0
:1027F0002398C5B2009518910191029622980390F2
:102800001D98C1B2D04802F0EDF814363C21304694
:102810001591FDF7F3FECDA002F0E4F81398010244
:10282000CE480068FDF7EAFE60432490179BCC4831
:10283000C05C012800D187E0CA480F967043420D62
:102840001598424321202199C54E1D90315410996D
:10285000F15431688B680A2D169B0CD323980A38E3
:10286000C3B2CD255D43EB0A0925ED435D4328182E
:1028700023901B0110330F98821A23981843C3B278
:102880001D0418980A28169B0AD30A3FFBB2CD26CE
:102890005E43F30A0926F6435E43F7191B01103322
:1028A0001F43FBB21B022B43D5B20A2D169D0AD340
:1028B0000A3AD5B2CD266E43F50A0926F6436E4391
:1028C000B2182D011035CA264E6253264E62A64814
:1028D000064680368F6837408F60CE688027374045
:1028E0000743CF602A43D2B21343229802069A18B4
:1028F0009E480243179E9A4F249B5B1E2493249B61
:10290000002B1AD0CB68DB07F6D0CA611F980206ED
:102910004A648A68209B1A438A60109D2A038B6848
:1029200013438B60924AA1329248036813430360B9
:102930008368134383602A4600E003220023BB55CB
:10294000FF234B621D983A5401208B4F38608B480F
:1029500001F006F824A8FF21079101702AA8F321AD
:102960000170FEF775F9864A10681168091A032983
:10297000FBD324A801211891FEF714F9804A1068AE
:10298000219D209E1168091A0329FBD329A8F7214C
:102990000170FEF75DF97A4A10681168091A032977
:1029A000FBD306217748FEF7FDF8754A10681168D9
:1029B000091A0B29FBD31C98386010681168091A92
:1029C0006529FBD33D6070481038229006600020D6
:1029D00000BF411C63280846FAD33D61002000BFB8
:1029E000411C63280846FAD367480660002000BFF0
:1029F000411C63280846FAD3002080212391C1405E
:102A00007122114201D0394601E0394610310D6082
:102A1000002100BF4A1C63291146FAD322990E6097
:102A2000002100BF4A1C63291146FAD356490E60A3
:102A3000002100BF4A1C63291146FAD3401C082814
:102A4000DBD13D60002000BF411C63280846FAD35B
:102A500022980660384608381F900168002100BFA0
:102A60004A1C63291146FAD347480660002100BF7B
:102A70004A1C63291146FAD300201D90034603E047
:102A80005B1C062B00D196E01E933D601D9900BF94
:102A90004A1C63291146FAD300210B460E4603E077
:102AA0003E435B1C082B1BD037462098229A1060AF
:102AB0000A4600BF551C632A2A46FAD31F9A126899
:102AC000314D2860239EDE4021980240002500BF42
:102AD000681C632D0546FAD3002AE1D11646DFE7CC
:102AE000219D254F3D6029481E9BC654042B4FD87D
:102AF0003D6125481038209A0260002100BF481C23
:102B000063290146FAD320480260002100BF481C17
:102B100063290146FAD3B3E70024F40000093D001D
:102B2000E2710008D57200089802002077000020AA
:102B30009002002094020020960200207A000020DB
:102B40007800002079000020AB72000873657420C3
:102B50007365636F6E64733A25640A000000002099
:102B6000AC010020898800007FFEFFFF008080808C
:102B70005FFF01000004014018040050070000201E
:102B8000BC02002010000020280000507802002025
:102B90003D60209A22980260002100BF481C6329F2
:102BA0000146FAD3D7480260002100BF481C6329C0
:102BB0000146FAD364E73D61002000BF411C632851
:102BC0000846FAD322980260002000BF411C632807
:102BD0000846FAD33D60002000BF411C6328084628
:102BE000FAD3C94D68780003A97809010818ED786F
:102BF00029094018FDF74EFE00263246C34BFDF76B
:102C0000D7FB3246C24F3B46FDF7D2FBFDF77AFEBB
:102C1000C0490860C0490860BB4A10790002290712
:102C2000090B401851794018FDF734FE3246BB4B72
:102C3000FDF7BEFB32463B46FDF7BAFB3246354652
:102C40001F96B74BFDF702FBFDF75CFEB549086028
:102C5000B1494860B4480068C61713998902471AF9
:102C6000AE413220B14D2A5ED31738463146FDF7CA
:102C7000DEFD020D090389181E9100031D903846E0
:102C800031460E973A460F963346FDF7D0FD342273
:102C9000AA5ED3170D900C91FDF7C9FD0A06000A34
:102CA000801809121D9A10181F9F1E9A5141189ED4
:102CB000F20389182A8E3B46FDF7B9FDCB17491060
:102CC000084618437BD0382008912A5E0993D31711
:102CD0000E980F99FDF7ABFDC20B064649048D18FF
:102CE0003A2092490A5ED3170D980C99FDF79FFD83
:102CF00072041018694136228C4B9A5ED2008A18F1
:102D000019990E39894B5B784B4388490978090337
:102D1000864DAD782D091E956918591A189B1B050B
:102D2000CB185908DB07181A914100231D93804ADC
:102D3000FDF77DFD089A099BFDF753FD18900A46A3
:102D4000CB04410BC8185113154602460B46FDF73C
:102D50006EFD0B9AF64B9A5ED317FDF768FDCA011C
:102D6000400E80184E16189BC0180F906E412F46CB
:102D70003E20EF490A5ED517184639462B46FDF727
:102D800056FD4A03C00C8018C9140F9A10181F9FD3
:102D900071410A120906000A4018E549159BCB5EED
:102DA000190FDD172D016918E14D1B01C0185141A4
:102DB000FDF77EFD1D9AE24BFDF7FAFA04E0A878D4
:102DC00000091E9000200146FDF79CFDDA4EB06020
:102DD000688D19994143EA7812032B791B019A18DF
:102DE0001E9BD318DB0859182C23EB5E4B43D912DA
:102DF0002E23EB5E1209101A4043000B5843801338
:102E00004018CE4908600521414380310812FDF782
:102E10002DFD3A46C74BFDF733FBFDF773FDF06020
:102E20003E46C84D284600F0BBF9C719701C072E56
:102E30000646F7D3B8B2FDF712FD1F2149061F91D0
:102E4000FDF789F9C049FDF7C3F9C049FDF783F9DA
:102E5000B9490861002637460125284600F0A0F947
:102E60008619781C072F0746F6D31E95AD481C9986
:102E70000161B0B2FDF7F3FC1F99FDF76CF9B2499F
:102E8000FDF7A6F9B149FDF766F9AB494861084677
:102E9000AF492CC82CC16CC86CC11020A34F1F9027
:102EA00038600020179E239B06E00B6022990E607D
:102EB0003E60401C082807D01946C140B02211428C
:102EC0003946F2D02299F0E73B603E600021229122
:102ED00003E03D60491C20292CD0229A06E0239D66
:102EE00005601E603E60521C082AF2D0984B5B5C65
:102EF00093401D063B46103B002D3846EFD5184643
:102F0000EDE7C0462800005078020020000059403C
:102F10000000B03E580200205C0200200000694022
:102F2000000049C08C020020880200201000002010
:102F3000350C00003E60103F1F982297386085488E
:102F400001F050FD7C4D6868FDF7C8FC07461D91F7
:102F50002868FDF7C3FC024600971D9801907E4843
:102F60000B4601F03FFDE868FDF7B8FC07461D91F0
:102F7000A8687A49FDF72CF9FDF7B0FC02460097E6
:102F80001D98019076480B4601F02CFD6869FDF70D
:102F9000A5FC07461D912869FDF7A0FC0246009795
:102FA0001D9801906FA00B4601F01CFD4121744D4E
:102FB000685C202837D1286883690B9AAA5C551E63
:102FC0006A426A411B04069B00D41346002B6C4DD9
:102FD00029D121226A5442211F9A6A54002169642E
:102FE000219A6A85674AEA6224AA6A62664A6A6323
:102FF0006A8DFF2A03D9484A571C079A02E01E9A95
:1030000057066A8D0B9BE9544168604B1940D3B257
:103010001B043B430B435E490B4343602A85016815
:10302000F2220A43026001F0D7F9404D1F98286050
:103030001C98239F229B2F601E602E60401EFAD199
:103040002F602E60002108462A46183A12681E603A
:103050002E603B46CB405206D2171A40229B1043AB
:10306000491C0829F0D11F9919602960199906E0B7
:1030700017601E602D4A1660491C062904D00029DD
:103080001A46F5D0294AF3E7284A17601660FD2151
:1030900008400021174606E0239D1D6016603E6033
:1030A000491C082909D002468A4013063A46103ABC
:1030B000002B3B46F0D51346EEE7239838603E6080
:1030C000384610381F9901601E9D164E35613148F3
:1030D00001F088FC3561304801F084FC2F4801F094
:1030E00081FC0E4EF068149D2843F0600C4A106875
:1030F0001B990843106010681A99084310600A4928
:103100000868209B0968091A1A46F5329142064957
:10311000F8D3FFF727FAC046FFFFFF002C1002404C
:103120000070004018040050BC020020280000502D
:1031300010000020000059405C020020880200209E
:103140000000703F0200000400F07F4500404E4543
:103150009C020020157200084F7200080000C8424F
:103160007C7200084C494748543A252E3266206D3F
:10317000562C566261743A252E3266206D560A002E
:10318000580100200000FFFF59160008009800FCBD
:10319000EC200000237200083B7200080372000854
:1031A000F0B583B05D490860012420035C490190BB
:1031B0000860FDF7CFFB5B4F3E68B0685023354693
:1031C0000835400741D4F85C01283ED0FC54F8692A
:1031D000012829D0286803210140012902D1306843
:1031E000C00721D128685049084206D0786D1021C7
:1031F000014379653846583024E00093286801215E
:1032000001432960494800684949FDF7F7F90290F0
:103210000298002802D00298401EF8E7F74801689B
:103220003268D207009B19D00020F854796D414ACA
:103230000A400121090251187965B8651C203060E7
:1032400004242846016821430160786908280DD1CB
:10325000009308200FE03268D207E5D10268521AC5
:103260000B2AF8D33268D207F5D1BFE7F068C00760
:1032700035D100930C20019CE0490A683368034271
:103280000FD10B689B1A0B2BF8D333680342F5D18F
:10329000002000997854786D042101437965D8495C
:1032A00034E0012041027A6D0A437A65F16809052C
:1032B000890F25D120217A5C002A21D1326812079A
:1032C0001ED52A68520713D471680C22914371608D
:1032D000FF220232796D91433A4654320EE00020CB
:1032E000F854786D202101437965019CC4490DE0B3
:1032F0007A6D0A437A653A465832B96D01431160D6
:10330000B8690028BE4901D10C203060601C0860FB
:10331000346CFDF71FFBA0B203B0F0BD80020020AB
:1033200084020020FC000020170000800000002024
:1033300040420F00FEF0FFFFF0B58BB02C25A94EE8
:10334000002777550124A8480722B762378408214F
:10335000376377630492B263F463A44A521C85C650
:1033600037607460B160F7603761FF2001900246FA
:10337000C232B2610C3E706D002805972BD15020EF
:103380003754B7659A4B18680121084318601868CC
:1033900008400690069808970320079009970A9717
:1033A0000691052027460407029506AD20462946CA
:1033B0000392FDF72FFB0220069020463C46059F16
:1033C0002946029DFDF726FB039A10463F30884BA5
:1033D0009968014399603068716DC90627D4816886
:1033E000490724D4039281214900726D8A43911CBC
:1033F0007165826803231A407E49012A009402D134
:103400000268D20775D1029572680124E507AA42C5
:1034100005D0A407A24202D09B079A4253D1036968
:10342000724C2340036103691343036157E0502149
:103430007754716D10220A437265826803210A4035
:10344000012A02D10268D2072DD181225200736D68
:1034500093439A1C7265C268C3688B43C360E307D9
:10346000274684681C438460BF4B1C688568002D18
:1034700009D40A40C1681143C160706D384302210C
:103480008843059F12E0306802E08568002DF0D582
:103490001D682D1B0B2DF8D38568002DF5D5716D9A
:1034A00010200843EBE7716D20200843502177542A
:1034B0007065534853490160534854490160FDF712
:1034C00049FA0BB0F0BD0369484C234003610F2358
:1034D0009B040C689C430C600B6813430B60C26830
:1034E00018239A43C260B268C3681343C360009C48
:1034F000029D62060B6893430B60726B52060B6869
:1035000013430B608168C90003D4210782680A4312
:103510008260C168384A0A40C2603169891E4A42E5
:103520004A419100F3680B4320210291725C5403DD
:103530001C43336B2343745D64001C43B369F5691A
:103540009B032343EC031C43C3682343C360746A97
:1035500003460C3303998C4204D01D68B16A294399
:10356000214319602121715C0129009C0DD1002AA1
:1035700007D0716D029A1143716533465833214665
:1035800000E021041A680A431A600169F26B012AFB
:103590000ED1019A920091430161334640330ECB24
:1035A0000A431A430169114301610169214303E0A0
:1035B000C90702D00169A14301614169049A91439D
:1035C0004161B16B42690A434261B765716D214344
:1035D0000222914371655021715C012900D168E795
:1035E0002BE7C046FC00002000240140FFFFFF3F06
:1035F0002C100240082701401902FEFFBC020020E7
:103600008402002001100000800200200300064C0C
:10361000F0B595B04E4C0020A061E0617F210922F9
:1036200052014C4E33460C3B2360231D07C32061DF
:103630002125615D002949D0022060553068C0060F
:103640005ED4CA20B0615320B0613068400612D405
:103650003068802101433160B5490A68306840060E
:1036600009D420687D23DB000E68B61A9E4267D815
:10367000C6687606F8D5206881683C4A0A408260B0
:10368000616822690A43A169114382680A43826022
:10369000E1680161A168090402690A430261C16825
:1036A00080229143C160816889061DD42A49C16086
:1036B0007D21C9009E4A1368C668B60614D41668F0
:1036C000F61A8E42F8D9042161553CE00195202775
:1036D000E05511900820089001250D9508A8FDF7E8
:1036E000C3FB002810D0FEE7C16C03229143C164E4
:1036F000E16962690A43C16C1143C164FF214162FF
:103700000120605515B0F0BD009502971248A13018
:10371000039002A8FDF7F4FA002800D0FEE7009815
:1037200080040E490A6802430A60FF2000040C4925
:103730000A6882430A600B4804210160019D7BE70F
:1037400004216155C168FF21416215B0F0BDC0463A
:10375000AC0100200C2800405FFF01005010024027
:1037600000E400E000E100E0BC020020BFFF8FFFAA
:10377000F0B597B000241294119410940F940E9405
:103780000D940C940B9403200290C102654A1068BA
:1037900088430125EB02C018106028021368034318
:1037A0001360614B5A6C0A435A6409940894079455
:1037B000069405940494A9051691A90415911494EE
:1037C000022113910F9510210E910D950C9006205A
:1037D0000A900AA8FDF748FB2804039053480168A3
:1037E000C9070DD1016829430160D7490A68514BC7
:1037F0000768FF0704D10F68BF1A9F42F8D97FE01E
:10380000494B1968F022914319600C3B01931968E8
:10381000890175D5444A1168029B19431160CA4950
:103820000B68444F404A16680C2232400C2A04D0E0
:103830000A68D21ABA42F5D962E00068072738024E
:10384000394A116881431160F8021168814311609F
:1038500011680807830F38487B441B795B009F443D
:103860000109270F3048083800680004410F039809
:1038700088401DE001980068C00613D5304817E065
:103880008A02120F2D4B9B5C0902890F491C264AA4
:103890001268039E324208D101980068C00603D422
:1038A000284802E0274803E025485843FCF7A6FED5
:1038B0001D4909680906090F234A515CC84023497C
:1038C00008607D21C900FCF799FE421E100E17D139
:1038D0001F4B2048067839461F4F7A601F4A1068F0
:1038E0001840029B9B07C0181060BC603960012E15
:1038F00006D1106816490840184310601548057035
:1039000007942C200490039805902803089004A89D
:10391000FDF7F6F92807044AD16A0143D16217B0CE
:10392000F0BDC046007000400C1002400020024074
:10393000BC0200208813000000127A00E271000827
:1039400000093D000024F400EB7100080000002095
:10395000FFFFFF00C002002010E000E020ED00E0CB
:10396000F0B584B002905A4802220260012003029E
:10397000584C2360002000BF411C63280846FAD33E
:1039800053480261002000BF411C63280846FAD357
:103990002361002000BF411C63280846FAD30020A1
:1039A00080252946C1404906490F01D0484901E018
:1039B000474910310A60002600BF711C632E0E4675
:1039C000FAD32360002600BF711C632E0E46FAD383
:1039D0002361002600BF711C632E0E46FAD3401CE3
:1039E0000828DDD13A480260002000BF411C63284E
:1039F0000846FAD323603648083801900068002052
:103A000000BF411C63280846FAD32361002000BF91
:103A1000411C63280846FAD3002000900146029812
:103A20000391405C009E2946F140084201D028499C
:103A300001E0274910310A60002100BF4F1C6329B3
:103A40003946FAD32360002100BF4F1C6329394651
:103A5000FAD32361002100BF4F1C63293946FAD3F2
:103A6000761C082EDFD11A480260002000BF411CDE
:103A700063280846FAD3236001980068002000BF3D
:103A8000411C63280846FAD32361002000BF411C73
:103A900063280846FAD30399491C0329BFD10C486F
:103AA0000261002000BF411C63280846FAD323604E
:103AB000002000BF411C63280846FAD30448026076
:103AC000002000BF411C63280846FAD304B0F0BDB3
:103AD0001804005018000050F0B585B0BE490A68BF
:103AE000012002430A600A6802400092009A0A68B4
:103AF00002273A430A600968394000910099112170
:103B0000019100210291049103970602009605207D
:103B100004076D4620462946FCF77CFF00970948BC
:103B20002946FCF777FFA66106488761AF48016820
:103B30000268521A0B2AFBD30448FFF711FF05B0A5
:103B4000F0BDC04600040050BC020020040000206C
:103B5000F0B591B09D4D002101249D4B9D4809C5B4
:103B600029606C60A960E96029616961A9614127E8
:103B7000083DEA5D002A2246079730D14020002107
:103B80002954954F386801263043386038683040F2
:103B90000C900C98109602200F900E960320400275
:103BA0000C9012200D90052000070CA9FCF732FFA5
:103BB0007005F9680143F960079F3006401E874988
:103BC0000A680240B00710180860F00584490860D0
:103BD0000F20060609CD29686A68B343083D2426EC
:103BE000EE550668A6430660036186687D4B1E405D
:103BF0008660E4032126012A059400D0B402214303
:103C00008160022A02D10121C90241604168764ADD
:103C10000A434260C1681940C16029696A690A4360
:103C2000A96909021143C160E9692A6A0A4302606D
:103C3000016801220A43026000246C642020E855D8
:103C40002C63422004902C540BA804700AA8D021A5
:103C50000170FCF7FDFF654F38683968091A0329C0
:103C6000FBD30BA801210691FCF79CFF386839684B
:103C7000091A0329FBD30BA80078582800D0A3E029
:103C8000039609A888210170FCF7E2FF38683968BB
:103C9000091A0B29FBD3564E304610301A21FCF777
:103CA00081FF38683968091A6529FBD30798285CB1
:103CB00020283CD128688369402102916A5C511E0A
:103CC0004A424A4105990B42069B00D11346002BFC
:103CD0002DD10799039A6A541021049AA9546C644F
:103CE000022169854349E96208A969624249696319
:103CF0000123698DFF2903D919060191FF2202E0F2
:103D00006A8D59060191009202996C5441683B4BAF
:103D10000B40D1B20904019A11431943384B0B43AC
:103D20004360009929850168F2220A4302603868DD
:103D30003968091A0B29FBD30798285C202837D14A
:103D400028688369402102916A5C511E4A424A41B7
:103D500005990B4200D106920699002928D10799AE
:103D6000039A6A541021049AA9546C640421698549
:103D70002049E9620CA969621F4969630123698DC1
:103D8000FF2902D91B06FF2201E06A8D5B0602991A
:103D90006C544168194C0C40D1B2090419432143B9
:103DA000174B0B4343602A850168F2220A430260E5
:103DB00038683968091A0629FBD310203118325A9D
:103DC0004A83801C2828F9D111B0F0BD5801002089
:103DD0004E38B000005400402C10024014E400E0C3
:103DE00000E100E0FF7FFFFF00800002BC02002036
:103DF000100000200000FFFF59160008009800FC8A
:103E0000EC200000F0B589B0FB4F10263E6000208A
:103E100007E01A6020250D60F74F3D60401C082820
:103E20000AD080221146C1404B0739461039002B79
:103E30003B46EED00B46ECE705963A603D60002627
:103E4000304608953C46183C3D4627682B46103BBB
:103E50000899196029601146F2407F06FF17174044
:103E60000A4638432F46761C082EEBD1214607928E
:103E7000059A1A603A601A603A6080063C4613D48C
:103E80000020089F079D05E035601F602760401CEB
:103E900008281BD02A46C24052072346103B002A5E
:103EA0002646F1D01E46EFE70020079D06E03D6064
:103EB000089A1A602260401C082833D02A46C24063
:103EC000272632422746F2D01F46F0E725602760BA
:103ED000002630460A682346103B1F6027602F46A5
:103EE000F7405206D2173A40089F1043761C082E1E
:103EF000F0D1059A1A6022601A602260400657D4F9
:103F0000002005E035601F602760401C082864D051
:103F10002A46C24052072346103B002A2646F1D0CB
:103F20001E46EFE706962560089D256000273B4664
:103F30000A682046103805602560079EFE4052063C
:103F4000D217324013437F1C082FF1D1059901602D
:103F500021600021079D069E06E03D60089A0260F0
:103F60002260491C082906D02A46CA403242274608
:103F7000F3D00746F1E72560089F27603B43002008
:103F800005E035600F602760401C082809D01946FD
:103F900081400A0621461039002A2646F1D50E46F0
:103FA000EFE725602760103C0598206009B0F0BD60
:103FB00000202E4607E03A601646089D1D602560E9
:103FC000401C082837D03246C240272506952A4291
:103FD00027463246EFD01F46EDE7256027600026D2
:103FE00030460A682346103B1F602760079DF54056
:103FF0005206D2172A40079D1043761C082EF0D196
:10400000059A1A6022601A60C00600D469E1226035
:10401000002007E03D60089E1E602660401C0828C6
:1040200000D11AE12A46C240272606963242274688
:10403000F0D01F46EEE72660256000273D460A685F
:1040400020461038089B036023603346FE4052062A
:10405000D21732401E4615437F1C082FEFD1059A18
:10406000026022600027334606E03360089A02604F
:1040700022607F1C082F07D01A46FA40069E324263
:104080002646F2D00646F0E72360089820604020DC
:104090000543002006E03B60089F37602760401C16
:1040A000082809D02A46824012062646103E002AD9
:1040B0002746F0D53746EEE72360276020461038C4
:1040C000059A026022601A46002306E02A463560FF
:1040D000076027605B1C082B07D01546DA405206A4
:1040E000920F2646F2D00646F0E7226027600023B2
:1040F0001D460A682046103807602760079EDE408C
:104100005206D217324015435B1C082BF1D17D4A71
:104110000495D555059A026022600023079D06E0AC
:10412000079D3560076027605B1C082B05D0DD40CC
:104130006A072646F4D00646F2E72560276000208D
:10414000034606930A682646103E376027602B46D2
:10415000C3405206D2171A40069B1343401C08283E
:10416000EFD10E2003402122664806930292835429
:1041700005983060206000202B4607E0079B3B60DD
:10418000089F37602760401C082807D01A46C240A5
:1041900009231A422746F1D03746EFE7236027600C
:1041A000002635460A6820461038076027601F46FB
:1041B000F7405206D2173A40089F1543761C082E46
:1041C000F0D10122154022264E4A01969555059AB6
:1041D00002602260002606E03B60089F07602760BF
:1041E000761C082E0AD01A46F24061273A4227462A
:1041F000F2D00746F0E7C046280000502360276051
:104200000498C0B2049000286DD0002003900246AC
:10421000079E3B4C0692039F3B4608980A6825463A
:10422000103D286020603546DD405206D2172A40F6
:1042300017435B1C082BF1D13248069A8754521C55
:1042400004988242E6D1089F2E48C25D0199455CE0
:104250000299435C05982A4C48E0256026600027B7
:104260003B462E460A6820461038089D05602560AA
:104270003546FD405206D2172A4013437F1C082FB3
:10428000F0D1059D05602560002106E03E60089A9A
:1042900002602260491C082907D03246CA40069FA6
:1042A0003A422746F2D00746F0E72660089F27608B
:1042B0002B43002006E0079A32600F602760401C05
:1042C000082809D0194681400A0621461039002ADB
:1042D0002646F0D50E46EEE7079820602760103C92
:1042E000256009B0F0BD00220598069B2760103CB0
:1042F0002060009504A0034900F074FB09B0F0BDF4
:1043000028000050540000207265636965642064D1
:104310006174613A222573222C6C656E3A25642CF7
:104320007070703A25642C727373693A25640A00C0
:10433000F0B581B051491020009008600824802217
:104340000A600D46103D20232B600B60641EF6D1E1
:104350000A600B60002634460846183800682B6057
:104360000B601746F7404006C01738400443761CE0
:10437000082EF1D10098286008600126F74305E077
:1043800002602B600B607F1C062F04D0002F284694
:10439000F6D00846F4E70A600B60FE2004400025D2
:1043A00005E002603B600B606D1C082D09D02046C3
:1043B000A84000060F46103F00280846F1D53846B1
:1043C000EFE70A600B60103900980860014806604A
:1043D00001B0F0BD18040050F0B581B0274910209D
:1043E00000900860082480220A600D46103D2023BA
:1043F0002B600B60641EF6D10A600B600026344609
:104400000846183800682B600B601746F7404006D6
:10441000C01738400443761C082EF1D1009828605C
:1044200008600126F74305E002602B600B607F1CEB
:10443000062F04D0002F2846F6D00846F4E70A607D
:104440000B6002200443002505E002603B600B6026
:104450006D1C082D09D02046A84000060F46103FCD
:1044600000280846F1D53846EFE70A600B6010399E
:10447000009808600248066001B0F0BD28000050B6
:1044800028040050F0B589B0954C0026954D0C22BB
:10449000E120400225606060A660E66026616261FE
:1044A000A661E66101200390C00220626662E06FAF
:1044B0000028304633463146374602962ED17820C2
:1044C00000212154884DE86A039F3843E862E86A76
:1044D0003840049004980620089003200790069125
:1044E0000C200490022005900520000704A9FCF789
:1044F00091FAB804A96B0143A963FF2000027B492C
:104500000A6882430A607807794908602568A068CC
:104510000290E36827696269A069E16901930B462B
:104520002421E1672968039CA143296002990F4374
:10453000174329686F4A0A403A4302931A432A6094
:104540000321009109036A688A4301990A436A605A
:10455000644FBD4201D062490E6A30430B2109020B
:10456000AA688A430243AA60634885425E4B04D02E
:10457000BD425B4E0AD10A2001E00220584ED96CA0
:10458000C1408807000F5DA10A5800E0102202997F
:10459000E003BD421FD081423BD1082A00D90DE182
:1045A0005200C0467A44928852009744080007019E
:1045B0007D0007016600070107010701D30053488A
:1045C0000068D9684905490F514A515CC840002824
:1045D00000D0BFE0DDE0082A00D9EFE05200C0467D
:1045E0007A449288520097440800E9004300E900A9
:1045F0002C00E900E900E9009B0044480068D96804
:104600004905490F424A515CC840002800D087E064
:10461000BFE0082A00D9D1E07A44127952009744C9
:1046200004CD79CD48CDCDCDAB00E9480068D9683F
:104630004905490FE74A515CC840002800D09BE07B
:10464000A7E0D9680807820FDD48920001A39A58B5
:10465000DA4B974665460008714600082147000876
:1046600029490008200459680904490F884057E087
:104670001868C00653D5D44852E0D9680807820F9D
:10468000CF48920001A39A58CC4B97469D4600080C
:10469000A946000855470008494900082004596800
:1046A0000904490F884055E01868C00651D5C6482E
:1046B00050E0D9680807820FC148920001A39A58B8
:1046C000BE4B9746D54600081547000879470008B5
:1046D00069490008200459680904490F88404BE0E3
:1046E000D001002000480040001002401CE400E01F
:1046F00000E100E0F369FFEF00440040000000002B
:10470000040000000200000008000000000000207B
:10471000FB7100081868C0062DD5AB482CE0AB48EB
:10472000726800995143884248D31103884245D8A2
:10473000010E2F4655080002002340193D46039CF8
:104740005941FBF7D8FCA4494118A44A91421FD310
:1047500034E09E48400071684A081018FBF74EFF8D
:104760000246103A210410398A4227D2014000073C
:10477000400F08430CE0954871684A081018FBF791
:104780003DFF014610392204103A914216D280B200
:10479000E8600023B366F366706A00285BD0C10747
:1047A00010D1810716D441071CD4010722D4C106B9
:1047B00028D481062ED4410634D444E00020B066CB
:1047C000F066A4E061046A688A43B16A11436960D3
:1047D0008107E8D521046A688A43F16A1143696058
:1047E0004107E2D5A1046A688A43316B11436960CD
:1047F0000107DCD5E1036A688A43716B1143696084
:10480000C106D6D52103AA688A43B16B1143A960BA
:104810008106D0D56103AA688A43F16B1143A96070
:10482000410610D521056A688A431F46336C1A4336
:104830006A608B423B4606D1009949056A688A4303
:10484000716C11436960000605D5E0046968814315
:10485000B06C084368600927F802696881436960A1
:10486000A8682A218843A8602868204328608420FB
:104870003350934829460568086800071CD5039300
:10488000610526464C4C564B20462A46FDF736FC21
:1048900000280ED0EFF3108086F3108821680A6894
:1048A00080239A430A6080F310887C344249039B3A
:1048B00029E021683446039B0868400729D526462D
:1048C000A1053D4C0393464B20462A46FDF716FCB6
:1048D000039B00281DD0EFF3108086F31088790128
:1048E000226813688B431360039B80F31088EFF3F7
:1048F000108086F3108821688A68B2438A6080F34A
:10490000108880342C4978200B542020206000BF70
:10491000FDE72020284AD06780215050782013548A
:104920001366536609B0F0BD8A02120F1F46254B6D
:104930009A5C0902890F491CFB68DB0325D438689F
:10494000C00621D4214820E08A02120F1F461D4BC9
:104950009A5C0902890F491CFB68DB031DD4386887
:10496000C00619D4194818E08A02120F1F46154BC9
:104970009A5C0902890F491CFB68DB0315D438686F
:10498000C00611D4114810E00F485043FBF736FE23
:10499000002800D0C4E6FCE60B485043FBF72EFE8F
:1049A000002800D0D6E6F4E607485043FBF726FE81
:1049B000002800D0E0E6ECE6D00100200010024024
:1049C00000127A00E271000800093D000024F400A2
:1049D00000000020FB71000800FDFFFF00FD0F003C
:1049E000FFFFFF0183B0F0B582B0044607A80EC0F8
:1049F00007AA0192304D2846214601F05FFF284664
:104A0000FBF772FB2D4CE16F202950D101044ED0F1
:104A100001210903A2688A4216D12169002902D125
:104A2000254AD20743D184230022E2505023E0528A
:104A30002123E367224B1B6800935223E052002995
:104A40000ED11D4F15460CE08421002262505021EA
:104A500060522121E1671A49096800915221605290
:104A60000027522609E038881649084021688862E4
:104A7000BF1C0025A05B401EA053A05B00280ED0E9
:104A8000802132232046009AFDF738FB00280CD104
:104A9000002DE8D02878216888626D1CEAE7074875
:104AA00040213223009AFDF729FB2020E06702B065
:104AB000F0BC01BC03B000477B000020D001002007
:104AC000BC020020FF010000F0B5A3B02DA0FFF74D
:104AD00089FF314C20680227384320602068384025
:104AE0001E901E982197209701261E961F962B48F0
:104AF0001EAD2946FBF78EFF2068384320602068F2
:104B000038401C902120029000041F9020968024A1
:104B10001E9415941C9821482946FBF77BFFFF2023
:104B200000061F490A6882430A601E4804601A4949
:104B3000086830430860086830401E901E980025C1
:104B40002295209503961F962197B0201E90164E11
:104B50003746283F1EAC38462146FBF75BFF402016
:104B600001901E901F953846159F2146FBF752FF76
:104B70002022326030461038076010210160119108
:104B8000316019E053693234523120696E69742002
:104B9000626567696E210A002C1002400004005013
:104BA00004E400E000E100E0280000500F60026033
:104BB00032606D1C082D06D03946E9408907314620
:104BC000F4D00146F2E737603260002001460A92D5
:104BD0003446183C23683246103A0A9D1560356009
:104BE0003D46C5405B06DB172B401943401C082897
:104BF000EED1149411981060306000230A9C05E0F7
:104C00002F60146034605B1C082B07D03D46DD40EC
:104C1000232005423546F3D01546F1E7376034606E
:104C2000FC221140002205E02F601C603460521C01
:104C3000082A09D00B4693401D063346103B002D31
:104C40003546F1D51D46EFE71390376034603146A5
:104C50001039119A0A603260002205E01F600C6072
:104C60003460521C082A06D03B46D3409B0733468B
:104C7000F4D00B46F2E737603460002319461498ED
:104C800005683246103A14603460159FDF406D06A7
:104C9000ED173D40159F29435B1C082BF0D1119B5C
:104CA000136033600023139805E02F6014603460B4
:104CB0005B1C082B06D03D46DD4005423546F4D04E
:104CC0001546F2E73760346003200143002005E019
:104CD0001F6014603460401C082809D00A468240D6
:104CE00013063246103A002B3346F1D51346EFE750
:104CF0003760346031461039119B0B601EA81222B8
:104D00001092427134221392027156220F92C27095
:104D100078220E9282709A220D9242703022027096
:104D200033600025129503E037606D1C062D11D00D
:104D30001EA8425D129806E03B600C603460401C87
:104D400008281F46F0D03B46C7403A423746F3D0CA
:104D50000F46F1E7346031461039119B0B601CA8F7
:104D6000109A4271139A02710F9AC2700E9A827051
:104D70000D9A42702A22027033600022129203E0E0
:104D80003760521C062A11D01CAB9B5C129D06E0BA
:104D900038600C6034606D1C082D0746F0D0384632
:104DA000EF403B423746F3D00F46F1E734603046E0
:104DB0001038119B03601AA911254D702B220A701F
:104DC0008D70CD700D710E954D7133600022129271
:104DD00003E03760521C062A11D01AAB9B5C129D6F
:104DE00006E03960046034606D1C082D0F46F0D079
:104DF0003946EF403B423746F3D00746F1E734608F
:104E000031461039119B0B6019A822220D92427075
:104E10002C22027033600023129303E037605B1C86
:104E2000022B11D019AAD55C129A06E038600C60EA
:104E30003460521C082A0746F0D03846D7403D421D
:104E40003746F3D00F46F1E7346031461039119BF5
:104E50000B6018A833220F9242702D22027033602B
:104E60000023129303E037605B1C022B11D018A8BB
:104E7000C55C129806E03A600C603460401C08285B
:104E80001746F0D03A46C7403D423746F3D00F466A
:104E9000F1E7346031461039119B0B6017A84422AA
:104EA00042702E22027033600023129303E03760B9
:104EB0005B1C022B11D017A8C55C129806E03A6063
:104EC0000C603460401C08281746F0D03A46C740B2
:104ED0003D423746F3D00F46F1E734603146103992
:104EE000119B0B6016A8552242702F22027033606E
:104EF0000023129303E037605B1C022B11D016A82D
:104F0000C55C129806E03A600C603460401C0828CA
:104F10001746F0D03A46C7403D423746F3D00F46D9
:104F2000F1E7346031461039119808603060039819
:104F3000C0430590001F05E017600C603460401C02
:104F4000022804D000280A46F6D03246F4E737603B
:104F5000346000231946149800683246103A1460F1
:104F600034603D46DD404006C017284001435B1CCD
:104F7000082BF0D111981060306000200D9D05E0E5
:104F80001F6014603460401C082806D03B46C340B4
:104F90002B423346F4D01346F2E737603460C0202A
:104FA00004900140002205E01F6004603460521C40
:104FB000082A09D008469040030630461038002BD6
:104FC0003346F1D50346EFE7376034603146103998
:104FD0001198086030600598001F05E017600C60AC
:104FE0003460401C022804D000280A46F6D032461D
:104FF000F4E737603460002319461498006832469D
:10500000103A146034603D46DD404006C017284029
:1050100001435B1C082BF0D1119810603060002018
:105020000D9D05E01F6014603460401C082806D008
:105030003B46C3402B423346F4D01346F2E7376079
:1050400034603D2012900143002005E01F60146091
:105050003460401C082809D00A46824013063246B4
:10506000103A002B3346F1D51346EFE73760346032
:10507000314610391198086030600022149805E01C
:105080001F600C603460521C082A08D03B46D34095
:1050900005250D952B423346F2D00B46F0E73760DD
:1050A000346000210A4605683346103B1C603460BA
:1050B000159FCF406D06ED173D40159F2A43491CB3
:1050C0000829F0D1119818603060002506E038609A
:1050D0001C6034606D1C082D074607D03846EF4031
:1050E00025210F423746F2D01F46F0E73760346083
:1050F0003A400023159805E038602C6034605B1C52
:10510000082B09D015469D402F063546103D002F2F
:105110003746F1D52F46EFE707460C9130603460F3
:105120003246103A11981060306000230D9805E067
:105130002F60146034605B1C082B06D03D46DD40B8
:1051400005423546F4D01546F2E737603460002357
:10515000184614990D683246103A14603460159F51
:10516000DF406D06ED173D40159F28435B1C082B63
:10517000F0D1119B1360336000230C9905E02F6080
:10518000146034605B1C082B06D03D46DD400D42A8
:105190003546F4D01546F2E73760346064210843A1
:1051A000002105E01F6014603460491C082909D003
:1051B00002468A4013063246103A002B3346F1D598
:1051C0001346EFE7376034603046103811990160BC
:1051D000316000210E9B05E0176004603460491CBB
:1051E000082906D03A46CA401A423246F4D002464E
:1051F000F2E7376034600022104614990B6831469C
:1052000010390C6034603D46D5405B06DB172B40FF
:105210001843521C082AF0D1119A0A603260002209
:1052200005E01F600C603460521C082A08D03B4621
:10523000D34031250D952B423346F2D00B46F0E793
:105240003760346004990840002105E01F60146055
:105250003460491C082909D002468A4013063246A8
:10526000103A002B3346F1D51346EFE73760346030
:10527000304610381199016031600021109B05E023
:10528000176004603460491C082906D03A46CA40B9
:105290001A423246F4D00246F2E737603460002208
:1052A000104614990B68314610390C6034603D4645
:1052B000D5405B06DB172B401843521C082AF0D15F
:1052C000119A0A603260002205E01F600C603460B1
:1052D000521C082A08D03B46D34032250C952B425D
:1052E0003346F2D00B46F0E737603460049908404B
:1052F000002105E01F6014603460491C082909D0B2
:1053000002468A4013063246103A002B3346F1D546
:105310001346EFE73760346030461038119901606A
:105320003160002105E0176004603460491C0829E1
:1053300008D03A46CA40132309931A423246F2D0A3
:105340000246F0E7376034600022104614990B687B
:10535000314610390C6034603D46D5405B06DB17A2
:105360002B401843521C082AF0D1119A0A6032606F
:1053700000220F9D05E01F600C603460521C082A5B
:1053800006D03B46D3402B423346F4D00B46F2E7DF
:105390003760346004990840002105E01F60146004
:1053A0003460491C082909D002468A401306324657
:1053B000103A002B3346F1D51346EFE737603460DF
:1053C00030461038119901603160002105E0176006
:1053D00004603460491C082908D03A46CA401423A6
:1053E00008931A423246F2D00246F0E73760346042
:1053F0000022104614990B68314610390C60346055
:105400003D46D5405B06DB172B401843521C082A4B
:10541000F0D1119A0A6032600022139D05E01F60EE
:105420000C603460521C082A06D03B46D3402B4205
:105430003346F4D00B46F2E73760346004990840F5
:10544000002105E01F6014603460491C082909D060
:1054500002468A4013063246103A002B3346F1D5F5
:105460001346EFE737603460304610381199016019
:105470003160002105E0176004603460491C082990
:1054800008D03A46CA40152307931A423246F2D052
:105490000246F0E7376034600022104614990B682A
:1054A000314610390C6034603D46D5405B06DB1751
:1054B0002B401843521C082AF0D1119A0A6032601E
:1054C000002205E01F600C603460521C082A08D0DE
:1054D0003B46D34035250B952B423346F2D00B4645
:1054E000F0E73760346004990840002105E01F6050
:1054F00014603460491C082909D002468A4013060A
:105500003246103A002B3346F1D51346EFE73760A9
:10551000346030461038119901603160002105E097
:105520001F6004603460491C082908D03B46CB400A
:105530001622069213423346F2D00346F0E7376054
:10554000346000200146149A13683546103D2C60E3
:105550003460159FC7405B06DB173B40159A194323
:10556000401C0828EFD1119828603060002305E026
:105570003A602C6034605B1C082B07D01746DF4074
:10558000362007423746F3D02F46F1E700903260CD
:105590003460049801400023159805E038602C60C1
:1055A00034605B1C082B09D00D469D402F06354604
:1055B000103D002F3746F1D52F46EFE730603460BD
:1055C00031461039119A0A60326000230E9A05E0C4
:1055D00028600C6034605B1C082B06D00546DD405B
:1055E00015423546F4D00D46F2E7306034600021B4
:1055F0000B46149807683546103D2C603460159AA8
:10560000CA407F06FF1717403B43491C0829F1D1C8
:105610001199296031600021159805E038602C60EF
:105620003460491C082907D00246CA400D9F3A42FF
:105630003746F3D02F46F1E7306034602343002132
:10564000159805E038602C603460491C082909D0A1
:105650001A468A4012063546103D002A3746F1D5D3
:105660002F46EFE73060346031461039119A0A60F6
:105670003260002305E028600C6034605B1C082B5E
:1056800007D00246DA40109D2A423546F3D00D4637
:10569000F1E73060346000231946149802683546FB
:1056A000103D2C603460159FDF405206D2173A40FF
:1056B000159811435B1C082BEFD1119A2A603260B8
:1056C000002305E038602C6034605B1C082B07D099
:1056D0000246DA400C9F3A423746F3D02F46F1E7B4
:1056E0003060346021430023159805E038602C6059
:1056F00034605B1C082B09D00A469A4012063546D6
:10570000103D002A3746F1D52F46EFE73060346070
:1057100031461039119A0A6032600023099F05E072
:1057200028600C6034605B1C082B06D00246DA400F
:105730003A423546F4D00D46F2E73060346000233B
:105740001946149802683546103D2C603460159F48
:10575000DF405206D2173A40159811435B1C082BC4
:10576000EFD1119A2A603260002305E038602C6086
:1057700034605B1C082B07D00246DA400F9F3A4288
:105780003746F3D02F46F1E73060346021430023E1
:10579000159805E038602C6034605B1C082B09D03C
:1057A0000A469A4012063546103D002A3746F1D582
:1057B0002F46EFE73060346031461039119A0A60A5
:1057C00032600023089F05E028600C6034605B1C99
:1057D000082B06D00246DA403A423546F4D00D4650
:1057E000F2E73060346000231946149802683546A9
:1057F000103D2C603460159FDF405206D2173A40AE
:10580000159811435B1C082BEFD1119A2A60326066
:10581000002305E038602C6034605B1C082B07D047
:105820000246DA40139F3A423746F3D02F46F1E75B
:105830003060346021430023159805E038602C6007
:1058400034605B1C082B09D00A469A401206354684
:10585000103D002A3746F1D52F46EFE7306034601F
:1058600031461039119A0A6032600023079F05E023
:1058700028600C6034605B1C082B06D00246DA40BE
:105880003A423546F4D00D46F2E7306034600023EA
:105890001946149802683546103D2C603460159FF7
:1058A000DF405206D2173A40159811435B1C082B73
:1058B000EFD1119A2A603260002305E038602C6035
:1058C00034605B1C082B07D00246DA400B9F3A423B
:1058D0003746F3D02F46F1E7306034602143002390
:1058E000159805E038602C6034605B1C082B09D0EB
:1058F0000A469A4012063546103D002A3746F1D531
:105900002F46EFE73060346031461039119A0A6053
:1059100032600023069F05E028600C6034605B1C49
:10592000082B06D00246DA403A423546F4D00D46FE
:10593000F2E7306034600023194614980568324657
:10594000103A14603460159FDF406D06ED173D403E
:10595000159F29435B1C082BF0D111981060306013
:105960000023009805E02F60146034605B1C082B56
:1059700006D03D46DD4005423546F4D01546F2E7F7
:10598000376034602143002005E01F6014603460FC
:10599000401C082809D00A46824013063246103AB5
:1059A000002B3346F1D51346EFE7376034603046BD
:1059B00010381199016031600599491F05E01760A1
:1059C00004603460491C012904D000290246F6D045
:1059D0003246F4E7376034600022104614990B68B1
:1059E000314610390C6034603D46D5405B06DB170C
:1059F0002B401843521C082AF0D1119A0A603260D9
:105A00000022029D05E01F600C603460521C082AD1
:105A100006D03B46D3402B423346F4D00B46F2E748
:105A20003760346004990840002105E01F6014606D
:105A30003460491C082909D002468A4013063246C0
:105A4000103A002B3346F1D51346EFE73760346048
:105A5000304610381199016031600599491F05E001
:105A6000176004603460491C012904D000290246F3
:105A7000F6D03246F4E737603460002210461499BD
:105A80000B68314610390C6034603D46D5405B06EA
:105A9000DB172B401843521C082AF0D1119A0A60D8
:105AA00032600022029D05E01F600C603460521CD1
:105AB000082A06D03B46D3402B423346F4D00B464F
:105AC000F2E7376034603F210D910843002105E083
:105AD0001F6014603460491C082909D002468A40BE
